:020000040800F2
:100000006839002001020008CB6300087D5F00080A
:10001000C963000869240008458C0008000000003E
:1000200000000000000000000000000081710008D6
:10003000ED25000800000000196800089F72000804
:100040001B0200081B0200081B0200081B0200081C
:100050001B0200081B0200081B0200081B0200080C
:100060001B0200081B0200081B0200081B020008FC
:100070001B0200081B0200081B0200081B020008EC
:100080001B0200081B020008752200081B02000862
:10009000B18B00081B0200081B0200081B020008AD
:1000A0001B0200081B0200081B0200081B020008BC
:1000B00029730008357300081B0200081B020008A2
:1000C0001B0200081B0200081B0200081B0200089C
:1000D0001B0200081B0200081B0200081B0200088C
:1000E0001B0200081B0200081B02000800F002F8B7
:1000F00000F077F80AA090E8000C82448344AAF14B
:100100000107DA4501D100F06CF8AFF2090EBAE848
:100110000F0013F0010F18BFFB1A43F0010318473B
:100120003CDD00005CDD000010F8013B0A4413F0E8
:10013000030408BF10F8014B1D1108BF10F8015B44
:10014000641E05D010F8016B641E01F8016BF9D133
:10015000002D15D010F8014B03F00C030C2BA1EB74
:1001600004040ABF10F8013BA4EB8314A4EB03249E
:1001700005F1010314F8016B5B1E01F8016BF9D561
:10018000914238BF10F8013BD1D3704700230024BF
:1001900000250026103A28BF78C1FBD8520728BF97
:1001A00030C148BF0B60704766290DF0488564294F
:1001B00000F0AE80732900F03E85002070471FB527
:1001C00000F0CAFD0400002000210CF073FB401C6D
:1001D0006060002000210CF083FBE0601FBD10B5C3
:1001E00010BD00F029FF1146FFF7E9FF0AF08CFC73
:1001F00001F0A8F903B4FFF7F2FF03BC01F012FC11
:100200000948804709480047FEE7FEE7FEE7FEE7AA
:10021000FEE7FEE7FEE7FEE7FEE7FEE704480549E6
:10022000054A064B7047000027730008ED000008E0
:10023000682D0020683900206831002068310020D6
:10024000B2F120030AD5C2F1200320FA02F001FA2C
:1002500003F321FA02F140EA0300704721FA03F0A8
:100260004FF00001704710B5044600F02FFA006807
:10027000005D000704D5DF2C02D0A4F1200010BDE2
:10028000204610BD0FB47CB50C0009AA009001D027
:100290002044401E084B7B4469460190089800F0BA
:1002A00098FC05461CB10020694600F0A5FC2846D4
:1002B0007CBC5DF814FB00006909000070B50C46B9
:1002C0000546012A05D02878800600D5EA69002372
:1002D00002E0012305E05B1C934202D2E05C0028AF
:1002E000F9D1A869E618C01AA861286A18442862DA
:1002F0002846AFF3008004E0D5E9012114F8010B92
:100300009047B442F8D32846AFF3008070BD000098
:100310002DE9F0410646002410687529314616A5DE
:1003200010D0AFF30080002802DA404213A507E0A6
:1003300031688A0701D512A502E0490704D511A545
:10034000012401E0AFF3008000210A2206F1240716
:1003500009E0B0FBF2FCB0FBF2F302FB1C00303012
:1003600078541846491C0028F3D123462A463046C3
:10037000BDE8F04100F0C1B9000000002D00000010
:100380002B000000200000002DE9F0474FF0000A8C
:1003900089460446C0F820A02046E1688847002826
:1003A00076D0252806D0D4E901219047206A401C48
:1003B0002062F1E7E168204600258847C4F81CA0C8
:1003C00006460027C4F818A02A2E09D0304608F0A7
:1003D000C8FC38B304EB8708303EC8F8186019E051
:1003E00059F8041B204604EB87029161E1688847B5
:1003F000012F064618D1E069002820DA25F02005F3
:100400001DE0D8F8180000EB800006EB4000303803
:10041000C8F818002046E1688847064608F0A1FCA5
:100420000028EED1012F0AD02E2E08D12046E168F7
:1004300088477F1C0646022F45F02005C4DBA069D3
:10044000002803DA404245F00105A061E80701D029
:1004500025F01005B6B1A6F14100192802D82036C2
:1004600045F400654A463146204625604D46FFF773
:100470009BFE58B1012806D0ED1D25F0070000F1C4
:10048000080989E704E005F1040985E730468AE7B1
:10049000206ABDE8F08770B5064600F01FF90468D1
:1004A000054630460A22002100F01AFC2C6070BD7F
:1004B00040EA010370B59B072ED14FF00136042AA4
:1004C0002AD308C810C99D1B9D43121F15EAC615E3
:1004D00017D0D8B2E1B2401A50EA056110D198B2F3
:1004E000A1B2401A50EA05410AD123F07F4024F01E
:1004F0007F41401A50EA052102D1180EA0EB14608A
:1005000070BDA342DBD018BA21BA884201D90120BC
:1005100070BD4FF0FF3070BD0AB9002070BD10F8FB
:10052000013B11F8014B63B1A3420AD1521E08D01E
:1005300010F8013B11F8014B1BB1A34201D1521E2F
:10054000EDD1181B70BD032A40F2308010F0030C6F
:1005500000F0158011F8013BBCF1020F624498BF16
:1005600011F801CB00F8013B38BF11F8013BA2F1B3
:10057000040298BF00F801CB38BF00F8013B11F02E
:10058000030300F02580083AC0F0088051F8043BCE
:10059000083A51F804CBA0E80810F5E7121D5CBF3B
:1005A00051F8043B40F8043BAFF30080D20724BF6E
:1005B00011F8013B11F801CB48BF11F8012B24BF02
:1005C00000F8013B00F801CB48BF00F8012B704751
:1005D00010B5203AC0F00B80B1E81850203AA0E8DE
:1005E0001850B1E81850A0E81850BFF4F5AF5FEA12
:1005F000027C24BFB1E81850A0E8185044BF18C9C5
:1006000018C0BDE810405FEA827C24BF51F8043B6B
:1006100040F8043B08BF7047D20728BF31F8023BBF
:1006200048BF11F8012B28BF20F8023B48BF00F853
:10063000012B70474FF000020429C0F0128010F027
:10064000030C00F01B80CCF1040CBCF1020F18BFAE
:1006500000F8012BA8BF20F8022BA1EB0C0100F041
:100660000DB85FEAC17C24BF00F8012B00F8012B14
:1006700048BF00F8012B70474FF0000200B5134649
:1006800094469646203922BFA0E80C50A0E80C50B2
:10069000B1F12001BFF4F7AF090728BFA0E80C5063
:1006A00048BF0CC05DF804EB890028BF40F8042B5C
:1006B00008BF704748BF20F8022B11F0804F18BFC9
:1006C00000F8012B704770477047704710B500F075
:1006D00043FB001D10BD00BFDDC100000048704796
:1006E000042D002010B5FFF7F9FF006810BD10B50C
:1006F0000446FFF7F3FF046010BD2DE9F0470D46F7
:1007000099469246044600F124080168880604D5FB
:10071000E06921F01001216000E00120A84201DD24
:10072000471B00E00027A1697A1902EB0900081AAB
:10073000A0612078C00602D42046AFF300800026D6
:1007400008E0D4E901211AF806009047206A401C0D
:10075000761C20624E45F4DB2078C0060AD5204680
:10076000AFF3008006E0D4E9012130209047206AF1
:10077000401C2062381EA7F10107F4DC07E0D4E931
:10078000012118F805009047206A401C2062281EAD
:10079000A5F10105F3DC2046AFF3008020780006C8
:1007A00002D50220BDE8F0870120FBE770472DE964
:1007B000FF4F0C461E464FF0FF378BB0D2E90001C9
:1007C000DDF860800A908A46C1F30A5505B93D46B6
:1007D000002108464FF00000BAF1000F00F440007D
:1007E00005DA00EB80004FF4400101EA50004FEAC7
:1007F0009059B9F1010F00DDB9460A9850EA4A0054
:100800000ED044F61050A5F2FF3545432F14B8F131
:10081000000F1ED07542291E1EDDC9F100021CE02A
:10082000B8F1010F4FF0000001D0302103E0F24396
:1008300005E02154401CB042FBDB30460022002181
:1008400021540B99C1F80880C1E900200FB0BDE820
:10085000F08FBD1B6D1CDEE74A4600DA694206A830
:1008600000F07CFB06AB93E8070003AB83E80700CE
:1008700050460A9901F0F0F88DE80700A0F5005005
:100880001F3800900398002D09DD42F21F014A46EF
:10089000084403A90390684601F079FB08E0A0F53D
:1008A00000504A461F3803A90390684601F097FBA1
:1008B0008DE807000004000C03D04FF0FF30410822
:1008C00000E01046B8F1000F03D000220092154658
:1008D0001EE0751E05D400F043FA303262556D1EDD
:1008E000F9D5B3460122084302D000227F1C04E060
:1008F0002078302801D100227F1E002A099786D057
:100900001DE0112D07DA00F02BFA303262556D1C14
:1009100050EA0102F5D1084302D00098C8B10EE0B8
:100920000021681E05E0235C625C63542254401E73
:10093000491C8142F7DBAB46A81B401E09900020F2
:1009400004F80B000B98099AC0F80880C0E9002B46
:100950007CE711264FF0000859E72DE9F04F884653
:100960000446D21D22F0070191B0D1E90001CDE982
:100970000A0108F068F902460B98C00F01D02D203B
:1009800007E02068810701D52B2002E0202101EA41
:10099000C000032A099001D0072A05DB034641461F
:1009A000204600F02BFA0BE12078800601D5E069A3
:1009B00000E00620B8F1650F814606D0B8F1660F59
:1009C00018D0B8F1670F70D131E00020B9F1110FE4
:1009D000009001DB112301E009F101030AAA01A93A
:1009E0000CA8FFF7E4FEDDE90C70002609F1010513
:1009F000834647E001204B4600904FF000470AAA8B
:100A000001A90CA8FFF7D3FEDDE90DB00C995D46F6
:100A1000002610B909F101000D18B9EB050003D447
:100A2000C0F1FF3609F10105A5EB09002BE0B9F192
:100A3000010F01DA4FF001090020B9F1110F009008
:100A4000484601DD112300E003460AAA01A90CA8CB
:100A5000FFF7ADFEDDE90C704D4600268346207899
:100A600000070AD4AB4500DA5D4601A8012D04DD7C
:100A7000411911F8011C302907D04F4502DA17F14E
:100A8000040F04DA012082460FE06D1EEEE7002F0E
:100A900002DCED1B3E4403E0781CA84200DD7D1C17
:100AA000B81B00F1010A4FF000472078000703D47B
:100AB000AA4501DB4FF0FF3A0021B7F1004F0DF1DD
:100AC00043088DF8431024D002202B23002F01DA95
:100AD0007F422D230A21021EA0F1010000DC5FB13C
:100AE00097FBF1FC97FBF1F201FB1C7C17460CF124
:100AF000300C08F801CDEEE7A8F101000370218861
:100B0000090501D5452100E06521A0F1010800F8A3
:100B1000011C09980FA9A1EB0807FF1D00B10120D6
:100B2000411901EBEA70A1693844081A401EA0611E
:100B30002078C00602D42046AFF30080099828B17F
:100B4000D4E901219047206A401C20622078C00629
:100B500022D52046AFF300801EE0002E04DBB34513
:100B600002DD01A8805D00E03020D4E9012190473A
:100B7000206A401C2062761CAAF101005FEA000A8C
:100B80000AD100F0E9F8C0680168405CD4E90121AD
:100B90009047206A401C2062281EA5F10105DCDC7C
:100BA00007E0D4E9012118F8010B9047206A401CA6
:100BB0002062381EA7F10107F3DC2046AFF3008066
:100BC000032011B043E6000001694A1C0261087865
:100BD000704700B58FB0CDE901310021059105497D
:100BE0007944CDE9031011466846FFF7CDFB0FB0FD
:100BF00000BD0000E5FFFFFF0A6802F8010B0A6074
:100C00007047D1E900239A4202D2531C0B60107046
:100C1000704710B5436913B1AFF3008001E0FFF7EF
:100C20004DFB012010BD127800F124010A70002252
:100C30004A700122EDE711684FF0FF32E9E700004A
:100C40000FB4002300B589B00CA900910B99CB60BB
:100C5000204B7B440693204B7B44079304236FF087
:100C60000042CDE901321D4A7A446B4608920246A1
:100C700000200DF06CF809B05DF814FB70B5064665
:100C80004FF0FF3015460C46324686B00091CDE954
:100C9000010169460020049004A8FFF7D1FF034634
:100CA0000498211825B108B10A4600E022462A60BE
:100CB00000280DD0002B02DD0098884208D0324673
:100CC000081B69460094CDE9010404A8FFF7B8FFAA
:100CD00006B070BD270200003F0200007F01000047
:100CE0002DE9F04791460F4680460446002614F849
:100CF000015B2DB1FFF7EAFC0068405DC007F6D14B
:100D00002B2D02D02D2D18D0641E4A463946204680
:100D100000F0D4F827B13968A14201D1C7F80080AA
:100D20004FF0020471050BD54042002803DDFFF7A8
:100D3000D5FC0460A007BDE8F08746F48066E4E7D0
:100D40000028F8DAFFF7CAFC04606FF00040F2E711
:100D500000487047042D002000487047242D0020D3
:100D600030B5B0F10A024FEA900E71F100034EEA7D
:100D7000817EB0EB0E0061EB91014FEA101E4EEA4E
:100D8000017E10EB0E0041EB11114FEA102E4EEADE
:100D9000016E10EB0E0041EB11214FEA104E4EEAAE
:100DA000014E10EB0E0041EB1141401841F10001E2
:100DB0004FEAD00040EA41704FEAD10110EB8005C4
:100DC0004FEA810444EA907444EB01046D1944EB4A
:100DD0000404521BA3414FF0000348BF0A3200D560
:100DE00030BD401C41F1000130BD10B50446FFF795
:100DF0006DFC0068005D00F0010010BD2DE9F041C0
:100E00001F46044603260168072A01F4006004DB3C
:100E100008B116A505E016A503E008B115A500E088
:100E200015A521F010002060A069C01EA0610FB1BF
:100E3000401EA0612046AFF300804FB1D4E90121EC
:100E400038469047206A401C2062C01C206206E0A1
:100E5000206AFAE7D4E9012115F8010B9047761EC4
:100E6000F8D22046AFF30080BDE8F0814E414E003D
:100E70006E616E00494E4600696E6600426842B17E
:100E8000016811F8013B23B1521EC0E90012184657
:100E900070470121C160881E704742685AB1C3681B
:100EA000016843B983688B4205D0491E521CC0E9D2
:100EB0000012002070474FF0FF3070472DE9F05FBF
:100EC000824615468B4600270AF10104B946007890
:100ED000302801D09DB113E014F8010B01277828C8
:100EE00003D0582801D045B10AE00DB1102D07D12B
:100EF000002714F8010B102502E0082500E00A2560
:100F00000026B0460EE005FB080005FB06F10127B0
:100F10001FFA80F801EB1046B6F5803F00D3B946C2
:100F200014F8010B294600F0ACF80028EBDABBF10D
:100F3000000F05D00FB1641E00E05446CBF800400E
:100F4000B9F1000F06D0FFF7C9FB02210160C81EEE
:100F5000BDE8F09F48EA0640FAE700002DE9F047B7
:100F6000814616468AB0334878440DC88DE80D0096
:100F700030487844801C03AC0DC884E80D0041F66D
:100F80009B300844372190FBF1F290FBF1F5A5F17D
:100F9000800501FB12041B3C02D56442012000E0E5
:100FA0000020DFF890A080460027FA44AAF1BE0A8C
:100FB0000DE0E00709D03246684607EB47010AEB2F
:100FC000810101F00CF88DE8070064107F1C002CF3
:100FD000EFD1184F7F44AC3F18E0E80714D007EB7F
:100FE00004100DF1180A90E80E008AE80E00C0689F
:100FF000F04201D198190890324606A903A800F0E2
:10100000EEFF03AB83E807006D10641C002DE4D1F4
:1010100032466946B8F1000F03A802D000F0B7FFCE
:1010200001E000F0DCFFC9E90001C9F808200AB0BE
:10103000BDE8F087D8CE00007546FFF789FEAE46C2
:1010400005006946534620F00700854618B020B5D4
:10105000FFF7E4F8BDE820404FF000064FF000072E
:101060004FF000084FF0000B21F00701AC46ACE850
:10107000C009ACE8C009ACE8C009ACE8C0098D46BD
:1010800070473A2800D2303820F02002412A01D39C
:10109000A2F13700884201D34FF0FF3070470000C3
:1010A0002DE9FF4F064689B00878FF2806D0491C75
:1010B0002D2805D000244FF0000908E000200CE0A6
:1010C0000124F8E709EB8903491C00EB4309087880
:1010D000FF28F7D114B1C9F100008146107800252E
:1010E0002C46AA4629462D2801D02B2804D1521C73
:1010F0002D2813D0002082468B461078FF280FD071
:101100004FF0000C0A21521CA5FB017804FB018161
:1011100005FB0C11C5194BEB0104EEE70120EAE7D2
:10112000002108464FF00000BAF1000F02D000EB9A
:1011300080004008C0F38158B8F1010F01DD4FF085
:10114000FF380C9809EB000755EA040009D04FF06E
:10115000020917F5FA7F0BDA4FEACA70C6E900B048
:1011600012E04FEACA70C6E900B00DB0BDE8F08FDA
:10117000B7F5FA7F0DDDF0487844D0E90010C6E9F4
:10118000001040EACA707060FFF7A8FAC0F800903B
:10119000EBE7391E02DAC8F1000200E0424600DA4D
:1011A000794206A8FFF7DAFE06AB93E8070003AB27
:1011B00083E8070044F23E005BEA040100905846D1
:1011C00004D144F21E012C465D460091210C090415
:1011D000014306D10099240444EA15442D04103932
:1011E000009104F07F41014306D10099240244EAB2
:1011F00015642D020839009104F07041014306D1B5
:101200000099240144EA15742D01091F009104F08E
:101210004041014306D10099A40044EA9574AD0011
:10122000891E009104F00041084304D100986D1913
:101230006441401E009042466846002FCDE90145BA
:1012400003A902DD00F0DFFE01E000F0B4FEBAF118
:10125000000F04460D4601D084F0004440F2FF77B1
:1012600024F00040284303D0C4F30A50B84212D1FE
:10127000FFF734FAC0F80090C4F30A50B8420AD11C
:10128000AE487844D0E90010C6E9001004F00041EF
:101290000843706069E7C6E9005466E72DE9FF4F2F
:1012A0001F464FF0000A4FF0FF38454691B0D7E98E
:1012B0000146CDF83CA0FFF74FFDC0680168405CD7
:1012C0001090B96912986D1C8847396A8146884721
:1012D0000028F6D1B9F1FF3F0AD0002E24F4D064E3
:1012E00011DDB9F12B0F08D0B9F12D0F0BD102E0B0
:1012F000404615B03AE744F48064B96912986D1C11
:101300008847761E8146600504A901D52D2000E09E
:101310002B20002E01F1010B0DF130088DF810008B
:101320003FDDB9F1690F08D0B9F1490F05D0B9F126
:101330006E0F02D0B9F14E0F1CD13B4601A80095AB
:1013400080E85002DDE912126FF002000CF003FD9C
:10135000C11CCED10EE0B96912986D1C8847814638
:101360001398761E44F4007405600F98401C002EFC
:101370000F9016DDB9F1300FEDD0B9F1780F02D032
:10138000B9F1580F0DD10F9801280AD13B46CDE98C
:101390000054DDE91212001F02960CF0DAFCC11CA9
:1013A000A7D1109989453ED144F0800406E01399F5
:1013B000681CAAF1010A44F400740860B9696D1C44
:1013C0001298761E884730288146F0D02BE010997D
:1013D000894505D1200603D4761E44F0800418E028
:1013E000484607F0BEFC08B3761E0DF123018B457D
:1013F00044F4007408D2A9F130000BF8010B200668
:1014000007D5AAF1010003E0200602D40AF1010089
:101410008246A00502D51399681C0860B969129824
:101420006D1C88478146002ED1DC53E0002E51DD33
:10143000B9F1650F02D0B9F1450F4BD1A00549D5DF
:10144000B9696D1C1298761E24F440748847002EEA
:1014500081460CDD2B2804D0B9F12D0F07D144F4BF
:101460008074B96912986D1C8847761E8146E00524
:1014700001D52D2100E02B2108F8011BCDF80080BB
:1014800021E0761E0DF13901884544F400740CD238
:10149000A9F1300010F0FF0088F8000002D1009997
:1014A000884509D908F1010806E0E00501D524487E
:1014B00001E042F20F708246B96912986D1C8847AC
:1014C000814613980560002E04DD484607F049FC6C
:1014D0000028D6D1F96912988847FF2053468BF827
:1014E000000088F8000000200A900B9004AA0CA9C4
:1014F0000AA8FFF7D5FDA00502D46FF00100F8E6B9
:1015000014F0240F0AD0E00714D13868DDE90A127C
:10151000031D3B600068C0E900120BE00AA96846A1
:1015200007F0C8FBE00705D13868009A011D396053
:10153000006802602846DCE600CD0000F6CB000023
:10154000F1D8FFFF10B50446AFF300802046BDE898
:101550001040FEF74FBE00004FF0013C50F8042B46
:1015600051F8043B9A4221D1A2EB0C03934313EAB6
:10157000CC1317D150F8042B51F8043B9A4215D1E3
:10158000A2EB0C03934313EACC130BD150F8042BBA
:1015900051F8043B9A4209D1A2EB0C03934313EA9E
:1015A000CC13DBD04FF00000704700BFD01A01BA57
:1015B000B1FA81F101F0180122FA01F0CB40C1F13A
:1015C0002001DBB2C0B2C01A2CFA01F3D11A914348
:1015D00011EAC311E6D170472DE9FF4F1F464FF0C6
:1015E0003C0987B04FF00042DDE9141001F1010819
:1015F000DDF858A002EA4050039000200490834692
:10160000054604460590B969461E08988847AAF120
:10161000010A0290BAF1000F37DD02982E2815D08A
:101620001021FFF72EFD00282ADB4FF0010B049953
:10163000014316D0B9F1000F0BDB4A46C11700F089
:10164000F7F905430C43A9F1040905E001200590D1
:1016500007E008B145F0010501200490059800B9A4
:10166000361DB969089808F101088847BBF1000FD9
:10167000AAF1010A0290CDD00999C1F80080C9E70A
:101680000298702808D0502806D0F9690898884731
:10169000BBF1000F14D04FE0002002900120BBF1FD
:1016A000000F049009D0B969089808F1010888472B
:1016B000AAF10109B9F1000F07DCF9690898884718
:1016C0006FF001000BB0BDE8F08F2B2804D02D285F
:1016D0000CD14FF0FF300490B969089808F1010867
:1016E0008847A9F10109B9F1000FE6DD411CE4D0FA
:1016F0000A21FFF7C6FC0028DFDB029908F1010888
:1017000001EB810100EB41000290B969089888471C
:101710000A21FFF7B6FC099AA9F10109B9F1000FF6
:10172000C2F8008001DD0028E7DAF96908988847E7
:101730000499029800FB016655EA040004D004F005
:101740004041090002D006E0039898E0A40044EA72
:101750009574AD00B61E04F00041080002D16D1969
:101760006441761E159810F0240F03D04FF00B093A
:101770005C4803E04FF028096FF07D008246564533
:1017800007DAAAEB06018944B9F1410F01DD4FF0F8
:10179000410901200021A9F1010200F049F90246A6
:1017A00028400B462140084301D0012100E00021E0
:1017B000501E029143F1FF3128402140084301D0DF
:1017C000012000E000200299834651EA0B014FD02E
:1017D000002108464FF00000039900F4400039B1A1
:1017E00000EB80004FF4400100EBD07001EA600094
:1017F0008015012802DD4FF0FF3000E013D0401CBF
:1018000036D0029860B3BBF1000F0CD14A460120DC
:10181000002100F00DF928402140084301D00120AB
:1018200000E00020E0B101204A46002100F000F96C
:10183000034640190A4661412D1A8C4111D3B9F172
:10184000400F09DD159810F0240F02D0AAF13406DC
:1018500003E0AAF1170600E0761C00254FF00044D3
:1018600006E05B1E42F1FF3220EA030521EA020492
:10187000CAF10100B04206DA1B49039808430190FF
:10188000002000900EE0039AC4F3D321E80A0A4333
:10189000164940EA44500A433146CDE90002684601
:1018A00007F054FA159810F0240F0BD01598C007C4
:1018B00015D13868DDE90012031D3B600068C0E9FE
:1018C00000120CE002A8694607F0F4F91598C00769
:1018D00005D13868029A011D3960006802604046EF
:1018E000F0E6000002FCFFFF0000F07F0000F03F88
:1018F0002DE9FF4F92461D4685B04FF00041DDE9CE
:10190000124BDDE914727F1E01EA4B50414940F051
:10191000FF4940EA0108002122F0200049280491F3
:1019200002D04E2828D04CE03BA0012607C88DE805
:101930000700A9690698641C88477F1E014606D4E3
:101940001DF8060018B121F0200181420BD0E96991
:1019500006988847032E34D0082E32D06FF001004D
:1019600009B0BDE8F08F761C032E01D0082EE0D11F
:10197000601CCAF80000DCE7A9690698641C884767
:101980007F1E2AD420F02000412826D1A96906987C
:10199000641C88477F1E20D420F020004E281CD1D4
:1019A000A9690698641C88477F1E48F4002849F4FA
:1019B0008009CAF8004001D4282806D0E9690698B1
:1019C00088475FEACB7012D022E0A9690698641CB0
:1019D00088477F1E01D4002803DAE9690698884702
:1019E000BCE72928F1D1641CCAF80040E9E71BF0E4
:1019F000240F07D028680499031D2B600068C0E9F4
:101A0000001805E02868021D2A600068C0F80090F0
:101A10002046A5E70000F07F494E46494E495459FB
:101A20000000000001491820ABBEFEE726000200BE
:101A3000B2F120030AD5C2F1200301FA02F120FA23
:101A400003F300FA02F041EA0301704700FA03F1E0
:101A50004FF00000704770475FEA400C08BF91F0FC
:101A6000000F4FEA8C234FEAC12243EA51514FEA5B
:101A70001C5018BF00F5F0404FEA300018BF41F08D
:101A800000415FEA6C5C00F02980BCF1FF3F08BFB9
:101A900040F080407047130C06BF12044FF0100C4A
:101AA0004FF0000C130E04BF12020CF1080C130FC0
:101AB00004BF12010CF1040C930F04BF92000CF14F
:101AC000020CD30F04BF52000CF1010C11464FF071
:101AD0000002A0F11F00A0EB0C00704711F0004FB6
:101AE00008BF704731F000413FF4D5AF0B0C06BF83
:101AF00009044FF0100C4FF0000C0B0E04BF09024C
:101B00000CF1080C0B0F04BF09010CF1040C8B0F36
:101B100004BF89000CF1020CCB0F04BF49000CF18B
:101B2000010CCCF12003A0EB0C0022FA03F302FA23
:101B30000CF241EA030100F10100704720F07F4CF4
:101B400080EA030023F07F47ACEB070303F57C53E7
:101B500000F0004003F1FF032DE980494FEA154BE7
:101B600009B44FEA144325EA0B4E24EA03480FF266
:101B7000042606EB132749083E785FEA320203FB8E
:101B80000667C7F5000707FB06F64FEA54374FEA2A
:101B9000D64606F1020607FB066CCCF1005C4FEA64
:101BA0001C472CEA074C07FB06F40CFB06F504EB7C
:101BB00015464FEA961634BF00204FF000404FEA1A
:101BC000D13706FB07FC4FEA1C4C0CFB0BF7D21B72
:101BD00003FB0CF761EB07010CFB0EF7B0EB0740C2
:101BE00072EB17420CFB08F734BFA2EB0742B2EBD3
:101BF000074261EB17414FEA0C444FEA910706FB9D
:101C000007FC4FEA1C4C0CFB0BF7B0EBC74072EB28
:101C1000573203FB0CF734BFA2EBC742B2EBC7420B
:101C200061EB57310CFB0EF7B0EBC70072EB57724C
:101C30000CFB08F734BFA2EBC702B2EBC70261EBA3
:101C40005771039F4FEA816141EA921104EBCC0482
:101C50004FEAD1374FEA826206FB07FC42EA901254
:101C60004FEA80604FEA1C4C0CFB0BF7D21B03FBC6
:101C70000CF761EB07010CFB0EF7B0EB074072EBC2
:101C800017420CFB08F734BFA2EB0742B2EB074246
:101C900061EB17414FEA8C554FEA910704EB9C2406
:101CA00006FB07FC4FEA1C4C0CFB0BF7B0EBC740E4
:101CB00072EB573203FB0CF734BFA2EBC742B2EB17
:101CC000C74261EB57310CFB0EF7B0EBC70072EB6C
:101CD00057720CFB08F734BFA2EBC702B2EBC70286
:101CE00061EB577115EB4C254FEA816141EA921186
:101CF0004FEA82624FEAD13742EA901206FB07FCB4
:101D000044F100044FEA80604FEA1C4C0CFB0BF7D7
:101D1000D21B03FB0CF761EB07010CFB0EF7B0EBDA
:101D2000074072EB17420CFB08F734BFA2EB0742E7
:101D3000B2EB074261EB174115EB1C154FEA8131FD
:101D400041EA92414FEA823242EA90424FEA8030C1
:101D50004FEA0C7644F1000448EA03434EEA0B488C
:101D60004FF0000EB2EB080C71EB030724BF624684
:101D700039464EEB0E0E4FF0000B00185241494110
:101D80004BEB0B0BB2EB080C71EB03077BF1000B79
:101D900024BF624639464EEB0E0E4FF0000B001882
:101DA000524149414BEB0B0BB2EB080C71EB0307B3
:101DB0007BF1000B24BF624639464EEB0E0E51EA12
:101DC000020718BF46F0010616EB0E7655F1000229
:101DD00054F1000103D5BDE88901BDE80088BDE8E4
:101DE0008901BDE80048B619524141EB0101A3F158
:101DF0000103704780807F7E7D7C7B7A797877765F
:101E000076757473727171706F6E6E6D6C6C6B6AD7
:101E10006A69686867666665646463636261616075
:101E2000605F5F5E5E5D5D5C5C5B5B5A5A595958F2
:101E3000585757565655555554545353525252515C
:101E4000515050504F4F4F4E4E4D4D4D4C4C4C4BB2
:101E50004B4B4A4A4A4949494848484747474746F9
:101E60004646454545444444444343434342424235
:101E70004241414146EA0646A3F570534FEA1646F1
:101E800046EA42564FEAD22242EA415210B54FEAA0
:101E9000D121A3F1010300F017F820F0004000F178
:101EA000010C00F0004701EB00501146BCF5006F3B
:101EB00040EA070000D210BD02484FF0000140EA9E
:101EC000070010BD0000F07F002B26D4770021D042
:101ED0001CB54FEA370703B44FF010004FF0100164
:101EE0004FF000000FBCBDE810400BF1010BBBF13F
:101EF000010F08BF5FEA170722BF12F1010211F1BB
:101F000001014FF0004143F1000300F0004043EABB
:101F100000007047F9D35708DAE746EA064613F19E
:101F2000400F4FEA16461FDD13F1200FDFBF1643A7
:101F30000A46002120335B42C8D0C3F1200746EA9D
:101F4000064602FA07F74FEA164646EA0706C3F1C5
:101F5000200722FA03F201FA07F721FA03F14FF002
:101F6000000342EA0702B1E746EA020646EA0646ED
:101F70004FEA164646EA0106BCBF46EA0646360C5C
:101F80004FF000034FF000024FF000019EE72DE9F3
:101F9000C048934630B491E8380007C831EA400C95
:101FA00048BF34EA430C03D5FFF7C8FDFFF78CFFA9
:101FB000F0BCBDE800882DE9C048934630B491E8F4
:101FC000380007C831EA400C48BF34EA430C03D557
:101FD000FFF7B4FDFFF74EFFF0BCBDE800882DE928
:101FE000C048934630B491E8380007C810F0804FDD
:101FF00008BF13F0804F03D100F019F8FFF764FF1A
:10200000F0BCBDE800882DE9C048934630B491E8A3
:10201000380007C810F0804F08BF13F0804F03D17D
:1020200000F005F8FFF726FFF0BCBDE8008820F0BF
:102030007F4780EA030023F07F4C07EB0C03A3F5F6
:102040007C5300F00040A3F1FE0392F0000F00F07B
:10205000B38095F0000F00F077802DE901494FEA39
:1020600011404FEA144621EA004800FB06FC24EA2E
:10207000064708FB06F607FB08F800FB07F718EB16
:1020800006484CEB164C4FEA124B18EB07484FEA48
:1020900015464CEB174022EA0B4E0BFB06FC25EADB
:1020A00006470EFB06F607FB0EFE0BFB07F71EEBC3
:1020B000064E4CEB164C4FF000061EEB074E4CEB59
:1020C000174B18EB0B0840F1000018EB0E0B58EB08
:1020D000000840F100008F1A4FF000013CBFC943D7
:1020E000661B14BFB5EB040C00213CBFC943F61BB3
:1020F0004FEA17444EEA8E0E27EA04454FEA1C4782
:1021000004FB07622CEA074C05FB07F70CFB05F6FE
:1021100004FB0CFC16EB074642EB174216EB0C4691
:1021200042EB1C421BEB060658EB0202414146EA19
:102130009E0601D5BDE80189B619524141EB010166
:10214000A3F10103BDE801894FEA14454FEA1147A5
:1021500024EA054621EA074C05FB07F406FB07F7CE
:102160000CFB06F105FB0CFC11EB074144EB17449B
:102170004FEA124711EB0C4144EB1C4422EA074C96
:1021800005FB07F206FB07F70CFB06F605FB0CFC4C
:1021900016EB074642EB174216EB0C4642EB1C458A
:1021A0006A1854F1000148BF7047B619524141EB1B
:1021B0000101A3F10103704795F0000F37D04FEAFA
:1021C00011424FEA144721EA024624EA074C02FB77
:1021D00007F106FB07F70CFB06F402FB0CFC14EB03
:1021E000074441EB17414FEA154714EB0C4441EB10
:1021F0001C4125EA074C02FB07F506FB07F70CFB21
:1022000006F602FB0CFC16EB074645EB174516EBF2
:102210000C4645EB1C42121951F1000148BF7047B2
:10222000B619524141EB0101A3F1010370474FEA96
:1022300014454FEA114724EA054621EA074C05FBFD
:1022400007F106FB07F70CFB06F24FF0000605FB53
:102250000CFC12EB074241EB174112EB0C4251EB25
:102260001C4148BF7047921841EB0101A3F10103E3
:102270007047000010B5044800F086FEBDE810402D
:10228000024800F081BE00001C1300204C13002007
:1022900070B5044600688168C943C90716D18168D2
:1022A00021F00101816001F09FFE054609E001F087
:1022B0009BFE401B022804D920688068C043C007E9
:1022C00006D020688068C043C007F0D0002070BDF1
:1022D000A06A40F01000A062E06A40F00100E062F5
:1022E000012070BDF8B5002604460096006881689C
:1022F000C943C9072CD0816841F0010181601548AC
:1023000015490068B0FBF1F000E0401E0090002885
:10231000FBD101F069FE054615E001F065FE401BAA
:10232000022810D920688068C043C0070BD0A06A7B
:1023300040F01000A062E06A40F00100E06284F822
:1023400024600120F8BD20688068C043C007E4D144
:102350000020F8BDCC00002040420F0070B50C46B4
:102360000546896910460BF0F5FB024621462846D2
:10237000BDE8704004F0E8BB10B50446084600F024
:102380005FF8A06110BD000010B50446064807497B
:102390000068498848430BF0FBF905490BF058FAEF
:1023A00020600020A06110BDE8010020F80100209D
:1023B0000000B43C10B504460F4810490068498835
:1023C00048430BF0E5F90E490BF042FA21680BF097
:1023D000C1FB00F035F80146A06900F017F801468E
:1023E0000848814202DC0848814200D90146201D8C
:1023F00004F0D8F9E06210BDE8010020F8010020E7
:102400000000B43C00007042000070C210B50BF038
:10241000A1FB084A0849904203DDBDE810400BF0DB
:1024200099BB064A904203D9BDE810400BF00AB8A8
:1024300010BD0000000034430000B443000034C36A
:1024400070B5074C074D02E021460AF0FBFFA84299
:10245000FAD201E00BF07EFB21468842FADA70BD29
:102460000000B44300008080FEE7000000B58BB0A0
:1024700000210122CDE905120B4807910088400197
:10248000009001904FF6E0700290CDE903010E201C
:10249000CDE908206946054801F04CF8002801D034
:1024A00000F084F90BB000BD30120020C8130020EA
:1024B000124810B50188B1F5006F02D34FF40071D6
:1024C00001800F4A002182F8241002880C48243829
:1024D0004260C1600822C0E90412017603F0DEFD0B
:1024E000FFF7C4FF0648283001F025FB044802210D
:1024F000BDE81040283000F0ADBF000030120020D1
:10250000A013002010B5034600F11C02011D034872
:1025100000F0B2FF002800D0012010BDC813002039
:10252000002070470020704710B50022044905487C
:1025300005F020F90449034805F016F9002010BD04
:10254000E81D0020E4140020E819002070B50C46B6
:10255000054640210B48FEF76DF8294609482268D8
:10256000FDF7F1FF08492078087040212846FEF762
:1025700061F82946054805F0F7F8044805F0D8F851
:10258000002070BDA8190020AE000020E414002037
:102590000A46094910B5D1F8B812D1F8141209B198
:1025A000012010BD0146044805F0E4F8BDE81040E4
:1025B000014805F03DB90000E414002070B5094C55
:1025C0000546A0680BF0E4F86FF00D010BF099FBE5
:1025D0000021A16029460AF0A9FFBDE87040024928
:1025E0000BF036B9F801002000007042704700007F
:1025F0002DE9F05F044633480027334980F82C70FA
:1026000080F82D70C76131484FF0010881F80080D3
:1026100007702F48408805460BF0D2F82D498946AF
:102620000BF016F9C4E900072B48066805FB06F015
:102630000BF0AEF849460BF00BF9A060834684F826
:102640000C8030460BF0A4F880462448008882466F
:102650000BF0B6F849460BF0FBF841460BF0F8F8E2
:102660002061A5EB0A0070430BF092F849460BF08D
:10267000EFF805461A48007801281FD119481A4971
:1026800085420BD3584688460AF0DCFEA0604146DE
:1026900028460AF0D7FE6660A06110E01348854224
:1026A0000CDD584688460BF055FAA0604146284696
:1026B0000BF050FAA0617042606000E0A5616761B4
:1026C000BDE8F09FD8280020291200202312002006
:1026D000F80100200000B43CE80100203212002084
:1026E00027120020000034C30000B443000034432C
:1026F00070B50446154840880BF062F814490BF099
:10270000A7F8054621680BF025FA0146114A6068D2
:10271000914201DD401E03E00F4A914201D9401C65
:1027200060600E48256000680BF032F8064660686D
:102730000BF02EF80A490BF08BF829460AF082FEBE
:1027400031460BF085F8A06070BD0000F801002054
:102750000000B43C00003443000034C3E801002012
:102760000000B443401A00B2B0F5005F02DDA0F5EE
:10277000804004E010F5005F02DA00F5804000B20E
:1027800002490988484300B270470000E801002070
:10279000054A00B591885088FFF7E4FF9168084426
:1027A00090605088908000BDF801002072B6FEE76E
:1027B00006490020C8610648016941F00401016131
:1027C000016941F04001016170470000E0260020EE
:1027D00000200240064A0021D16106490A6942F000
:1027E00002020A614861086940F0400008617047D0
:1027F000E026002000200240044B0022DA61044A57
:10280000136943F00103136101807047E026002043
:102810000020024014490020CA68D306134A04D598
:10282000D06940F00200D0611020CB685B0705D56D
:10283000D36943F00103D36140F00400CB69DB07A7
:1028400007D0D36943F00403D361CA6922F00102BF
:10285000CA61A0F58072013A01D0C8607047C869AA
:1028600020F00100C861704700200240E0260020EF
:1028700070B5044601F0B8FB0546114E09E0601C36
:1028800007D024B101F0B0FB401BA04201D90320C6
:1028900070BDF068C007F2D1F068800601D5202035
:1028A000F060F068C00605D4F069C00702D1F06896
:1028B000400703D5FFF7AEFF012070BD002070BDBB
:1028C0000020024010B5C82007F0A0FC0E490B28DC
:1028D00017D04FF0FF3008604FF07C5200210B48BA
:1028E00008F09AFC0021094807F04EFD642001F031
:1028F00055F906494FF48070C860BDE8104007F0F4
:1029000033BE0120E7E70000E8010020C82A0020CC
:1029100010B5002303E010C841F823405B1C93422C
:10292000F9D310BD10B5002304E030F8044B21F8B2
:1029300013405B1C9342F8D310BD0000F0B585B086
:102940000E46054601F0DCF91448C16921F0010189
:10295000C16100210120CDE90010114A0292CDE9A8
:10296000030104A9684601F02BF94FF0FF3740B985
:102970000024002356F824202946022001F07EF985
:1029800010B1384605B0F0BD641CA4B22D1D152C45
:10299000EFD301F069F90020F4E7000000200240C5
:1029A00000FC00082DE9F04186B016460F460546AA
:1029B00001F0A6F91548C16921F00101C1610021AA
:1029C0000120CDE90010124A0292CDE9030104A9C9
:1029D000684601F0F5F84FF0FF3848B900240EE0E2
:1029E00037F8142000232946022001F047F918B1D6
:1029F000404606B0BDE8F081641CA4B22D1DB4426F
:102A0000EED301F031F90020F3E70000002002408E
:102A100000F800080146C8220148FFF783BF000004
:102A200000F80008F8B500260446009690F8240047
:102A300001280BD0012084F824002046FFF728FC51
:102A40002046FFF74FFC070002D050E00220F8BDFF
:102A5000A06A20F4885040F00200A062022002F038
:102A60006DF825490968B1FBF0F0400000E0401E18
:102A700000900028FBD12068816841F00801816046
:102A800001F0B2FA054608E001F0AEFA401B0A2850
:102A900003D920688068000715D420688068000783
:102AA000F2D42068816841F00401816001F09CFA51
:102AB000054612E001F098FA401B0A280DD920685B
:102AC0008068400709D5A06A20F0020040F010009D
:102AD000A06284F824600120F8BD20688068400767
:102AE000E8D4A06A20F0020040F00100A06284F85F
:102AF00024603846F8BD0000CC000020F8B5002264
:102B0000009290F8245083681446012D1CD00125B2
:102B100080F82450D3B14D680B691F269D4226D8FA
:102B20001F055B1BC3F103030D6803EB83039D408B
:102B3000A7F580172F439E40036846F440169D6B0F
:102B4000B5432F439F631EE00220F8BD4B68012B65
:102B500005D0826A42F020028262012213E00368FB
:102B60009D6B0E686FF3150545EAC6350AE05B1BE1
:102B7000C3F1030303EB83039E40036846F440164E
:102B80009D6BB5439D6303689D68ED43ED0706D0DB
:102B90009D6847F20106B5438E6935439D604B7DC4
:102BA000012B08D18B69B3F5E04F08D0826A42F05F
:102BB0002002826201220B7D012B06D00CE003680B
:102BC0005D6845F480655D60F5E74B7DA3B1826A81
:102BD00042F02002826201220B68072605680A2B58
:102BE00010D3EF680A3B03EB43039E40B7438E6864
:102BF0009E403743EF600EE003685D6845F4805502
:102C00005D60E9E72F6903EB43039E40B7438E689D
:102C10009E4037432F610B68102B01D0112B04D13C
:102C200003689D6845F400059D604B68012B10D03A
:102C3000022B16D0032B03681BD01D6ACE686FF3DE
:102C40000B0535431D620B68102B19D0112B17D0C3
:102C500037E003685D69CE686FF30B0535435D614E
:102C6000F1E703689D69CE686FF30B0535439D61FD
:102C7000E9E7DD69CE686FF30B053543DD61E2E717
:102C8000124D0368AB4217D19D682D0219D49D687F
:102C900045F400059D600968102912D10C490D4BBF
:102CA0000968B1FBF3F101EB8101490000E0491E25
:102CB00000910029FBD104E0816A41F0200181628A
:102CC000012280F824401046F8BD00000024014095
:102CD000CC00002040420F0070B52A4988424FD1F5
:102CE0002948007828B103F099FD0AF031FD274901
:102CF00008802748274C407808B1207830B12078E8
:102D000001283DD1BDE8704006F032B8A079224DCF
:102D1000401CC0B2A07105280BD3FFF739FD1F4836
:102D2000FFF74CFC1E4A296907F0C8FE2861002005
:102D3000A0711C4807F064FB04F024FA28690AF02B
:102D400055FB194A194B0AF027F90AF061F841B20C
:102D50001448027802F0030201EB0221B0F90820C6
:102D6000C06810440844C11700EB91516FF309018A
:102D7000401A81B2A182BDE870400A4807F030BA1B
:102D800070BD00001C130020E4010020FA010020A7
:102D9000E02C00200000002094280020B3EF0A3A25
:102DA000CDCCCC3DC82A0020FA7E6ABC7493783F13
:102DB0000068022909D0032905D0042901D0C06B7D
:102DC0007047806C7047406C7047006C7047000023
:102DD00070B5044690F8240001280DD0012084F835
:102DE00024002046FFF77EFA01004FF0000205D0D4
:102DF00084F82420084670BD022070BDA06A42F20B
:102E00000103984340F48050A0621C4B20681C4D85
:102E100098421FD12E6816F4702F1BD0A66A46F474
:102E20008016A662A66AF60500D4E26284F8242021
:102E30006FF0040202602068426842F08002426043
:102E4000206842685205D5D48268C2F30232072A4C
:102E500004D009E0A66A26F48016E2E7984208D179
:102E60002A6812F4702F04D0826842F40042826013
:102E7000C0E7826842F40212F9E70000002801402E
:102E800004240140F8B50023009390F824201C4648
:102E9000012A12D0012280F824204A681F26072A1E
:102EA0000DD205686F6B521E02EB82029640B7434B
:102EB0000E68964037436F6319E00220F8BD05683D
:102EC0000D2A0AD22F6BD21F02EB82029640B74323
:102ED0000E68964037432F6309E0EF6A0D3A02EB24
:102EE00082029640B7430E6896403743EF620A6805
:102EF000072605680A2A0AD3EF680A3A02EB42025B
:102F00009640B7438E6896403743EF6008E02F69DC
:102F100002EB42029640B7438E68964037432F61DA
:102F20000A68102A01D0112A20D1124D0268AA4243
:102F300017D195682D0219D4956845F40005956060
:102F40000968102912D10C490C4A0968B1FBF2F149
:102F500001EB8101490000E0491E00910029FBD1ED
:102F600004E0816A41F020018162012380F824405D
:102F70001846F8BD00240140CC00002040420F005C
:102F800070470068C06C704770B5044600680668FA
:102F90004568A90625D5B10723D5A16AC90603D47A
:102FA000A16A41F40071A1628168C1F3424107291D
:102FB00010D1217B71B9416821F020014160A06AE4
:102FC00020F48070A062A06AC00403D4A06A40F01C
:102FD0000100A0622046FFF7D3FF21686FF01200C6
:102FE000086028062ED570072CD5A06AC00603D429
:102FF000A06A40F40050A06220688168C1F30231E9
:10300000072909D04168490515D48168C1F34241B7
:10301000072910D1217B71B9416821F080014160FD
:10302000A06A20F48050A062A06AC00503D4A06A00
:1030300040F00100A0622046FFF74EFE21686FF0CD
:103040000C00086068060CD5F0070AD0A06A40F4AE
:103050008030A062204600F093F821686FF00100F4
:10306000086070BD2DE9F0414FF0000604003546C0
:103070007ED0A06A002728B9E76284F82470204631
:1030800000F080F82046FFF703F9A16A01F0100173
:10309000014304D0A06A40F01000A06268E0A16A79
:1030A00021F4885141F00201A1626268E169237B49
:1030B0000A4346EA43010A43A1684FF48076B142CD
:1030C00008D0012906D0002194F814C0BCF1010FEA
:1030D00002D00AE03146F7E7F3B1A36A43F02003D8
:1030E000A362E36A43F00103E3622368D3F804C0F8
:1030F0002CF4694C4CEA010CC3F804C021688B68BD
:10310000DFF870C003EA0C0313438B60A168B1427F
:103110000BD0012909D00CE0DFF85CC0A3690CEBEF
:1031200043330B4343F40061DFE7218A0D05A5F526
:1031300080152168CB6A23F470032B43CB6221688E
:1031400089680E4B1940914208D1E762A16A21F0CB
:10315000020141F00101A162BDE8F081A06A20F006
:10316000020040F01000A062E06A40F00100E0625E
:103170000120F1E7FDF7E1FF00E0FFFFFE0E1FFF7A
:103180007047000000B585B00021009101910291C7
:1031900003911F4B01681F480322994214D1816992
:1031A00041F400718161816901F4007104918169C8
:1031B00041F0080181618069009200F008000490EC
:1031C00069460192144817E0144B99421ED1816957
:1031D00041F480618161816901F4806104918169B8
:1031E00041F0040181618069694600F004000490A7
:1031F0000120CDE900020A4800F006FE0022114637
:10320000122000F091FF122000F080FF05B000BDF9
:103210000024014000100240000C01400028014041
:10322000000801402DE9F8434FF000080D46044620
:10323000CDF8008000F0D8FE074620688168C905F7
:1032400008D5A06A40F02000A06284F82480012004
:10325000BDE8F8834168C90503D4C06A10F4700F53
:1032600029D0022001F06AFC3A490968B1FBF0F666
:1032700020680169384A11424FEA62024FEAA213FC
:103280001ED1C1684FEA621C11EA0C0F18D1016906
:10329000114224D1C068184221D1142022E0681CB8
:1032A00009D025B100F0A0FEC01BA84203D92068B8
:1032B0000068800724D5206800688007EFD52CE0DF
:1032C0000169114202D1C168194206D0026923493D
:1032D0000A4206D1C068084203D1542002E02920E6
:1032E00000E0FC204643009815E0681C10D025B192
:1032F00000F07AFEC01BA8420AD90098B04207D25B
:10330000A06A40F00400A06284F8248003209FE7B4
:103310000098401C0090B042E7D321686FF0120083
:103320000860A06A40F40070A06220688068C0F362
:10333000424007280CD1207B50B9A06A20F480704D
:10334000A062A06AC00403D4A06A40F00100A06299
:1033500000207DE7CC0000202449922449922400DB
:1033600070B5044690F8240001280DD0012084F89F
:1033700024002046FEF7B6FF01004FF0000205D002
:1033800084F82420084670BD022070BDA06A40F277
:103390000123984340F48070A0621F4D20681F4BAA
:1033A000A84218D11E6816F4702F14D0A66A46F4ED
:1033B0008016A6621E68760505D5A66A26F4005614
:1033C00046F48056A662A66AF6040AD5E66A26F096
:1033D0000606E66206E0A66A26F48016A66246683D
:1033E000E9E7E26284F824206FF0020202602068BC
:1033F0008268C2F34242072A05D1A84208D11A685E
:1034000012F4702F04D0826842F480128260B9E70F
:10341000826842F4A002F9E7002801400424014038
:1034200010B5044690F82400012807D0012084F844
:1034300024002046FEF72CFF10B107E0022010BD4B
:10344000A16A21F4885141F00101A162002184F8B0
:10345000241010BD90F82020012A07D0022A05D0A0
:10346000416A41F48021416201207047006842694D
:103470000A43426100207047F0B590F8205004687C
:10348000A468012D05D0022D03D0416A41F48021AA
:103490004DE014F0406F01D1E50045D5C4F301645F
:1034A0000125A5401D608B684FF4C0759BB1CE68A7
:1034B00033434E6843EAC603066805EB0417F3512D
:1034C0004FF4C273076803EB04130E69FE50097DC5
:1034D000012905D009E00E88CB6843EA4653EBE7A3
:1034E0000168CE5846F48076CE501179D2F8053076
:1034F0004FF4C67641EA0321036806EB041699519E
:103500001178D2F801204FF4C47341EA0221026815
:1035100003EB0413D150006805EB0411425842F04C
:10352000010242500020F0BD416A41F400114162A5
:103530000120F0BD10B590F820300268012B07D0B3
:10354000022B05D0416A41F480214162012010BD67
:10355000D2F8000240F00100C2F80002087D00F03D
:103560001F0301209840D2F81C328343C2F81C325A
:10357000CB69B3B9D2F80C328343C2F80C328C89D0
:103580004B6864F31F434C6902EBC404C4F8403237
:103590000C890B6864F31F434C6902EBC404C4F844
:1035A0004432CB69012B16D1D2F80C320343C2F856
:1035B0000C320C884B6864F31F434C6902EBC40463
:1035C000C4F840320C89CB6864F31F434C6902EBAA
:1035D000C404C4F844328B69002BD2F804320ED0F4
:1035E0000343C2F804320B69002BD2F8143208D01E
:1035F0000343C2F81432096A012904D008E0834366
:10360000EFE78343F5E7D2F81C120143C2F81C121E
:10361000D2F8000220F00100C2F80002002010BD24
:10362000704770B590F82040012C05D0022C03D0D3
:10363000416A41F4802128E0046809B32469A407A1
:1036400020D04FF4D874056804EB01142D5915F0FF
:103650000405956005682D591AD0ED085560056878
:103660002C5904F00204D4604FF4DA74056804EBBA
:1036700001142E5906F00F06082E0CD308250DE074
:10368000E468DCE7416A41F400114162012070BD49
:103690006D0D1560E3E72D5905F00F0515610568FF
:1036A0002D59C5F30725956105682C59240C5461E3
:1036B0004FF4DC72046802EB0112A4581C70046819
:1036C000A458240A5C700468A458240C9C700468F4
:1036D000A258120EDA704FF4DE72046802EB011287
:1036E000A4581C710468A458240A5C710468A45886
:1036F000240C9C710468A258120EDA71006829B17A
:10370000016941F020010161002070BDC16841F0F4
:103710002001C160F8E72DE9F05F0546006800244C
:103720004669D0F804908768D0F80CB0D0F810A0A3
:10373000D0F81880F10748D0F90714D00121816032
:10374000B80703D5284600F022FA0CE0780702D526
:103750004FF4006407E0380702D54FF4805402E0CC
:10376000284600F013FAF80516D529684FF4807042
:103770008860B80503D5284600F00BFA0CE0780500
:1037800002D544F4005407E0380502D544F48044DF
:1037900002E0284600F0FCF9F80316D529684FF43A
:1037A00080308860B80303D5284600F0F4F90CE0B7
:1037B000780302D544F4004407E0380302D544F40A
:1037C000803402E0284600F0E5F9300707D55FEACB
:1037D000CB6004D52968102044F40074C8607007D9
:1037E0004FF0080707D55FEA0B7004D52868C7605B
:1037F000284600F07BF9B00706D52868C068800726
:1038000002D0284600F074F9700607D55FEACA6056
:1038100004D52968102044F480640861B00607D5F7
:103820005FEA0A7004D528680761284600F080F92D
:10383000F00606D528680069800702D0284600F007
:1038400078F9B00308D55FEAC96005D5296810206A
:103850004860284600F06EF9F00307D55FEA09706A
:1038600004D528684760284600F096F9300446D50C
:103870005FEA497040D5F00504D55FEAC87001D011
:1038800044F00104B00504D55FEA887001D544F026
:103890000204700504D55FEA487001D544F00404C1
:1038A000300529D518F0700F26D008F07000402898
:1038B00015D006DC102809D020280AD0302816D1CF
:1038C0000AE050280ED0602811D10EE044F0080420
:1038D0000DE044F010040AE044F0200407E044F056
:1038E000400404E044F0800401E044F4807428685B
:1038F000816921F070018161296804204860002CF1
:1039000005D0686A204368622846FFF789FEBDE853
:10391000F09F70B5040003D094F8200010B104E0CB
:10392000012070BD204600F097F82068016841F042
:103930000101016000F058FB0546052604E000F097
:1039400053FB401B0A2811D820684068C007F6D0F6
:103950002068016821F00201016000F045FB054686
:103960000BE000F041FB401B0A2806D9606A40F4D6
:103970000030606284F82060D2E7206840688007E9
:10398000EFD4207E0128206801683DD021F080011D
:103990000160607E01282068016838D021F0400174
:1039A0000160A07E01282068016833D021F0200149
:1039B0000160E07E0128206801682ED041F01001EE
:1039C0000160207F01282068016829D021F00801CA
:1039D0000160607F01282068016824D021F0040183
:1039E0000160D4E902010843D4E9041211430843F9
:1039F0006168491E08432168C86100206062012097
:103A000084F82000002070BD41F08001C0E741F043
:103A10004001C5E741F02001CAE721F01001CFE7DE
:103A200041F00801D4E741F00401D9E700680749F3
:103A3000884209D10648C16921F00071C1614FF483
:103A40004071044800F070B9704700000064004005
:103A500000100240000C014010B586B0002100911A
:103A600001910291039100681C49884233D11C489E
:103A7000C16941F00071C161C16901F00071049137
:103A8000816941F0080181618069164C00F00800ED
:103A900004904FF4807000906946204600F0B4F91D
:103AA000611500910221019103210391694620468D
:103AB00000F0AAF90C49486820F4C04040F0E060EA
:103AC00040F48040486000220321142000F02CFBC9
:103AD000142000F01BFB06B010BD00000064004085
:103AE00000100240000C014000000140704700003F
:103AF00010B5044600680C49884213D10B4B0021D5
:103B0000A3F11C022046FFF78CFD00280AD10749CB
:103B100001201C3981F824002046BDE81040022114
:103B2000FFF798BC10BD000000640040BC130020EB
:103B300070477047704770B5044690F82000012820
:103B400004D0606A40F40020606217E0022084F82C
:103B500020002068016821F00101016000F044FAB2
:103B600005460DE000F040FA401B0A2808D9606ABB
:103B700040F400306062052084F82000012070BD10
:103B800020684068C007EDD1606270BD7047704723
:103B900070477047704770477047000070B5044623
:103BA00000F022FA0546601C02D004480078044464
:103BB00000F01AFA401BA042FAD370BDC0000020EA
:103BC0002DE9F047054626480F460126017E0129CA
:103BD0000FD00121814601762868DFF888804CF2F9
:103BE0005034022808D0A2462046FEF741FEA8B174
:103BF00031E00220BDE8F0872046FEF739FE08BB21
:103C00000120FEF7D5FD2046FEF732FED8F8101051
:103C1000064621F00401C8F810101CE04FF0FF30F8
:103C20003860AC6811E02046FEF7D4FD5046FEF740
:103C30001FFED8F81010060021F00201C8F810107D
:103C400001D03C6007E004F58064D5E9020100EB97
:103C50008120A042E7D8002189F818103046C9E732
:103C6000E0260020002002400348016941F0800165
:103C70000161002070470000002002402DE9F05F44
:103C800005461D4888460024017E16461F46012928
:103C900009D00121814601764CF2503A5046FEF798
:103CA000E7FD18B123E00220BDE8F09F012D02D00E
:103CB000022D00D00425D346DFF840A015E02201F4
:103CC00030463946FCF7BCFA81B208EB4400FEF7F7
:103CD00093FD5846FEF7CCFDDAF8102022F00102E1
:103CE000CAF8102018B9641CE4B2AC42E7D3002231
:103CF00089F81820D8E70000E026002000200240C4
:103D0000064900200A69120607D5054A4A60054A95
:103D10004A600969090600D5012070470020024069
:103D200023016745AB89EFCD2DE9F0430022DFF891
:103D3000C0904FF00F0C56E0012393400B4050D041
:103D400022F003054D44AC689607370F0CFA07F6CE
:103D500006EA0408274CA04201D100240FE0264CBB
:103D6000A04201D101240AE0244CA04201D1022446
:103D700005E0234CA04201D1032400E00424BC4010
:103D8000444513D11F4F3C689C433C603F1D3C6839
:103D90009C433C601B4F0C373C689C433C603F1F7E
:103DA0003C689C433C60AC68B443AC60FF2B01D8DA
:103DB000044601E000F104044FEA820501D9A5F1AF
:103DC000200526680CFA05F726EA07064FF00407D7
:103DD00007FA05F746EA07062660C46824EA0304E2
:103DE000C46002F1010231FA02F3A5D1BDE8F0830B
:103DF0000000014000080140000C0140001001409B
:103E000000140140000401402DE9F84FDFF8A491AF
:103E10000024A9F1040B23464FF00F0809F1040A0E
:103E2000ABF1040EBEE00127A7403A40BA4272D17E
:103E3000DFF884C14D68A5EB0C0665452BD00DDC81
:103E4000032D34D005DC35B3012D19D0022D2FD12F
:103E50001BE0112D16D0122D2AD119E0B6F5881FBE
:103E600019D006DCB6F5803F15D0B6F5801F1FD1FE
:103E700011E0B6F5001F0ED0B6F5041F18D10AE008
:103E8000CB6815E0CB681B1D12E0CB6808330FE050
:103E9000CB680C330CE08B682BB1012B4FF008037F
:103EA00003D0476104E0042302E0076100E000233F
:103EB000FF2A01D8064601E000F104064FEA840516
:103EC00001D9A5F12005376808FA05FC27EA0C0797
:103ED00003FA05F547EA050737604D68ED0060D540
:103EE000364DAE6946F00106AE61AD6924F00306B9
:103EF00005F001050095324D7719BE68A5072D0F15
:103F000008FA05FC26EA0C06DFF8B8C0604503D1C4
:103F10004FF0000C17E044E0DFF8ACC0604502D180
:103F20004FF0010C0FE0DFF8A4C0604502D14FF064
:103F3000020C08E0DFF898C0604502D14FF0030C96
:103F400001E04FF0040C0CFA05FC4CEA060CC7F833
:103F500008C04D68D9F80060ED024D4601D5164302
:103F600000E096432E604D68DAF80060AD025546D9
:103F700001D5164300E096432E604D68DBF80060E3
:103F8000AD035D4601D5164300E096432E604D68B3
:103F9000DEF80060ED03754601D5164300E0964358
:103FA0002E60641C0A6832FA04F57FF43CAFBDE869
:103FB000F88F0000080401400000111000100240BA
:103FC0000000014000080140000C014000100140C9
:103FD000001401408068084000D0012070470AB1F9
:103FE000016170470904FBE70148806870470000E1
:103FF000C000002070B5040013D021684CF6CC40FE
:104000000860216845F255500860D4E9000141601C
:104010002168A0688860FFF7E7FF054641F23C365B
:104020000CE0012070BDFFF7DFFF401BB04205D957
:104030002068C068800701D0032070BD2068C06878
:104040008007F0D121684AF6AA200860002070BDE0
:1040500000684AF6AA210160002070470248816882
:104060000278114481607047C0000020074810B5F5
:10407000016841F010010160032000F075F80F2085
:1040800000F006F800F024F8002010BD00200240E7
:1040900070B50D4D04464FF47A712878B1FBF0F0FD
:1040A0000A490968B1FBF0F001F0F1F948B9102CA8
:1040B00007D200222146501E00F036F800206C6026
:1040C00070BD012070BD0000C0000020CC000020A9
:1040D0000C4808B5816941F001018161816901F0F5
:1040E00001010091C16941F08051C161C069064977
:1040F00000F080500090486820F0E06040F00070D0
:10410000486008BD0010024000000140002809DBA3
:1041100000F01F02012191404009800000F1E020E1
:10412000C0F8001170470000F0B40E4B1B68C3F3D9
:104130000223C3F10704042C00D904241D1D072DFC
:1041400001D2002300E0DB1E012606FA04F56D1EF5
:104150000D409D409E40761E164045EA0601F0BC8B
:1041600004F085BD0CED00E0064A00F00701106880
:104170004FF6FF03184040EA01200349084310604E
:10418000704700000CED00E00000FA05BFF34F8F10
:1041900005480168054A01F4E06111430160BFF37D
:1041A0004F8F00BFFDE700000CED00E00400FA05B2
:1041B00010B50C0607D501F0070101EB810100EBFA
:1041C000C100103005E001EB810100EBC10000F5FA
:1041D000A87099B232B1012202730181190C418198
:1041E000002010BD00220273C180F9E7704701EB87
:1041F000810200EBC202D0F8D402526A03F0B9BCCB
:1042000001EB810200EBC202D0F8D402D2F86421A3
:1042100003F012BD10B5040006D0032084F891020B
:10422000206804F0F3FC08B1012010BD204600F026
:10423000F9FB002084F8910210BD70B504460B060E
:1042400001F0070000EB800104EBC1014FF0010217
:104250004FF0000502D54A74103103E081F8515146
:1042600001F5A871087094F89002012808D084F82C
:104270009022206804F031F984F89052002070BD3B
:10428000022070BD70B5044601F00F002279904203
:1042900001D9012070BD0B0601F0070000EB800181
:1042A00004EBC1014FF001024FF0000502D54A7442
:1042B000103103E081F8515101F5A8718D7008703B
:1042C00094F89002012808D084F89022206804F025
:1042D000A2F984F89052002070BD022070BD2DE933
:1042E000F05F046857040B788D69B4F850704FF094
:1042F00000064BF68F7948F2800A48F68F7B48F229
:10430000C00E4FF480682AD54FF0020C0CEBC30CA2
:10431000674408EB4707E45BC4F30904A54203D3F1
:104320002D1B8D6101D00BE08E61056835F823608F
:1043300006EA090686F4005646EA0A0625F82360CE
:10434000520609D50A78036833F8225005EA0B05AE
:1043500045EA0E0523F8225084B30A8929E04FF07C
:10436000060C0CEBC30C674408EB4707E45BC4F393
:104370000904A54203D32D1B8D6101D00BE08E6192
:10438000056835F8236006EA090686F4005646EA11
:104390000A0625F82360520609D40B78026832F821
:1043A000235005EA0B0545EA0E0522F823502CB1EF
:1043B0004A8949690068234604F00BFC2046BDE8A1
:1043C000F09F2DE9F05F054600680C465FEA426CFD
:1043D0008B6916460978B0F850C048F68F774CF2D2
:1043E00080094FF4004B4FF6FF7E4FF4806A4FF088
:1043F000000275D54FF0020808EBC108E0440AEB53
:10440000480C30F80C00C0F30900834211D91B1A84
:10441000A3610FD0730407D52B6833F821603E40A9
:1044200046EA090623F8216094F82410012949D0AE
:1044300057E1A261607810B1012813D01AE0286812
:10444000B0F85030184400EB0110B0F80414C1F378
:104450000901A0F80414B0F8041441F40041A0F8D4
:10446000041407E02868B0F85030184400EB01103D
:10447000A0F804246178286811B1012913D01AE04A
:10448000B0F850100844217800EB0110B0F80C147B
:10449000C1F30901A0F80C14B0F80C1441F4004168
:1044A000A0F80C1407E0B0F850100844217800EB95
:1044B0000110A0F80C2421782846FFF798FE70041C
:1044C00073D40EE1616901446161E1690144E16114
:1044D0002369216A994204D31846091A216205E02A
:1044E0003EE084F8242009B108462262617811B1C7
:1044F000012929D031E02968B1F8502011442278EF
:1045000001EB0211B1F80424C2F30902A1F804245A
:1045100001F204413E2807D94209C30600D1521EC8
:104520000B884BEA822207E048B14208C30700D05B
:10453000521C0B880EEA822213430B800DE00A887E
:1045400042F400420A8008E02968B1F85020114482
:10455000227801EB0211A1F8040483B22289BCE0A5
:104560004FF0060808EBC108E0440AEB480C30F8AD
:104570000C00C0F30900834211D31B1AA3610FD0B2
:10458000730407D42B6833F821603E4046EA0906DD
:1045900023F8216094F82410012953D0A1E0A261EE
:1045A000607818B1012814D01BE041E02868B0F809
:1045B0005030184400EB0110B0F80414C1F30901A5
:1045C000A0F80414B0F8041441F40041A0F8041455
:1045D00007E02868B0F85030184400EB0110A0F84C
:1045E00004246178286811B1012913D01AE0B0F8C9
:1045F00050100844217800EB0110B0F80C14C1F3FE
:104600000901A0F80C14B0F80C1441F40041A0F812
:104610000C1407E0B0F850100844217800EB0110AA
:10462000A0F80C2421782846FFF7E1FD700458D447
:104630002178286830F821203A4042EA090220F81F
:1046400021204EE0616901446161E1690144E16159
:104650002369216A994203D31846091A216204E0AA
:1046600009B10846226284F824206278296812B1D0
:10467000012A28D02FE0B1F850201144227801EB14
:104680000211B1F80C24C2F30902A1F80C2401F2C2
:104690000C413E2807D94209C30600D1521E0B889F
:1046A0004BEA822207E048B14208C30700D0521CFF
:1046B0000B880EEA822213430B800CE00A8842F436
:1046C00000420A8007E0B1F850201144227801EB43
:1046D0000211A1F80C04628983B26169286804F0B0
:1046E0009EFA2178286830F8212048F6BF731A40D6
:1046F00082F0300248F280031A4320F82120002083
:10470000BDE8F09F01F0070101EB810100EBC10062
:10471000D0F86C0170472DE9F04104460E0601F017
:10472000070000EB800104EBC1014FF001074FF0DF
:10473000000502D54F74103103E081F8515101F5A5
:10474000A871022B08700A61CB7000D10D7194F82A
:104750009002012809D084F89072206803F07CFD53
:10476000284684F89052BDE8F0810220FBE710B59E
:1047700001F0070404EB840100EBC101C1E95923F6
:104780000022C1F86C2181F8512181F85041006864
:1047900001F5A87103F092FF002010BD70B504462A
:1047A0000D4601F007002179884201D9012070BD32
:1047B00029064FF000064FF0010206D500EB8001FC
:1047C00004EBC1014A74103107E005EB850104EBED
:1047D000C10181F8516101F5A8718A70087094F8DF
:1047E0009002012807D084F89022206803F04DFF42
:1047F000680702D006E0022070BD04F5267120682B
:1048000003F007FF84F89062002070BD10B501F03E
:10481000070404EB840100EBC101C1E90923012273
:1048200081F834200B630023CB624A7401F8104FE7
:10483000006803F043FF002010BD1FB50446006868
:1048400004F0C4F9010403D5204601F0BFFD1FBDEB
:1048500041050DD5206830F8441F21F480610180A6
:10486000204600F00BF90021204600F022F91FBD80
:10487000410405D5206830F8441F21F4804173E0DD
:10488000810405D5206830F8441F21F400516BE005
:10489000C10414D5206830F8401F21F004010180C4
:1048A000206830F8401F21F008010180204600F008
:1048B000F8F8206830F8441F21F4805154E00105D5
:1048C0003FD5216800206A4631F8203022F81030A8
:1048D000401CC0B20828F7D331F8400F40F0010067
:1048E0000880206830F8401F21F001010180206815
:1048F000B0F844104905FBD530F8441F21F480611D
:1049000001800020236832F8101023F82010401C8A
:10491000C0B20828F6D3206830F8401F41F00801E3
:104920000180206830F8441F21F400610180206874
:1049300030F8401F41F004010180204600F0ECF8FF
:104940001FBD810509D5206830F8441F21F400718E
:104950000180204600F0A9F81FBDC005FCD52068E5
:1049600030F8441F21F4807101801FBD2DE9F04112
:10497000040004D094F89102002518B107E001204A
:10498000BDE8F08184F89052204600F059F80320E9
:1049900084F891026571206803F034FE94E80F00FA
:1049A00003F099FD022690BB0021206804F026F94F
:1049B00068BB002101270BE001EB810004EBC00084
:1049C00047740174C57405624562491CC9B28562A9
:1049D00020798842F0D8002111E001EB810004EB3E
:1049E000C00080F8515180F8501180F85351C0F840
:1049F0006051C0F86451491CC9B2C0F868512079AF
:104A00008842EAD894E80F0003F0F3FD10B184F86F
:104A10009162B4E7657384F89172206803F0E7FD52
:104A20000020ADE700680449884204D10348C16909
:104A300021F40001C1617047005C00400010024099
:104A400008B500680B49884212D10B48C16941F48E
:104A50000001C161C069002200F400000090032140
:104A60001420FFF761FBBDE808401420FFF74EBBA0
:104A700008BD0000005C00400010024070B5044614
:104A800080790125022801D0FDF790FE2946D4F84F
:104A9000D40203F0B9F9D4F8D402BDE8704003F0B1
:104AA00075B9D0F8D40203F099B9D0F8D40203F064
:104AB0009FB910B5044690F8900201280AD0012051
:104AC00084F890026173206804F09AF8002084F85A
:104AD000900210BD022010BDD0F8D42200F526713E
:104AE000104603F09DB910B5044690F890020128D5
:104AF00010D0012084F89002206804F04FF80121C2
:104B00002046FFF773FB206803F06FFD002084F858
:104B1000900210BD022010BD10B50446D0F8D4029A
:104B200003F0BDF9A07A002804D00348016841F0E1
:104B30000601016010BD000010ED00E010B5014657
:104B40000020234C012922D0022939D010291DD15F
:104B500061682268D20119D51E48C1F38342C90396
:104B6000805C0AD561681B4AC1F34041921E515CCA
:104B7000194AB2FBF1F1484301E018494843616822
:104B8000490203D440000321B0FBF1F010BD226ABA
:104B9000C2F30121012903D1920701D5C80310BD39
:104BA000022905D1626A920702D549F6404010BD3C
:104BB0000329FCD121688903F9D54FF2244010BDA7
:104BC00000F01EF96168C1F38131491C4900DBE73F
:104BD000001002409EDD000800127A0000093D002E
:104BE0002DE9F84304460078344FC00752D0F869E5
:104BF0000025C00008D4F86940F08050F861F869D9
:104C0000012500F0805000902D480168C90511D49D
:104C10000168804641F480710160FFF7E5F90646BE
:104C200004E0FFF7E1F9801B642822D8D8F80000DF
:104C3000C005F6D5386A10F4407020D0A18801F480
:104C4000407181421BD0386A1E49012220F4407015
:104C50000A6000220A603862C00710D0FFF7C4F96A
:104C6000064641F2883807E0FFF7BEF9811B41454F
:104C700002D90320BDE8F883386A8007F4D5386A82
:104C8000616820F44070084338621DB1F86920F073
:104C90008050F8612078800705D57868A16820F4F5
:104CA0004040084378602078C00605D57868E16800
:104CB00020F48000084378600020DBE70010024009
:104CC00000700040400442422DE9F0470D460400C8
:104CD00067D0DFF81881D8F8000000F00700A8427C
:104CE0000CD2D8F8001021F007012943C8F80010B1
:104CF000D8F8000000F00700A84252D120683C4ECE
:104D0000810712D5400703D5706840F4E0607060F9
:104D10002078000703D5706840F4605070607068B8
:104D2000A16820F0F000084370602078C00727D009
:104D30006068012810D03168022810D08907002946
:104D40002FDA716821F0030101437160FFF74CF91C
:104D5000074641F288390CE031688903EFE78901A1
:104D6000EDE7FFF741F9C11B494502D90320BDE832
:104D7000F0877068616800F00C00B0EB810FF0D133
:104D8000D8F80010404601F00701A9420BD901688C
:104D900021F0070129430160006800F00700A842E4
:104DA00001D00120E3E72078400705D57068E1686D
:104DB00020F4E060084370602078000706D5706832
:104DC000216920F4605040EAC100706000F028F8CA
:104DD0007168084AC1F30311515CC8400649086074
:104DE00006480068FFF754F90020C0E700200240A1
:104DF00000100240AEDD0008CC000020C4000020FE
:104E00000448054900684968044AC1F3C221515C5D
:104E1000C8407047CC00002000100240BEDD0008F2
:104E20000E4B59680E4801F00C02042A11D0082AD2
:104E30000FD10C48C1F38342C903805C0AD559687D
:104E4000084AC1F34041921E515C054A5043B0FBF1
:104E5000F1F07047044948437047000000100240D9
:104E600000127A008CDD000800093D002DE9F84FA2
:104E700004006FD02078BE4DC00747D06868C0F3EB
:104E80008100012807D06868C0F38100022809D199
:104E90006868C00306D52868800337D56068002895
:104EA000E7D033E06068B0F5803F0BD010B1B0F5CB
:104EB000A02F11D0286820F480302860286820F4C2
:104EC000802002E0286840F480302860606888B163
:104ED000FFF78AF8064609E0286840F48020286039
:104EE000F0E7FFF781F8801B642873D828688003F7
:104EF000F7D50BE0FFF778F8064604E0FFF774F803
:104F0000801B6428F1D828688003F7D42078DFF864
:104F1000648280074FF0010A4FF0000939D56868B4
:104F200010F00C0F07D06868C0F38100022809D187
:104F30006868C00306D42868800714D52069012852
:104F400008D110E02069B0B1C8F800A0FFF74CF814
:104F5000064605E007E1FFF747F8801B0228C4D8A2
:104F600028688007F7D52868616920F0F80040EAD2
:104F7000C10028600DE0C8F80090FFF735F806463C
:104F800004E0FFF731F8801B022823D82868800747
:104F9000F7D4207800072CD57748A169D9B1C0F89B
:104FA00000A0FFF721F8064604E0FFF71DF8801B7C
:104FB00002280FD8686A8007F7D570484FF4FA5175
:104FC0000068B0FBF1F0009000BF0098411E009116
:104FD000FAD20EE07CE0C0F80090FFF705F8064634
:104FE00004E0FFF701F8801B022871D8686A800787
:104FF000F7D4207840075BD5E8690027C00008D4C3
:10500000E86940F08050E861E869012700F08050CD
:1050100000905B480168C90511D40168834641F4DA
:1050200080710160FEF7E0FF064604E0FEF7DCFF5A
:10503000801B64284CD8DBF80000C005F6D5E0687A
:1050400001280AD008B1052813D0286A20F00100F1
:105050002862286A20F0040002E0286A40F001007B
:105060002862E06841F2883B88B1FEF7BDFF064642
:1050700009E0286A40F004002862EEE7FEF7B4FF7A
:10508000811B59455BD8286A8007F7D50BE0FEF7EE
:10509000ABFF064604E0FEF7A7FF811B59454ED83B
:1050A000286A8007F7D41FB1E86920F08050E861D2
:1050B000E069A8B36968C1F38101022946D00228DA
:1050C000484606D0C8F86000FEF78EFF044639E077
:1050D00035E04746C8F86000FEF786FF064604E064
:1050E000FEF782FF801B022829D828688001F7D4A8
:1050F000206AB0F5803F05D16868A16820F40030CF
:1051000008436860D4E908010843696821F4741110
:1051100008436860C7F860A0FEF766FF044605E034
:1051200023E0FEF761FF001B022808D828688001F1
:10513000F7D51AE0FEF758FF001B022802D903201A
:10514000BDE8F88F28688001F4D40EE00128F7D07C
:105150006868226A00F48031914204D1616A00F4E7
:105160007010884201D00120EAE70020E8E7000043
:10517000001002400000424280044242CC00002065
:105180000070004070B5040009D0606A002540B18D
:1051900025616561A56294F8510040B10CE00120E1
:1051A00070BD6068B0F5827FF4D0E561F2E784F805
:1051B0005050204600F040F8022084F8510020684A
:1051C000016821F040010160A088218900F482700B
:1051D00001F404410843A18901F400610843217CE2
:1051E00001F002010843217D01F001010843218BF8
:1051F00001F400710843217F01F03801084394F85D
:10520000201001F080010843218D01F40051084372
:1052100021680860A069042101EA10402168486003
:105220002068C16921F40061C1616565012084F8CD
:105230005100002070BD000030B585B000240094FE
:1052400001940294039400681449884223D11448BD
:10525000816941F480518161816901F48051049137
:10526000816941F00401816180690E4D00F0040004
:105270000490A02000900220019003200390694632
:105280002846FEF7C1FD4020CDE9000469462846C6
:105290000294FEF7B9FD05B030BD000000300140BA
:1052A00000100240000801402DE9FF4F81B01F4669
:1052B0009346044601250E9EFEF796FE804694F81E
:1052C00051006168012806D0B1F5827F3CD1A16808
:1052D000C9BB042838D10298002870D0BBF1000F58
:1052E000FBD0002FF9D094F8500001282CD04FF0BB
:1052F000010A84F850A094F85100042802D0052037
:1053000084F851004FF00009C4F85490C4F838B044
:10531000E787A78702992163E786A786C4F84090AC
:10532000C4F8449020680168490603D4016841F03C
:1053300040010160E068B0F5006F606808D0E8B334
:10534000012F47D07DE0FFE7022005B0BDE8F08FD8
:1053500008B1012F37D1206B21680088C860206B0D
:10536000801C2063E08E401EE0862CE0206881686F
:1053700089070DD5E18E59B1012D09D1216B09881D
:10538000C160206B801C2063E08E401EE0860025FB
:1053900020688168C9070BD0E18F49B1C068A16B53
:1053A0000880A06B801CA063E08F401EE087012571
:1053B000FEF71AFEA0EB0800B04201E00AE064E04C
:1053C00001D3701C4ED1E08E0028CFD1E08F002891
:1053D000CCD13CE0206B216800780873206B401C26
:1053E0002063E08E401EE0862BE0206881688907FC
:1053F0000DD5E18E59B1012D09D1216B09780173C9
:10540000206B401C2063E08E401EE0860025206853
:105410008168C9070BD0E18F49B1C068A16B0870E2
:10542000A06B401CA063E08F401EE0870125FEF7C3
:10543000DBFDA0EB0800B04202D3701C01D011E0EC
:1054400086B1E08E0028D0D1E08F0028CDD1424631
:105450003146204601F01EFE50B12020606584F8E0
:10546000509012E084F851A084F8509003206CE72B
:10547000A06818B92068C1688068009084F851A0BD
:1054800084F85090606D0028F1D001205DE710B5E0
:10549000401EB0F1807F01D3012010BD4FF0E02409
:1054A00060610F21601703F0E2FB0020A06107207C
:1054B0002061002010BD70477047000070B590F863
:1054C0003C20012A26D0012580F83C50022280F899
:1054D0003D2002685368946823F070060B683343DC
:1054E00053600D4B02689A4208D0B2F1804F05D04C
:1054F0000A4B9A4202D00A4B9A4204D1496824F0DE
:1055000080031943916080F83D50002180F83C10E1
:10551000084670BD022070BD002C01400004004010
:105520000008004010B5040003D094F83D0010B10D
:1055300007E0012010BD002084F83C00204600F068
:105540001FF8022084F83D00211D206801F0F8FEBC
:10555000012084F8460084F83E0084F83F0084F877
:10556000400084F8410084F8420084F8430084F845
:10557000440084F8450084F83D00002010BD000080
:1055800008B500681449B0F1804F14D0134A904216
:1055900020D1C86940F00200C861C869002200F04B
:1055A0000200009002211D20FEF7BEFD1D20BDE877
:1055B0000840FEF7ABBDC86940F00100C861C8698A
:1055C000002200F00100009001211C20FEF7ACFD3C
:1055D0001C20ECE708BD0000001002400004004061
:1055E00090F83D10012901D001207047022180F878
:1055F0003D100168CA6842F00102CA6000680B49A8
:10560000884208D0B0F1804F05D00949884202D0C5
:105610000849884204D1816801F00701062903D0B6
:10562000016841F00101016000207047002C014039
:10563000000400400008004070B5044690F83C00AB
:105640000025012817D0012684F83C60022084F848
:105650003D002068826822F0770222F47F42826057
:105660000868502838D00DDC20284FD005DC90B3D6
:10567000102811D14AE0022070BD302846D04028C1
:105680000AD13BE060282FD070280DD0B0F5805FA4
:1056900003D0B0F5005F12D0012584F83D600020F2
:1056A00084F83C00284670BDCB68D1E90121206810
:1056B00001F08FFE2068816841F0770109E0CB6836
:1056C000D1E90121206801F084FE2068816841F45D
:1056D00080418160E1E719E0CA684968206801F00B
:1056E00033FF5021206806E0CA684968206801F04D
:1056F0003CFF6021206801F076FECEE7CA68496869
:10570000206801F021FF40212068F4E7226801466B
:105710001046F0E770472DE9F04104460068C6687E
:1057200005694FF00007A90713D5B10711D5F91E78
:10573000016101202077206880698007204602D01F
:10574000FFF7E8FF04E000F0C1F8204600F053F94D
:105750002777680716D5700714D521686FF0040005
:105760000861022020772068806910F4407F20467D
:1057700002D0FFF7CFFF04E000F0A8F8204600F0C9
:105780003AF92777280715D5300713D521686FF028
:1057900008000861042020772068C069800720463F
:1057A00002D0FFF7B7FF04E000F090F8204600F0C9
:1057B00022F92777E80616D5F00614D521686FF090
:1057C00010000861082020772068C06910F4407F2D
:1057D000204602D0FFF79EFF04E000F077F8204655
:1057E00000F009F92777E80708D0F00706D021680C
:1057F0006FF001000861204600F04EF9280608D538
:10580000300606D521686FF0800008612046FFF75A
:1058100052FE680608D5700606D521686FF0400074
:105820000861204600F090FBA8060AD5B00608D50E
:1058300021686FF0200008612046BDE8F041FFF7C5
:105840003BBEBDE8F081000010B586B0002100919C
:105850000191029103910068B0F1804F2BD117485C
:10586000816941F008018161816901F008010491B9
:10587000816941F0040181618069022400F0040023
:10588000049040F60840CDE9000469460C480394B2
:10589000FEF7BAFAA003CDE900046946094803946B
:1058A000FEF7B2FA0849486820F4407040F0E06022
:1058B00040F44070486006B010BD00000010024087
:1058C000000C01400008014000000140704770B525
:1058D000044690F83C0000260D4601280FD0012018
:1058E00084F83C006AB1042A1DD0082A2FD00C2A63
:1058F0003FD00126002084F83C00304670BD0220D5
:1059000070BD206801F078FD2068816941F00801D0
:1059100081612068816921F00401816120688169C9
:105920002A69114311E0206801F092FD2068816925
:1059300041F4006181612068816921F480618161A5
:10594000206881692A6941EA02218161D2E72068E1
:1059500001F0ACFD2068C16941F00801C161206817
:10596000C16921F00401C1612068C1692A6911433C
:1059700011E0206801F0C6FD2068C16941F40061B2
:10598000C1612068C16921F48061C1612068C16979
:105990002A6941EA0221C161ACE710B5040003D0D5
:1059A00094F83D0010B107E0012010BD002084F8FC
:1059B0003C00204600F01EF8022084F83D00211D26
:1059C000206801F0BDFC012084F8460084F83E0008
:1059D00084F83F0084F8400084F8410084F84200D5
:1059E00084F8430084F8440084F8450084F83D00BE
:1059F000002010BD7047704710B5044649B1042916
:105A00000AD008290BD094F8410001280AD00120BF
:105A100010BD94F83E00F8E794F83F00F5E794F8DD
:105A20004000F2E7022041B3042929D008292AD0F6
:105A300084F841000122206801F0BEFC134920686F
:105A4000884203D1426C42F400424264206888429A
:105A500008D0B0F1804F05D00D49884202D00D49E1
:105A6000884204D1816801F00701062903D001684A
:105A700041F001010160002010BD84F83E00D9E72B
:105A800084F83F00D6E784F84000D3E7002C0140BB
:105A900000040040000800402DE9FC5FFE49DFF8EB
:105AA000FC8388420BD14FF08040406AC8F84C001C
:105AB00064282ED2BDE8FC5FF948FDF789B9F949A1
:105AC000884226D104F054FA04F0EEFDF64DDFF8DA
:105AD000DC93F74C6878F74E03281CD002281AD0C4
