:020000040800F2
:1000000000180020DD3700084D3800084D38000882
:1000100000000000000000000000000000000000E0
:100020000000000000000000000000004D38000843
:1000300000000000000000004D38000841030008E7
:100040004D3800084D3800084D3800084D3800087C
:100050004D3800084D3800084D3800084D3800086C
:100060004D3800084D3800084D3800084D3800085C
:100070004D3800084D3800084D3800084D3800084C
:100080004D38000800000000000000004D38000856
:10009000000000004D3800084D3800084D380008B9
:1000A000000000004D3800084D3800084D380008A9
:1000B0004D380008000000004D3800084D38000899
:1000C00010B5064C2378002B07D1054B002B02D02E
:1000D000044800E000BF0123237010BD0801002088
:1000E00000000000C0380008084B10B5002B03D0FA
:1000F0000749084800E000BF07480368002B00D10B
:1001000010BD064B002BFBD09847F9E7000000001C
:100110000C010020C0380008080100200000000089
:1001200002B4714649084900095C49008E4402BC8A
:100130007047C04603B47146490840004900095A57
:1001400049008E4403BC7047002243088B4274D39D
:1001500003098B425FD3030A8B4244D3030B8B42C8
:1001600028D3030C8B420DD3FF22090212BA030CD1
:100170008B4202D31212090265D0030B8B4219D3B2
:1001800000E0090AC30B8B4201D3CB03C01A5241D2
:10019000830B8B4201D38B03C01A5241430B8B421A
:1001A00001D34B03C01A5241030B8B4201D30B0303
:1001B000C01A5241C30A8B4201D3CB02C01A52412A
:1001C000830A8B4201D38B02C01A5241430A8B42ED
:1001D00001D34B02C01A5241030A8B4201D30B02D6
:1001E000C01A5241CDD2C3098B4201D3CB01C01AF0
:1001F000524183098B4201D38B01C01A52414309FA
:100200008B4201D34B01C01A524103098B4201D3E7
:100210000B01C01A5241C3088B4201D3CB00C01A54
:10022000524183088B4201D38B00C01A52414308CC
:100230008B4201D34B00C01A5241411A00D20146F1
:10024000524110467047FFE701B5002000F006F864
:1002500002BDC0460029F7D076E770477047C04618
:100260000122174B86B099691143996199690A4037
:100270000192019A8022D96952051143D961D96945
:100280000A400292029A80225969D20311435961AD
:1002900059690A400392039A8022596992021143D4
:1002A000596159690A400492049A80225969D2021C
:1002B000114359615B691A400592059B06B070476E
:1002C0000010024030B58DB01822002106A803F0BE
:1002D000EEFA8022184B5202596B11435963596B45
:1002E000154C1142FBD00723002502930121043B4A
:1002F00002A803930495059502F024F98022236B4C
:1003000006A8934323638023E2691B051A43E26135
:10031000E269069513400193019B80239B05079397
:10032000064B0895099322230A93023B0B9302F094
:1003300095F90DB030BDC046001002407FBB0000F3
:1003400010B502F0E9F910BD10B502F0D5F902F0D0
:10035000E3F9FFF7B7FF00F06DFA00F0D7FC01F00A
:1003600005F901F0C3F800220421012000F0FEFC91
:1003700000220421100000F0F9FC00F053FA00F014
:1003800023FD01F0D5F8F8E7084B026882B09A42E5
:1003900009D18023064A1B04D1691943D161D2696E
:1003A00013400193019B02B07047C046005C0040BF
:1003B000001002408C2310B59B00C1184033C05878
:1003C00002F088FE10BD4B01C318FC331A6C9C234D
:1003D00010B59B00C05802F0ADFE10BD4B01C31814
:1003E000DA6B9C2310B59B00C05802F0E7FE10BDED
:1003F0009C2310B59B00C05802F088FF10BD70B55B
:100400009C240500A4000121005902F064FF285932
:1004100002F037FF70BD00009C2310B504009B0064
:10042000C05802F05BFFA369002B04D00621024AEA
:1004300013690B43136110BD00ED00E0836910B533
:100440000400002B06D00621054A13698B43136173
:10045000FFF738FF9C239B00E05802F04BFF10BDD4
:1004600000ED00E0F8B59C2305001D489B00C55039
:10047000B0261C4B0024022703600623B600A851B7
:100480008760076143608461C461046201F02EFCEF
:10049000A85922002100182301F0E8FFA8592200E2
:1004A0005823802101F0E2FFA8592200982301215E
:1004B00001F0DCFFA8592200D823812101F0D6FFEA
:1004C0008C233900A85922005B0001F0CFFFAC2338
:1004D000A8595B002200822101F0C8FF2000F8BD6E
:1004E00024010020005C0040B0239B00C05810B5E0
:1004F00001F05EFC0223032801D8024B1B5C1800AC
:1005000010BDC0464839000810B514001A00230079
:10051000B024A400005901F070FC0223032801D884
:10052000014B1B5C180010BD48390008B0239B002C
:10053000C05810B501F095FC0223032801D8024BE6
:100540001B5C180010BDC04648390008B0239B0052
:10055000C05810B501F088FF0223032801D8024BD0
:100560001B5C180010BDC04648390008B0239B0032
:10057000C05810B501F012FF0223032801D8024B26
:100580001B5C180010BDC04648390008B0239B0012
:10059000C05810B501F037FF0223032801D8024BE1
:1005A0001B5C180010BDC04648390008B0239B00F2
:1005B000C2584BB2002B05DA7F230B405B01D118E8
:1005C0002A3103E0490151182B31FF310878704777
:1005D000B0239B00C05810B501F0FDFB0223032897
:1005E00001D8024B1B5C180010BDC04648390008FA
:1005F00010B5B024A400005901F07FFC02230328A9
:1006000001D8024B1B5C180010BDC04648390008D9
:1006100010B5B024A400005901F04DFC02230328BA
:1006200001D8024B1B5C180010BDC04648390008B9
:10063000B02310B59B00C05801F058FC10BD00005D
:10064000122301480B80704720000020042301483A
:100650000B8070471C000020022301480B8070476C
:1006600060390008122301480B8070474C3900089C
:1006700000207047AE239B00C2580223002A06D0F8
:1006800012334B43C01800235118C3618B771800F5
:10069000704700002E230380004870477000002040
:1006A0000A230380004870479839000800200A296F
:1006B00002D13223014813807047C04664390008D4
:1006C000F8B50500002614270F4A537B9E4216DA20
:1006D00007237343D3181C7D28002100FFF726FF52
:1006E000072263B214407C432C19002B02DA00234A
:1006F000A36102E00023FC34E3650136E4E7AE23A6
:1007000000209B00E850F8BD700000201F4BF7B59B
:100710001E000500002712360193019B5B7B9F4260
:100720001FDA7379B47832791B0213432100F2780F
:100730002800FFF7E9FE63B2002B07DA07231C400D
:100740000D335C43133B2C19A36107E007231C40C6
:100750000D335C432C19FC34133BE365013707363A
:10076000DBE70B4CAE2322009B00EC5028002D321F
:1007700010230121FFF74CFF220028003D324023C7
:100780000221FFF745FF0020FEBDC046700000209B
:100790005C060020AE239B00C35870B505000C001A
:1007A000002B01D102201AE0FFF742FF012C07D1F4
:1007B0000B4E81B22D36300000F012FD102308E000
:1007C000022CEFD1064E81B23D36300000F0CCFD58
:1007D0004023320021002800FFF71AFF002070BDDF
:1007E0005C0600202E230380004870477000002024
:1007F0002E23038000487047700000200200084844
:1008000010B5036B0C00002B01D0002007E0016342
:100810000B008121FFF7ECFE0028F6D1200010BD6F
:100820009803002010B5024801F07EFB10BDC046C1
:100830002401002010B5074C00220749200002F0D7
:100840000BFC0649200002F021FC200002F027FCEE
:1008500010BDC04698030020000000203400002096
:10086000AE23084A9B000100D0580F230B40C31849
:10087000002010B598771000FFF768FE43425841FA
:1008800010BDC0469803002010B54B78002B16D140
:100890004C88002C13D110220A4902F069FF012173
:1008A0002200080000F062FA22000121200000F07E
:1008B0005DFA8220FFF7D4FF8120FFF7D1FF0020EF
:1008C00010BDC046A2390008F8B5AE2316001F4A75
:1008D0009B00D7580400002F36D00378002B0CD093
:1008E000012B31D142780E331340FA18927F002A3F
:1008F00002D05B00DE5327E00270A3689E4223DC37
:100900003200606802F0CAFF0F23012562780F48A9
:100910001A40BA189577072261780A409446142243
:1009200063465A430F2382180B40D661AB40002226
:10093000DA536178B3B26268FFF75AFEE368257054
:100940009E19E660280000E00020F8BD9803002012
:1009500030B504000D008FB01C22002107A802F062
:10096000A6FF1422002102A802F0A1FF03AB07AAF0
:100970002900200002F0C8F900282DD1099B01931D
:10098000002B03D1079B0193029309E08022089B6F
:1009900052420193029302AB5B7B134302AA53734F
:1009A0000A9B0193022B05D1402202AB5B7B1343D0
:1009B00002AA53730B9B02AA137300F0FFFD02AB54
:1009C0001882FE23054CDB00E358002B01D002A85F
:1009D0009847E3680133E3600FB030BDDC060020C8
:1009E00070B598B0282200210EA802F060FF802286
:1009F0002B4B9204D9692B4C1143D961D9690A4018
:100A00000192019A80225969D202114359615969B0
:100A10001140029102995969114359615B6904A916
:100A20001A400392039B22000B0061CA61C321CAD2
:100A300021C31D4D280001F081FE09A923000A00F1
:100A4000143351CB51C211CB11C2280001F076FEF4
:100A5000164C0025200002F0B7F8154B0126236044
:100A6000102320006360A560E5602561656125763F
:100A70006676A576E6762577667701F056FF0EA9AD
:100A8000200014951596129516961395179501F05A
:100A9000D0FF0849200002F0C1F918B070BDC0466F
:100AA00000100240D838000800040048A0000020D0
:100AB00000640040138F000070B506246043124D9F
:100AC0001C1C68602800042B00D90424E4B2013CFB
:100AD0000E4BA400E358EB600B1C102900D9102327
:100AE000DBB2013B0A499B005B580361131C082AD7
:100AF00000D90823DBB2074A013B9B009B584361A6
:100B000001F013FF70BDC046A0000020143A000899
:100B1000D4390008B4390008FE23024ADB00D05063
:100B20007047C046DC060020014B024AD050704797
:100B3000F4070000DC06002070B5031E1ED0FD2364
:100B40000F4ADB00D458611C642900D100210D4BF1
:100B5000D358994205D193680133936001235B42D6
:100B60000CE014236343D318183370C870C31C00FF
:100B700028C828C4FD23DB00D1500023180070BD15
:100B8000DC060020EC07000010B5031E01D0802316
:100B90001B060248836001F0C8FE10BDA0000020C3
:100BA00010B5094C002807D0200001F0B2FF072142
:100BB000200002F082F806E00721200002F07DF814
:100BC000200001F0D0FF10BDA0000020F0B5224EA3
:100BD00089B0300002F037F9FD23204C204DDB00B6
:100BE0006759E358BB4235D01822002102A802F011
:100BF0005EFE0023019314337B43E3189A1DD17FDB
:100C00009B694AB2002A05DADB00DB080393042360
:100C1000049302E05B055B0D029314225743E31932
:100C2000E7193A0005334906DB7FC90F49000693EF
:100C300005911C3201AB02A9300001F0DBFF002856
:100C400008D1019B002B05DB63590133642B00D1D4
:100C50000300635109B0F0BDA0000020DC060020B5
:100C6000EC07000010B50021FFF772FE10BD10B5B3
:100C70000121FFF76DFE10BD024A136801331360B6
:100C80007047C046DC06002010B5FFF7F5FF10BD29
:100C900010B5FFF7F1FF10BD024A536901335361EC
:100CA0007047C046DC06002010B5FFF7F5FF10BD09
:100CB0007047704770B5040002F0BCF9A8225202D8
:100CC00010490023104203D04B6801334B600423CA
:100CD000420701D501221343C022D200104201D0A5
:100CE00002221343084A8D58002D06D0002B04D051
:100CF0000A7C49681800C9B2A847200002F09CF994
:100D000070BDC046DC060020F4070000F0B5802569
:100D1000144FAD027B698DB02B437B617B6902A9C7
:100D20002B400093009B0B000F4A51CA51C39026E1
:100D3000F60511CA11C3300001F000FD07A90A0031
:100D40007B692B437B617B691D400195019B064BB1
:100D5000143331CB31C211CB11C2300001F0EEFCA3
:100D60000DB0F0BD001002400039000870B50E0053
:100D70000500140000F01CFC0A236B43114A9E522C
:100D8000D318D988002902D101310143D980F11E3D
:100D90000A23012904D900216B43D31899800CE060
:100DA0003221032E00D096316B43D3189980002C4A
:100DB00003D0001901240443A4B20A235D4352194D
:100DC000548070BDD40E0020F8B500F0F1FB9026E1
:100DD00007000025224CF6050234A188002939D0ED
:100DE0007B1A62889BB2934234D3A31E1B88013BBB
:100DF000032B07D81800FFF793F9020208085A429C
:100E00005341A3710023A38010E00120A3798A1825
:100E10004340A37123880243A280002B06D09F4247
:100E200004D3002202212800FFF7A0FFA379002DA0
:100E300002D0012D07D00DE0002B01D0012308E0E6
:100E400080235B0205E0002B01D0022301E0802318
:100E50009B02B36101350A34032DBED1F8BDC046F3
:100E6000D40E0020044B9972DA72C20703D5102108
:100E70001A7A0A431A727047D800002010B5224B24
:100E80009A7F1C00012A1FD17E3210400F2810D0FB
:100E900006D807282FD00E2809D0062832D128E0FE
:100EA000142824D01F280AD010282BD11DE0197730
:100EB00028E01300FF2900D00B00637722E049B23D
:100EC000002200291DDA1DE0002A1BD11F3210402C
:100ED00006280ED004D8042807D0052807D011E032
:100EE000072808D01F2808D00CE019760AE05976A8
:100EF00008E0997606E0D97604E049B2002901DAE3
:100F000001229A7710BDC046D800002000B51F49C5
:100F10008B7F0A00012B20D17F2210400E2814D095
:100F200006D806280DD007280DD0002829D12BE09F
:100F300010280ED00BD314280DD080231F2823D0C7
:100F40001FE08B7E20E0CB7E1EE00B7F1CE04B7F02
:100F50001AE00B7E18E04B7E16E0002B11D11F210A
:100F60000840072810D8FFF7DBF80E0F0F0F040614
:100F7000080A137E08E0537E06E0937E04E0D37EE9
:100F800002E0002300E00123180000BDD80000208B
:100F9000F7B505000E003E2901D9002025E01348D1
:100FA0003F212C5A402223000B40D31A9BB20190C0
:100FB0009E4212D964188C43E4B22F1900213800E4
:100FC00002F075FC02232B550023019A0234E4B28F
:100FD0007B70AC52E0229200AB52019BE85AE023B6
:100FE00036189B009E42D8DC2818FEBD8203000004
:100FF00030B5064C3F23055B2A009A4313000133AA
:10100000C25C69180132C254015330BD8203000032
:1010100070B5040000F0D2FA164E0500A25B022A59
:1010200013D8154CE388002B01D1002021E0C51A0C
:10103000ADB2112DF9D9002210481100FFF744FC80
:101040000028F2D00020E08013E03F233F329A4393
:1010500021000A48FFF738FC0028E6D0E0210223EF
:10106000002201208900237062706252A353024B58
:10107000DD8070BD82030000D8000020C800002081
:10108000F8B53E4E04003378002B76D0437B9B06A8
:1010900004D4ED2203210120FFF768FE384F102110
:1010A0003800FFF775FF3D0000280FD13800FFF72B
:1010B000AFFF002804D10222337A134333725CE07D
:1010C00010213800FFF764FF002856D0237B1A1C3C
:1010D000082B00D90822637BD2B259B2002901DA69
:1010E00020210A435B0601D510231A4320210270F8
:1010F000667B23680A420ED0DB000E4201D01F3906
:101100000B43190A43708170190C1B0EC1700371D7
:10111000052705300AE05B019BB20E4201D0012198
:101120000B43032743701B0A83700330E0239B00AB
:10113000268AE95A0670002904D1360A4670023719
:10114000861C01E0461C0137E95A0131E952D306F9
:1011500008D4211D3000227B02F0A0FB217BCF1997
:101160007618FFB2637B9B0603D5A37B01373370F0
:10117000FFB2B9B22800FFF73BFFF8BDD80000204E
:10118000F20E002070B505210500FFF701FF041ED7
:1011900022D000F013FA422301262370E0703E3B78
:1011A000000A2071052128006370A670FFF720FF58
:1011B00003212800FFF7ECFE00280DD0074C032187
:1011C000227C237A467013404022837002702800EC
:1011D000FFF70EFF0023237270BDC046D800002029
:1011E00013B50400012900D8B6E04378022B0FD0D4
:1011F000032B03D0012B00D0AEE07CE00378032B5F
:1012000000D0A9E08078554B9873FFF7BDFCA3E0B0
:10121000007801380B2800D99EE0FEF781FF069D7B
:101220002F579D9D9D9D5B606468E2784B490F2020
:101230000A73A37801AC4B73694618405B065B0FD9
:1012400001300133C87023703F2313400133CB803A
:1012500068466B46920901324A71CA880533CA78DA
:101260000630033122780088097822781B7880B212
:10127000C9B2D2B2DBB2FFF71FFC6DE0A378374CE6
:1012800004212370002B00D1023900220220FFF735
:101290006DFD2078FFF784FC2378002B05D000F04B
:1012A0008DF9A0802E48FFF76DFF217800224B1E9C
:1012B000994110000131FFF759FD217800224B1EA2
:1012C000994101200131FFF751FD45E0A278234B00
:1012D000DA7741E0E178A078FFF7D0FD3CE0A27832
:1012E0001E4B5A7038E0A2781C4B1A7434E0A27876
:1012F0001A4B9A7030E0007801380B282CD8FEF792
:101300000FFF060B2B122B152B2B1F2B2B24134BF4
:101310001A7BE2705B7B1AE0104B12495869FEF7AA
:1013200013FFA07014E00D4BDB7F10E00B4B1B6A2A
:101330001A0EA2701A0CE2701A0A2271637107E089
:10134000A078FFF7E3FDE07002E0044B9B78A37008
:1013500010212000FFF752FA13BDC046D80000202C
:10136000F20E002040420F00F0B58DB0012900D8E8
:10137000B6E04378023904930023871C8CB20293B1
:10138000029B049A934200D1AAE0002C00D1A7E06E
:1013900040213B780093631E9BB20193009B194050
:1013A00000D09DE007AD1422280002F080FA4D4BDA
:1013B0001B78002B00D193E02022009B134218D011
:1013C000019B032B00D88BE0BA787878FB78120267
:1013D00002431B0413431A003B797E1D1B06134373
:1013E00001221A4003928022DB086A732B60053CBD
:1013F0000FE0019B012B73D90121BB787A781B0286
:1014000013431BB29AB20B40039353092B60FE1C8B
:10141000033C0F25009BA4B21D40291C082D00D9B8
:10142000082107ABCAB21973A9B20591A14257D8D6
:101430000099C90608D4310008A802F02FFA059BCC
:101440007619E41AA4B203E040215A7B0A435A7386
:10145000039B002B06D0002C42D0327807AB013C16
:101460009A73A4B200F0AAF807AB1882ED22032108
:101470000020FFF77BFC00F0A1F8060007AD280074
:10148000FFF75AFB002811DAFFF7A0FB00F096F8EF
:101490001021144A801B137A80B20B4202D11249E8
:1014A0008842EBD901210B43137209E0039B002B07
:1014B00006D020226B7B280013436B73FFF7E0FDFF
:1014C000E1B28CB2002C0BD0019B019A1B1B9BB28A
:1014D0009A4205D30133FF18029B0133DBB24EE77A
:1014E0000DB0F0BDD80000208C5B00000122E02090
:1014F00000210A4B10B59A77094B800092181952B7
:10150000597008491A705A52FFF76AFA0648FFF7ED
:1015100003FB0648FFF708FB10BDC046D8000020BB
:10152000F20E00208203000081100008650E000802
:1015300010B500F043F80A4A0A4C1378002B09D082
:1015400093880949C31A9BB28B4203D9908020002B
:10155000FFF718FE2000FFF75BFDFFF737FB10BD1C
:10156000D8000020F20E00208C5B000002230C4A01
:1015700082B0D1691943D161D26913400193019BB3
:10158000084A094B9A621968084A0A4001211A6000
:101590001A681A601A680A431A6002B07047C04697
:1015A00000100240FF07000000040040FFFC0000A4
:1015B00010B501F0BDF880B210BD0000014B586AB3
:1015C00080B2704700040040704700000230C28FB4
:1015D000024B1343C38700207047C04680BF000002
:1015E0000230C28F024B1340C38700207047C046B1
:1015F0007F40000084B003930123029200220191F6
:10160000811CCB87831DCA87DA874A331A80C88F2B
:10161000024B0343CB87100004B0704780BF00002B
:10162000F7B501240D780300AD0045192888914ACB
:101630000240C878009403280DD8FEF771FD020718
:101640000A058020800003E0C02000E08020C00068
:10165000024300200090884C884E224392B22A8098
:101660000A7890001818058835402A43224392B220
:1016700002800D7B0A783000002D6AD14D781F0062
:10168000AC46CD88503701956546002D23D038886B
:10169000D2009A1812188020C00012180120019D53
:1016A000854315800A7892009A181088400604D560
:1016B000108806407248064316800A78C87892005F
:1016C0009B1870491A880A40202101283FD11443F1
:1016D000A2B21A80CBE03E88D200D218921901261D
:1016E000694D5219019DB54315803D880A78674FB1
:1016F000D200ED190F695219D218002F03D11688A4
:10170000634D35400DE03E2F04D87D083E40AD19B5
:10171000AD0208E01F267D0937407E427E41AD1BA9
:10172000AD025C4E354315800A7892009A181588F0
:101730006D0404D515882840574D284310800A7839
:1017400092009B181988554A0A40C02189014A40D5
:101750008AE01F0092009A18158850373540504E85
:10176000354315800D783A88ED00ED18AA188025CC
:101770000126ED0052190D89B54315800A783D8880
:10178000D200D2185219404D52194D89B5431580D7
:101790003C4D0A78AC4680254E789200ED019A18AF
:1017A000002E2DD116882E4204D016883A4D0640C0
:1017B000354315800D783B4EAD005D192A885206E1
:1017C00004D52A880240324392B22A800D78AD00B7
:1017D0005D192A8810400643B6B22E8008782F4D36
:1017E0008000181802882A40C025AD016A402243B3
:1017F00092B202800A78614692009B181A8832E001
:101800001788294E2F4204D0158805403543ADB2C4
:1018100015800A7892009A1815886D0604D51788E5
:10182000174D07403D4315800A7892009A18158895
:1018300028400643B6B216800A78C87892009A18F3
:10184000012805D06546108828402025684002E020
:10185000654610882840204380B210800A780F49DE
:1018600092009B181A880A401443A4B21C80009866
:10187000FEBDC0468F89FFFF8080FFFF8F8FFFFF77
:10188000C0800000BF8FFFFF0404000006040000BA
:10189000FF83FFFF0080FFFF80C000008FBFFFFFBE
:1018A00080810000C080FFFF80C0FFFF0A7BF0B591
:1018B0000B784F78424D002A1BD19B00C3181A8821
:1018C000002F0DD0520605D51C883E4A22403E4CC2
:1018D00022431A800B789B00C01804883B4B68E0B9
:1018E000520461D51C88374A2240394C22431A8061
:1018F0005AE080269B00334AF601C318002F2AD1F4
:101900001F88374204D01E88314F16403E431E8048
:101910000B78304E9B00C3181F887C0604D51F88A7
:1019200017403743BFB21F800B78284C9B00C31869
:101930001F883A40324392B21A800A78264E9200AB
:101940008218138833402B439BB213800B789B0083
:10195000C01803882DE01F88BC4664461F4F3442E0
:1019600004D01E8816403E43B6B21E800B789B0002
:10197000C3181E88740606D51E881640B4466446F1
:10198000114E26431E800B78104C9B00C3181E88F6
:1019900032401743BFB21F800B789B00C3181A88D0
:1019A00014402C43A4B21C800B789B00C018048800
:1019B000094B1C402543ADB205800020F0BDC04658
:1019C0008080FFFF8F8FFFFFC0800000BF8FFFFF71
:1019D00080C00000C080FFFF8FBFFFFF80C0FFFFFF
:1019E0000B784A789B000A49C018002A04D0028864
:1019F000084B1340102204E00388074A1A40802352
:101A00005B0153400B439BB2038000207047C046EC
:101A10008080FFFFBF8FFFFF8FBFFFFF0B7B10B5E5
:101A2000002B2ED10B784A789B00C318002A13D0C4
:101A30001A88520605D51C88134A2240134C2243AB
:101A40001A80CB78012B1CD00B789B00C018028821
:101A50000F4B1340202210E01A88520405D51C8831
:101A6000094A22400B4C22431A800B789B00C01875
:101A70000288094B1340C02292015340074A134386
:101A80000380002010BDC0468F8FFFFFC080000084
:101A9000BF8FFFFF80C000008FBFFFFF808000006E
:101AA000002902D180234C3003800020704780231E
:101AB000583002881B021343038000207047063011
:101AC000C08F80B270470020704730B58024E4009A
:101AD0001219013380185B08401A0D18002B07D02B
:101AE0004A780C78120222432A800231013BF4E743
:101AF00030BD0000F8B5050048780C008B690A6914
:101B0000097B012853D1934203D99B1AA361130087
:101B100001E00022A2612F009EB2503700290ED1B1
:101B2000E288330061692800FFF7CFFF23783A8805
:101B3000DB00EB189B18554A9B181E802FE022787B
:101B4000910069180988D200490607D53988AA1872
:101B500052184F4952181380628906E03988AA1832
:101B600052184A49521813802289330061692800AB
:101B7000FFF7ABFF62782378002A06D19B00EB18B1
:101B80001988444A0A40444907E0012A07D19B00CA
:101B9000EB1819883F4A0A4040490A431A802378C3
:101BA0009B00ED182A883E4B1340302266E093429A
:101BB00003D99B1AA361130001E00022A2612278DD
:101BC000002925D000281FD12900503109882F482D
:101BD000D20009185218AA18002B03D110883149D5
:101BE00001400EE03E2B05D8012059081840091885
:101BF000890208E01F201840464270415909091A1D
:101C0000890229480143118061782278002922D174
:101C10002900503109881E48D2000918521852195B
:101C2000002B05D111881F4B0B401F490B431CE0B3
:101C30003E2B05D8012059080340C918890208E045
:101C40001F205909034058424341C91A164B8902C3
:101C5000194311800AE0012908D12900503109886F
:101C6000D200521952180A495218138023789B0047
:101C7000ED182A880D4B1340C022920153400C4AA4
:101C8000002013439BB22B80F8BDC0460204000025
:101C9000060400008F8FFFFFC080000080C000009E
:101CA000BF8FFFFFFF83FFFF0080FFFF8FBFFFFF9E
:101CB0008080FFFFF0B580255C08ED0052192600FA
:101CC0000D008018471AEA19002E07D01288013E2D
:101CD00092B22A70120A6A700235F4E764000019A1
:101CE0000C19DB0701D503882370F0BDF0B50400A3
:101CF00087B00125002855D02C4D435DDBB2002B69
:101D000004D18A2292008354FEF73EFB032320680D
:101D10006355FFF765FC00230126180061688B42BC
:101D200010D25A01A218170029373E70013F3B70AC
:101D3000D386F8709063D0639A1C5201013310511E
:101D4000DBB2ECE700231800994212D95A01A2181D
:101D500016002A36FF363070FC32013E3370F070C8
:101D6000D06310641A000A32520101331051DBB201
:101D7000EAE723006A46103343CB43C203CB03C2D6
:101D8000A268E36861682068FFF734FC0023621DE5
:101D9000D377012262551D00E369934202D12000EE
:101DA00000F07CFB280007B0F0BDC046290200000F
:101DB00070B58A25AD00435D04000220012B09D0D7
:101DC000012320686355FFF772FE2068FFF7FEFBD2
:101DD0000020605570BD70B58A25AD00435D0400DC
:101DE0000220012B08D001236355631DD977206899
:101DF000FFF756FE0020605570BD70B50D00040061
:101E0000072049B228404001002906DA01002018C5
:101E1000283161182930012607E001000026293108
:101E20002018FF312A306118FF30067007200A6140
:101E30004A7805400D70CB70002A00D0CD81022B6E
:101E400001D100230B718A25AD00635D0220012BB7
:101E500006D0012320686355FFF7E2FB00206055A0
:101E600070BD0A00072349B2134070B55B0104003E
:101E7000002906DA1900C318283141182933012036
:101E800007E019002931FF31C318411800202A3317
:101E9000FF33187007238A251A400A70AD00635D6E
:101EA0000220012B06D0012320686355FFF7FEFCBA
:101EB0000020605570BDF8B5072421404C0106197B
:101EC0003700FC377B64330000252A332936FF3383
:101ED000FF36BD643A641D70317021002931FF3135
:101EE00041180068FFF706FE2800F8BD07231940D7
:101EF0000A31490140184068704770B507242140F5
:101F00004D014419236400262300E2630122666424
:101F1000293328341A7021702900283141180068AB
:101F2000FFF7E8FD300070BDF7B504000068FFF76B
:101F3000C6FD030413D42068FFF7C1FD430500D498
:101F400088E12368B84A0633D98F20000A40DA872F
:101F5000FEF755FA00212000FFF73DFF7AE18027C8
:101F60002068821DD38F1BB2002BE4DA0F26D18F9D
:101F700089B20E4000D0A8E0102319402AD102886F
:101F8000AA4B134080221202134322000380030055
:101F90002832127850331B88D2008018C018A44B06
:101FA000E26BC018038820009B059B0D6364D31867
:101FB000E363FEF713FA631DDA7F002AD0D0206CAA
:101FC0000028CDD18022D97F114322684C32118064
:101FD000D877C5E78026038836019BB21E4021D002
:101FE000030050331A8894235B00E35C8C21DB00F0
:101FF000C3189B188F4A89009B1822001B8829321E
:102000009B059B0DFF32D3616118D288FFF752FE0A
:102010002268894B118820000B403B431380FEF758
:10202000C9F99DE71BB2002B9ADA0288824B250082
:1020300013403B430380030050331A8894235B0012
:10204000E35C2935DB00C3189B187A4AFF359B18DF
:102050001B889B059B0DEB610DD0696900290AD097
:10206000EA88FFF727FE6B69EA6931009B186B610C
:102070002000FEF7A8F921686E4A0B0050331B8838
:102080002869CB189B18002803D118886B4A024096
:102090000EE03E2805D80125420828401218920279
:1020A00008E01F250540420968426841121A920261
:1020B000634802431A800A88624B1340C02292018F
:1020C0005340614A13430B804AE7B300C2180093A0
:1020D00013889BB200936B4600215B5E002B00DBF4
:1020E00075E01188544B0B403B4313807301E31898
:1020F0001A0001003532FF32157850310C3A002DAC
:1021000014D112780988D2008218521849495218FD
:102110001588AD05AD0D3AD01A00FC331900FE321A
:10212000128E2B00096CFFF7C5FD30E01278950088
:1021300045192D88D2000988821852186D0409D5D6
:102140003B4952181588AD05AD0D12D01A00FE326C
:10215000528E08E0374952181588AD05AD0D08D0EC
:102160001A00FE32928EFC3319002B00096CFFF727
:10217000A1FD7301E3182933FF331B7822689B000C
:10218000D3181988314A0A4031490A431A80730129
:10219000E1180800FC30826C019352198264026CD1
:1021A000436C52190264002B02D0C06B854208D2E6
:1021B0007301E3182933FF3319782000FEF703F980
:1021C00005E02931FF3109782000FFF774FE009BFC
:1021D0003B4200D1C4E62068B300C1180A88134B03
:1021E0007601134080221202A61913430B800300CC
:1021F0003100503328311A880B78DB00C3189B1844
:102200000B4A20009B181A88F36B9205920D72649A
:102210009A18336CF2630978002B02D1FEF7DEF8CE
:102220009EE6FFF76AFE9BE6FFFBFFFF0F8FFFFFB7
:1022300002040000060400008F0F0000FF83FFFF70
:102240000080FFFF8FBFFFFF808000008F8FFFFFA8
:10225000C08000002068FFF732FC430405D52368E6
:10226000484A0633D98F0A40DA872068FFF727FCEF
:10227000830405D52368444A0633D98F0A40DA8798
:102280002068FFF71CFCC3041CD50421236802331B
:10229000DA8F8A43DA87DA8F49188A43DA879823F4
:1022A0009B00E25C012A04D100212000E15400F0EF
:1022B00008F92000FEF7C2F82368344A0633D98FA4
:1022C0000A40DA872068FFF7FAFB030515D50821D5
:1022D0002068821CD38F0B43D387811DCD8F2C4B5D
:1022E0002B40CB870421D38F0B43D387FFF7E7FB2A
:1022F000C30402D42000FEF78FF82068FFF7DFFB4D
:102300008025284223D0982023688000991DCA8FF9
:10231000AA43CA87225C002A16D1991CCA8F7C3D29
:102320002A43CA87CA8F04352A43CA8701215433F6
:1023300021541A88F023134099229B089200A3503D
:10234000200000F0BEF802E02000FEF765F82068EB
:10235000FFF7B5FB830508D523680E4A0633D98FEE
:1023600020000A40DA87FEF743F82068FFF7A7FB52
:10237000C30505D52368084A0633D98F0A40DA8792
:10238000F7BDC046FFBFFFFFFFDFFFFFFFEFFFFF0F
:10239000FFF7FFFFFFFDFFFFFFFEFFFF70B504002B
:1023A000072563680D4001209D422BD84BB2002BBE
:1023B00007DA6B011900E318283129336118187006
:1023C00009E04B0119000022E31829312A33FF31BB
:1023D000FF3361181A7001238A268B700D70B600C6
:1023E000A25D02209A420DD0A3552068FFF7F8FAAB
:1023F000002D05D18C239B00E1182068FFF763FBBB
:102400000020A05570BD70B50F2304000A000B40DA
:10241000616801208B4226D8072351B213405B012B
:10242000002905DA1900E31828316118293307E07B
:10243000190000202931E318FF312A336118FF33D6
:102440001870072300258A261A408D700A70B6007E
:10245000A35D0220012B06D001232068A355FFF7BE
:10246000DDFA2800A55570BD0020704710B50C0698
:1024700004D5072421404901283102E049012931CE
:10248000FF314018002A02D10273C38004E0012208
:1024900003811B0C02734381002010BD9A2210B5EA
:1024A000012492000368010084500020083A8854F7
:1024B000022154331A8822431A801A880A431A8048
:1024C00010BD704730B51B4C89B010222100684602
:1024D00001F0E4F9210004AD10221031280001F0D0
:1024E000DDF90C22144843681A40082A08D00C2A47
:1024F00004D00020042A1BD0104819E0104817E02F
:102500000F226C46990C1140645CC16A00200A409D
:10251000A95CC0228025520213406D02AB4207D055
:10252000934201D1064800E00448FDF70DFE6043E8
:1025300009B030BD283900080010024000127A00AE
:10254000006CDC02F7B504000F00002801D1012067
:1025500076E001233B4D2A681A408A4203D3226861
:10256000930709D416E02A689A430A432A602A6826
:1025700013409942EBD1F2E7334B510704D5E020E9
:102580005968C00001435960F02059688143A06830
:1025900001435960D30706D401232968294A194009
:1025A0008F422FD334E06368274E012B03D132686A
:1025B00092030FD4CBE7022B03D13268920109D4E6
:1025C000C5E7032B03D1726BD20303D4BFE7326894
:1025D0009207BCD5032172688A431343736000F0ED
:1025E000A7F801900C2372681A4063689B009A4216
:1025F000D2D000F09DF8019BC01A144B9842F1D93B
:1026000003201DE011689943116012681A429ED19F
:1026100023680D4D5B0705D56A680D4B1340E268D2
:1026200013436B60FFF74EFF6B680A4A1B061B0FD4
:10263000D35CD840084B1860002000F039F8002027
:10264000FEBDC0460020024000100240881300007A
:10265000FFF8FFFF243A0008FC0000208021104B07
:1026600009051A690A431A6119690E4A0A401A6172
:10267000436802680C491A4383681A43C3681A43C3
:1026800003691B041A43094B5A601A6840690A40DF
:102690006021000202431A601A680A431A607047F8
:1026A00000100240FFFFFFF7FFC0FFFF006C00407B
:1026B00070B50500FA200D4B80001978FDF744FD38
:1026C0000B4B01001868FDF73FFD00F013F9040003
:1026D0000120002C09D1032D07D80238220029003F
:1026E00000F0D4F82000034B1D6070BD04010020F1
:1026F000FC000020000100201021064A10B51368DC
:1027000000200B431360FFF7D3FFFDF7A9FD002066
:1027100010BDC04600200240034A044913680978EE
:10272000CB1813607047C046F81500200401002044
:10273000014B18687047C046F8150020F0B50B68CB
:1027400087B0029300230191029ADA4000D191E010
:1027500001229A4003920399029A0A40009200D102
:1027600086E0019A1021526816008E43022E0ED187
:1027700007251D40AD000139A940DC08A40004195B
:10278000276A8F4301990969A9400F4327620324EF
:102790005F00BC400321E4431140B9400568013E9D
:1027A00025400D430560012E0FD801998568CE683C
:1027B0002540BE40354385604568039916098D4321
:1027C00001210E409E4035434560C56801992C406B
:1027D0008D688021BD4049052C43C4600A4247D022
:1027E0000121254C0327A5691F400D43A5610F2535
:1027F000A469BF000C400594059C20499C08A400D6
:102800006418BD409021A668C905AE4300258842E2
:1028100008D01B490135884204D01A490435884242
:1028200000D1033DBD40009935430E00A560164C14
:10283000CD4327683E43D10301D43E002E4026609D
:102840006768009E3E43910301D43E002E406660BF
:10285000A768009E3E43D10201D43E002E40A660F0
:10286000E668009F3743920201D42E403700E760AC
:10287000013369E707B0F0BD0010024000000140DD
:1028800000040048000800480004014070B58901B8
:10289000002815DB8408154B0326A400E418FF2349
:1028A0003040B0401E00C0258640AD006259B243A2
:1028B00016000A001A40824033001343635113E0AC
:1028C0000F23C0B20340083B094A9B0803249B0026
:1028D0009B18FF222040A04014000A408440824000
:1028E000DD69A5432A43DA6170BDC04600E100E01E
:1028F00000ED00E0094A431E012093420DD8C0209C
:10290000074A084953600B6A00061B021B0A03436F
:102910000B6200200723906013607047FFFFFF00E9
:1029200010E000E000ED00E07047F8B50400012081
:10293000002C7CD02518EB7F002B02D12000FFF764
:10294000F3FF022622681368B3431360FFF7F0FE1B
:10295000070023685A68324205D0FFF7E9FEC01B22
:102960000A28F6D90FE001261A6832431A60FFF7E9
:10297000DFFE070023685A6832420DD1FFF7D8FE08
:10298000C01B0A28F6D98022636A9202134363624D
:1029900005230120EB774AE0227E8021012A02D123
:1029A0001A680A4301E01A688A431A60627E40216D
:1029B000012A02D11A680A4301E01A688A431A60A0
:1029C000A27E2021012A02D11A680A4301E01A6876
:1029D0008A431A60E27E1021012A02D11A688A43D2
:1029E00001E01A680A431A60227F0821012A02D1F5
:1029F0001A680A4301E01A688A431A60627F042158
:102A0000012A02D11A680A4301E01A688A431A604F
:102A1000E168A26800200A4321690A4361690A4308
:102A2000616801390A43DA6101236062EB77F8BD1E
:102A3000704770B5431CDB7F013B012B62D88024BB
:102A400003680120A4001A59872602431A514A69D3
:102A5000E23CFF3C1440A040C443B6009D592540D1
:102A60009D51CD69002D10D1103E9D59D2002540B9
:102A70009D51CD689A182E048D8835439026B60056
:102A800095518D682E040D8812E0012D14D18326F6
:102A9000B6009D59D20005439D510D689A182E0429
:102AA0008D8835439026B60095518D682E048D890A
:102AB00035439126B600955181228D699200002DF3
:102AC00002D19D58254001E09D5805439D50852227
:102AD0000D699200002D02D19D582C4001E09C58B8
:102AE00004439C500A6A012A04D1872189005A585C
:102AF000104358508021012089005A5882435A506F
:102B0000002005E08022436AD20213434362012081
:102B100070BDF8B5461CF57F0400EDB2012D1BD148
:102B200002230268F3771368AB431360FFF700FEDC
:102B300007002368586828400CD0FFF7F9FDC01B38
:102B40000A28F6D98022636A92021343636205233E
:102B5000F37706E0606205E08022436A12031343C4
:102B600043620120F8BDF7B5461CF37F0400022B39
:102B700023D10125026813682B431360FFF7D8FDAA
:102B800007000195236801995A6801250A420DD171
:102B9000FFF7CEFDC01B0A28F4D98022636A920297
:102BA0001343636205232800F3770CE002211A68BF
:102BB00000208A431A60F57705E08022436A5203B9
:102BC000134343620120FEBD10B504000120002C18
:102BD0000FD02000FFF7C7FF2000FFF729FF80215B
:102BE00000202268090213680B43136060620134FD
:102BF000E07710BDF0B5441CE67F0568013EAC6887
:102C0000012E53D866014DD5A401A40F032C03D186
:102C10008022436A12044CE00120A040186020008A
:102C20008F68CB681830002F02D10E68760502E05D
:102C30004E683B43F600334300014351C223086909
:102C400024012E195B00F050097D012904D1802058
:102C5000F15840000143F1505179177993790902F5
:102C600039431B040B431900D3792C191B060B4362
:102C700021008D31FF310B6051781578937809026E
:102C800029431B040B431900D378C0221B060B43B6
:102C900001218934FF3423605200B35800200B43D4
:102CA000B35009E08022436A920302E08022436A23
:102CB000D202134343620120F0BD10B5421CD27F03
:102CC0000300013A012A18D8CA0704D580240068F5
:102CD0008268224382608A0705D58024186824020E
:102CE00082682243826000204A070CD580211A683E
:102CF000090493680B43936005E08021426AC9028E
:102D00000A434262012010BDF0B5441CE47F013C3F
:102D1000012C7CD805680324002901D1EE6800E06D
:102D20002E69264203D18022436A920372E0D8269C
:102D30000C0176002C19A759BC460427664637407B
:102D4000D82697607600002F03D1A7597F0D176012
:102D500002E0A759FF085760A75902263E40D660F7
:102D6000DA267600A659B4460F2667463E4016611D
:102D7000DA267600A659360AF6B29661DA26760089
:102D8000A459240C54610A01AD18B935FF352C68DB
:102D90001C700468A418B934FF342468240A5C70D9
:102DA0000468A418B934FF342468240C9C700468A7
:102DB000A418B934FF342468240EDC700468A41805
:102DC000BD34FF3424681C710468A418BD34FF347A
:102DD0002468240A5C710468A418BD34FF34246894
:102DE000240C9C710468A218BD32FF321268120EC6
:102DF000DA7103682022002904D1D8680243DA601E
:102E000008000AE0196900200A431A6105E08022DF
:102E1000436AD202134343620120F0BD431CDB7FAF
:102E2000013B012B05D8036800205A691143596101
:102E300005E08022436AD2021343436201207047B7
:102E4000704770477047F0B5036885B05E695A688F
:102E50009F680192DA68050002921A6900240392C1
:102E60009A6900920122164245D0174211D09A6009
:102E7000BB0702D5FDF70CFF0BE07B0704D43B0733
:102E800005D4FFF7DDFF04E08024240101E0802465
:102E9000640180235B001F4215D02A689360BB0544
:102EA00003D52800FDF7F0FE0DE07B0502D5802359
:102EB0009B0103E03B0503D58023DB011C4302E0BB
:102EC0002800FFF7BEFF80235B021F4213D02A6851
:102ED0009360BA0303D52800FDF7CEFE0BE07A031A
:102EE00002D580231B0201E03A0301D51C4302E016
:102EF0002800FFF7A7FF330708D51023029A1A42CC
:102F000004D08022920014432A68D360730708D546
:102F10000823029A1A4204D02A682800D360FDF7D9
:102F2000C3FEB30706D52B68DB689B0702D02800D9
:102F3000FDF798FE730608D51023039A1A4204D0B1
:102F40008022D20014432A681361B30608D50823EF
:102F5000039A1A4204D02A6828001361FDF79CFEE8
:102F6000F30606D52B681B699B0702D02800FDF7E6
:102F70007EFEB30308D51023019A1A4204D02A68B2
:102F800028005360FDF794FEF30308D50823019A47
:102F90001A4204D02A6828005360FDF78AFE3304E1
:102FA0003ED5019B2A685B0738D5F30504D501237C
:102FB0000099194200D01C43B30504D5022300999F
:102FC000194200D01C43730504D50423009919420B
:102FD00000D01C43330521D57023009919400B1EE6
:102FE0001CD030290FD005D810290AD0202911D1A2
:102FF00010230EE0502908D0602908D0402909D1BB
:1030000007E0082305E0202303E0802301E080237C
:103010005B001C43702193698B43936104235360CD
:10302000002C05D06B6A28001C436C62FDF742FE41
:1030300005B0F0BD406A7047431CDB7F013B012BAC
:1030400003D800234362180005E08022436AD202BD
:10305000134343620120704710B50223002813D0A8
:10306000AD239B00C458002C01D00024C45000297B
:1030700002D0AC239B00C150A72301219B00C15467
:103080000270FDF7EFF90023180010BD022300299C
:1030900003D0AD239B00C15000231800704710B52A
:1030A000FDF722FA002010BDAD239B00C35810B5D8
:1030B000002B01D1022003E01B6898470028F9D1BA
:1030C00010BDAD2310B59B00C3585B689847002026
:1030D00010BD0000AA239B0070B5C518040028008D
:1030E00000F023F9A52301221F209B00E250104B82
:1030F000E25A163BE2501033E15C0840032810D836
:103100002900FDF70DF80A02060A200000F06EFA09
:103110000CE0200000F095FA08E0200000F024F90F
:1031200004E07F2320009943FDF720FA002070BDC2
:10313000AE02000070B50400150000292ED1A523B1
:103140009B00C258032A22D102005532FF32D368B5
:10315000106983420AD91B1AD36082B2984200D9FF
:103160009AB22900200000F019FB24E0AD239B0057
:10317000E3581B69002B06D0A7229200A25C032A09
:1031800001D120009847200000F010FB13E00D0053
:10319000052A11D1E150FDF7E9F90DE0AD239B00BF
:1031A000C35802259B69002B06D0A7229200825C9F
:1031B000032A01D198470025280070BDF8B50D00FD
:1031C00004001100002D4BD1A5239B00C358022BF6
:1031D00038D1026A466AB24205D9921B026292B2A3
:1031E00000F0D4FA12E0C76931003800FDF732F878
:1031F0000D1E12D1BE4210D8A626B600A3599F427A
:103200000BD20A00200000F0C1FAA5512B002A00C1
:1032100029002000FDF7FCF91AE0AD239B00E358DC
:10322000DB68002B06D0A7229200A25C032A01D102
:103230002000984780212000FDF798F9200000F039
:10324000C1FA05E00422934302D18021FDF78EF9F3
:10325000A8239B00E25C0020012A11D1E0540FE07A
:10326000AD239B00C35802205B69002B08D0A72226
:103270009200A25C032A03D1290020009847002075
:10328000F8BD002270B5040011004023FDF73CF9A1
:10329000230001254026FC33DD659E668021330036
:1032A00000222000FDF730F9A72300219B00A56133
:1032B0006662E554083BE15010336160E15014331D
:1032C000E3588B4205D0AD239B00E35820005B6898
:1032D0009847002070BD017400207047A7239B0011
:1032E000C15C034A81540422C25400207047C04686
:1032F0009D020000A7239B00C25C042A02D1024A5F
:10330000825CC254002070479D020000A72310B5C4
:103310009B00C35C032B06D1AD239B00C358DB6924
:10332000002B00D09847002010BD0B7803704B781D
:103330004370CB788A781B02D31843804B790A7983
:103340001B02D3188380CB798A791B02D318C380E0
:10335000704710B504008021FDF708F90021200016
:10336000FDF704F910BD00006023F7B50A780400EA
:103370000D001340202B05D0402B03D0002B00D094
:1033800016E107E0AD239B00E35829009B6820006D
:10339000984725E14878092800D909E1FCF7CAFED9
:1033A000D700F7000801F00008016E000A000801CC
:1033B000C4008F006B469E1D002333804988080A95
:1033C0000138062800D9F3E0FCF7AAFE040A17F238
:1033D000F2404B00AC239B00E358207C1B6827E0A5
:1033E000AD23227C9B00E358002A01D19B6A00E0B8
:1033F000DB6A3000984702233EE0C9B205291AD89B
:10340000AC2308009B00E358FCF78AFE030507097C
:103410000B0D5B6808E09B6806E0DB6804E01B6955
:1034200002E05B6900E09B69002B00D1C0E0207CDA
:1034300031009847C1E0AD239B00E3589B6B002B04
:1034400000D1B5E0320020009847B6E0237C002B85
:1034500000D0ADE0AD239B00E35830005B6B984794
:10346000ABE0237C002B00D0A2E0AD239B00E3580F
:1034700030001B6B9847072343709EE08B88002B1E
:1034800000D095E0CB88002B00D091E04F887F2FB3
:1034900000D98DE0A726B600A35DF9B2032B00D1B9
:1034A00086E0504B2000E154FDF792F8200000F038
:1034B0007DF90223002F00D10123A35590E08978E4
:1034C000494E3170012973D8A7239B00E25C022A80
:1034D00002D0032A07D01EE0002965D00121032273
:1034E0006160E25411E0002906D102222000E2547A
:1034F0006160FFF7E6FD57E06168012954D0C9B269
:103500002000FFF7DEFD317861602000FFF7CCFD81
:10351000022849D14CE029002000FFF71AFF31783A
:103520002000FFF7CEFD5BE0CA88012A40D1A72327
:103530009B00E35C002B3BD0022B03D9211D032B06
:103540001AD035E000232100A360083114E0A7233E
:103550009B00E35C013B022B2AD8CB88022B27D1AE
:10356000013BE360A9239B00E358002B01D0032318
:10357000E360210002220C31200000F0F9F82FE076
:103580004B88012B2CD1A9229200A3500CE0A72339
:103590009B00E35C013B022B0AD84B88012B1FD117
:1035A000A92300229B00E250200000F0FFF817E062
:1035B00029002000FFF7CDFE12E03388002B0CD04D
:1035C000EA88002A09D0191C934200D9111C8AB23A
:1035D00031800100200000F0CBF8EB88002BE3D015
:1035E0000020FEBD9E020000FC150020602370B587
:1035F0000A7804000D001340202B03D0402B01D08B
:10360000002B18D1A7239B00E35C013B022B12D8AF
:103610002B79012B0FD8AD239B00E35829009B6821
:1036200020009847EB88002B09D1002807D1200003
:1036300000F0BCF803E029002000FFF78AFE00201C
:1036400070BD602370B50A7804001340202B05D0AC
:10365000402B03D0002B00D085E006E0AD239B007B
:10366000E35820009B68984780E08D884B78EAB249
:10367000012B19D0002B33D0032B74D1A7239B002F
:10368000C35C022B18D0032B6DD14B88002B07D1C4
:10369000530605D0CB88002B02D11100FCF766FF42
:1036A000200000F083F861E0A7239B00C35C022B9D
:1036B00002D0032B0BD056E0530654D0110020004B
:1036C000FCF754FF80212000FCF750FF4EE04B88B0
:1036D000002B4BD15306E3D01100FCF757FFDFE777
:1036E000A7239B00C35C022B02D0032B0DD03AE032
:1036F000530638D101005531FF312B0601D5413930
:10370000FF39002302220B6029E00F23142013400D
:103710004343E3182D0608D59B69002B23D07F2552
:10372000154068432018143009E0FC33DB6D002B92
:1037300019D07F251540684320185530FF307F236E
:103740000500134006D011002000FCF72FFF0028D1
:1037500002D001232B6000E0286002222900200013
:1037600000F006F802E02000FFF7F3FD002070BD36
:103770001300A52210B50224920084500A00C361F0
:1037800003620021FCF734FF002010BD10B51300C8
:103790000A000021FCF72CFF002010BD10B513001B
:1037A0000A000021FCF734FF002010BDA5230422ED
:1037B0009B0010B5C25000231A001900FCF718FF37
:1037C000002010BDA52305229B0010B5C250002388
:1037D0001A001900FCF71CFF002010BD1348854695
:1037E00004200168090E1F22914205D110480121D1
:1037F00001601048002101600F481049104A002361
:1038000002E0D458C4500433C4188C42F9D30D4A92
:103810000D4C002301E013600432A242FBD3FDF7FC
:10382000D3FE00F015F8FCF78FFDFEE7001800202E
:103830001810024000000140000000200801002094
:103840003C3A00080801002000160020FEE70000B6
:103850000E4B70B500251E000D4CE41AA410A542B5
:1038600004D0AB00F35898470135F8E700F028F88A
:10387000084B00251E00084CE41AA410A54204D0F1
:10388000AB00F35898470135F8E770BD343A0008AB
:10389000343A0008343A0008383A0008002310B5DA
:1038A0009A4203D0CC5CC4540133F9E710BD030045
:1038B0008218934202D019700133FAE77047000072
:1038C000F8B5C046F8BC08BC9E467047F8B5C0467F
:0838D000F8BC08BC9E467047DD
:1038D80000010000020000000000000003000000DA
:1038E80004000000000200000200000000000000C8
:1038F80003000000040000000100000001000000B7
:1039080000000000010000000000000002000000AC
:10391800010000000000000001000000000000009D
:1039280002030405060708090A0B0C0D0E0F1010F8
:103938000102030405060708090A0B0C0D0E0F10F7
:103948000002010212035800430041004E002D00FE
:103958005500530042000000FE030000320320001F
:10396800200020002000200020002000200020004F
:10397800200020002000200020002000200020003F
:10398800200020002000200020002000200000004F
:103998000A060001000000400100000008040008B9
:1039A80007000402E007010000000000000000001A
:1039B800000010000000200000003000000040005F
:1039C80000005000000060000000700000000000CF
:1039D80000000100000002000000030000000400D5
:1039E80000000500000006000000070000000800B5
:1039F8000000090000000A0000000B0000000C0095
:103A080000000D0000000E0000000F000000000084
:103A18000000000100000002000000030000000098
:0C3A28000000000001020304060708096A
:043A3400E90000089D
:043A3800C1000008C1
:103A3C00410600084D060008590600085906000802
:103A4C0000000000650600080000000004030904E3
:103A5C001201000100000040720C0C00FF540A041B
:103A6C00000100000D070008C106000889080008C5
:103A7C000000000071060008750600089507000894
:103A8C00000000000000000000000000F10700082A
:103A9C00E507000895060008A1060008AD06000819
:103AAC0009022E00010100806409040000040000DA
:103ABC00000007058102100000070501021000003C
:103ACC0007058202400000070502024000000000CA
:103ADC000064004000000000000000000000000036
:103AEC0000000000000000000000000000000000CA
:103AFC000000000000000000008200007612002090
:103B0C008003000000000000000000000000000026
:103B1C000000000000000000000000000024F40081
:103B2C0000000000000000FFFFFFFFFF00127A0002
:083B3C0004000000010000007C
:04000005080037DDDB
:00000001FF
