:020000040800F2
:100000006814002049010008EB1F0008E91F0008E0
:1000100000000000000000000000000000000000E0
:100020000000000000000000000000005501000872
:10003000000000000000000057010008ED1F00084C
:100040005B0100085B0100085B0100085B01000820
:100050005B0100085B0100085B0100085B01000810
:100060005B0100085B0100085B0100085B01000800
:100070005B0100085B0100085B0100085B010008F0
:100080005B0100085B0100085B0100085B010008E0
:100090005B0100085B0100085B0100085B010008D0
:1000A0005B0100085B0100085B0100085B010008C0
:1000B0005B0100085B01000889050008053600089F
:1000C00000F002F800F030F80CA030C8083824180E
:1000D0002D18671EA246AB4654465D46AC4201D180
:1000E00000F022F87E460F3EB6460FCC0126334282
:1000F00000D0FB1A3343A246AB4618472440000009
:10010000444000000023002400250026103A01D3BB
:1001100078C1FBD8520700D330C100D50B607047BF
:100120001FB51FBD10B510BD00F049F91146FFF70E
:10013000F7FF03F005FD00F061F903B4FFF7F2FFEC
:1001400003BC00F067F900000748804707480047F4
:10015000FEE7FEE7FEE7FEE7FEE7FEE704480549A7
:10016000054A064B70470000F91F0008C10000084F
:10017000680E00206814002068100020681000201D
:1001800001E004C0091F0429FBD28B0701D50280BE
:10019000801CC90700D00270704700290BD0C3072C
:1001A00002D00270401C491E022904D3830702D5E5
:1001B0000280801C891EE3E70022EEE70022DFE7D1
:1001C000002203098B4273D3030A8B4258D3030BDB
:1001D0008B423CD3030C8B4221D312E003460B43EA
:1001E0007FD4002243088B4274D303098B425FD330
:1001F000030A8B4244D3030B8B4228D3030C8B425C
:100200000DD30902FF2212BA030C8B4202D3121241
:10021000090265D0030B8B4219D300E0090AC30B16
:100220008B4201D3CB03C01A5241830B8B4201D3C3
:100230008B03C01A5241430B8B4201D34B03C01AAC
:100240005241030B8B4201D30B03C01A5241C30A24
:100250008B4201D3CB02C01A5241830A8B4201D395
:100260008B02C01A5241430A8B4201D34B02C01A7F
:100270005241030A8B4201D30B02C01A5241CDD224
:10028000C3098B4201D3CB01C01A524183098B426F
:1002900001D38B01C01A524143098B4201D34B0158
:1002A000C01A524103098B4201D30B01C01A5241BB
:1002B000C3088B4201D3CB00C01A524183088B4242
:1002C00001D38B00C01A524143088B4201D34B002B
:1002D000C01A5241411A00D201465241104670479D
:1002E0005DE0CA0F00D04942031000D340425340A2
:1002F0009C46002203098B422DD3030A8B4212D362
:100300008901FC2212BA030A8B420CD38901921193
:100310008B4208D3890192118B4204D389013AD0D0
:10032000921100E08909C3098B4201D3CB01C01AA5
:10033000524183098B4201D38B01C01A52414309B8
:100340008B4201D34B01C01A524103098B4201D3A6
:100350000B01C01A5241C3088B4201D3CB00C01A13
:10036000524183088B4201D38B00C01A5241D9D22B
:1003700043088B4201D34B00C01A5241411A00D2AC
:1003800001465241104663465B1001D34042002BA8
:1003900000D54942704763465B1000D3404201B527
:1003A0000449002802DC491C084000E00846C04619
:1003B000C04602BDFFFFFF7F70477047704775461C
:1003C00000F024F8AE46050069465346C008C00058
:1003D000854618B020B5FFF7C1FE60BCB6460026C2
:1003E0000027C0C5C0C5C0C5C0C5C0C5C0C5C0C543
:1003F000C0C5403D490849008D46704710B50446C8
:10040000C046C0462046FFF798FE10BD0048704722
:100410006001002001491820ABBEFEE72600020063
:10042000704770B58C180578401C6B075B0F01D1C5
:100430000378401C2A1106D10278401C03E006789C
:10044000401C0E70491C5B1EF9D12B0705D40023FC
:10045000521E0DD40B70491CFAE70378401CCB1ACE
:10046000921C03E01D780D70491C5B1C521EF9D5CF
:10047000A142D8D3002070BD21280AD1082088715C
:10048000002048710871C87001228A70C2224A7027
:10049000087000207047002070470000B0B5384D4C
:1004A000384900242846224601F0B5FE3320C0001A
:1004B0001E49085C80010918284601F0A6FE204666
:1004C000B0BDC046F0B581B00D463320C700174E11
:1004D000F05D401C06242146FFF772FEFF209A3093
:1004E000305C814204D1052003F05AFA01240FE068
:1004F000F05D8000301829680322D2018150F05D40
:10050000401C0B494143890C4C43001BF05500240F
:10051000F05D800131181A4D284601F076FE28461C
:1005200001F05BFE204601B0F0BDC046E0080020AF
:10053000ABAA000010B50A465721C900104B595804
:10054000496D002905D00124204603F029FA2046F0
:1005500010BD402A01D9002010BD002A07D009494A
:10056000134604780C70401C491C5B1EF9D1044CE6
:100570000449204601F04FFE204601F0C6FE10BDA2
:10058000940300209B0A002080B503F0A3F800F03C
:100590006FF980BD70B52024045D661E0568AC68E7
:1005A000012E0AD8E600760F0BD0A401A60F032E69
:1005B0000BD10121CC05243042E001218C042430F0
:1005C0003EE001214C0524303AE001242046B040B1
:1005D00018608B68002B03D04868C000184301E006
:1005E000086840053301EB18CD6805430320C001BE
:1005F0001D5018180D694560097D012905D1011D9F
:1006000001252D020E682E430E60D17909069579D9
:100610002D04691855792D02491915794919632551
:10062000AD005951D178090695782D04691855788F
:100630002D024919127889183122D20099500021CF
:10064000026822430260084670BDF0B584B00246DD
:10065000012015682023D35C5B1E012B28D84002A3
:10066000281803680122134303604E691F24344095
:1006700002921346A340C4699C43C461DC430394C3
:10068000CF69012F1AD0002F33D1C768039C2740B0
:10069000C760F700EC1901948C88CF683F04E41917
:1006A00000940927BF01019C009AE2510F4617E010
:1006B0008104536A0B43536204B0F0BDC4681C4309
:1006C000C460F4002C1901948F880C6824043C1930
:1006D00000940927BF01019C009AE2510F460C3794
:1006E000F4002C193D888E683604AD199126B600A9
:1006F000A55145688C69002C01D01D4301E0039C85
:100700002540456045690C69002C01D01D4301E07E
:10071000039C25404561096A012902D1C169194339
:10072000C1610168029A91430160002004B0F0BDEC
:1007300070472022825C521E012A03D8002903D070
:10074000102102E0002070470C210068415803206E
:1007500008407047F0B582B02024055D6D1E012D64
:1007600009D8056800290AD02D69AD070AD12430BF
:1007700001214B0562E001218B0424305EE0ED682D
:10078000AD0758D0019400910D0101684E191B214D
:100790000F01F15904240C409460F119F759002C11
:1007A00002D17C0D146001E0FC0854600968022449
:1007B0000C40D4606D21890074580F2727401761C1
:1007C0007458240AE4B294617158090C51613721BC
:1007D000C90072581A70026852195258120A5A7097
:1007E000026852195258120C9A70026852195158E4
:1007F000090ED970016849196F2292008958197140
:10080000016849198958090A5971016849198958B3
:10081000090C9971016849198958090ED971006844
:100820000099002903D010300021019B06E00C3014
:100830000021019B02E0243001214B0502681A438C
:100840000260084602B0F0BD2021415C491E01292A
:100850000CD8006881684901C90F82681201D20F63
:1008600051188068C000C00F0818704700207047FA
:10087000F0B58BB0069000684669416809918468BC
:10088000C56801690791012779020191F903029175
:10089000390405917904039181690091F10703D12D
:1008A00000200890069C4DE000210891E1070ED041
:1008B0008760A00708D4600705991DD4200720D4BD
:1008C000069800F0DCF902E0069800F0D9F90599E5
:1008D000E0051ED53A02069801688A6001990C422B
:1008E00007D160050BD420050ED4069800F0C9F995
:1008F0000EE000F0C7F90BE0F8020890E8E7780393
:1009000003E038030890E3E7B80308990918089151
:1009100005990C4201D1069C14E0069A106881608A
:10092000039804420AD1600300D5CCE0200300D52F
:10093000CDE0069C204600F0A6F903E010461446E0
:1009400000F0A2F9102328461840414241410822F4
:1009500030460A921040424242410A4305D1206883
:10096000C36008980199084308900A9805406842B6
:1009700068417107394600D501460029089D049356
:1009800006D120680A99C160204600F041F9049B15
:10099000B00707D52068C068800703D0204600F064
:1009A0003CF9049B07991940484248417106394671
:1009B00000D50146002904D120680361012080028E
:1009C00005430A980799014048424841B106394613
:1009D00004D4002905D0F0060CD413E00146002908
:1009E000F9D120680A990161204600F017F9049BAB
:1009F000F00607D520680069800703D0204600F084
:100A00000EF9049B099919404842484103990E4246
:100A1000394600D00146002904D1206843602046B1
:100A200000F0FEF809990A980140484248410599AA
:100A30000E42394600D00146002905D120680A99A6
:100A40004160204600F021F90298064251D00998F1
:100A500040074BD50420009B1A46089002405142A3
:100A600051417205384600D50846099028460222B1
:100A70001C46144061426141019C26423C4600D024
:100A80000C46390235460D402D0A1D4028430546C7
:100A9000002C00D11543069C0998002801D1089824
:100AA0000543300522D5702003401FD0103B1A09A2
:100AB000052A17D87A44127952009744020B0D0F79
:100AC00011120A990DE0089802990843E9E608987E
:100AD0000843E6E6049904E0202102E0402100E01A
:100AE00080210D4321688A6982438A61206804213C
:100AF0004160002D05D0606A284360622046FFF700
:100B000017FE0BB0F0BDF0B581B000281BD0044635
:100B10002027C05D002802D1204600F078F8264644
:100B200020362068016802229143016000F082F9BA
:100B3000054620684168890708D500F07BF9401B0D
:100B40000B28F6D313E0012001B0F0BD01680122AB
:100B500000921143016000F06DF90546206841687C
:100B6000C9070BD100F066F9401B0B28F6D3012012
:100B70004104626A0A436262052145E0217E491E02
:100B80004A424A41D101026880239A4351180160C8
:100B9000617E491E4A424A419101026840239A43BC
:100BA00051180160A17E491E4A424A415101026822
:100BB000BA4351180160E17E491E4A1E9141090164
:100BC000026810239A4351180160217F491E4A424E
:100BD0004A41D100026808239A4351180160617F9D
:100BE000491E4A424A419100026804239A4351181F
:100BF0000160271DAECF13432B433B43491E1943CE
:100C0000C161002060620099317001B0F0BD704791
:100C100080B5032002F0C4FE80BD70477047704766
:100C20007047F0B581B004462020205C01281BD11C
:100C30002746203702203870206801680125A94323
:100C4000016000F0F7F8064620684068C00711D040
:100C500000F0F0F8801B0B28F6D36804616A0143AA
:100C600061620520387007E00125E804616A0143EC
:100C7000616201E000256562284601B0F0BD704761
:100C8000704770477047704770477047B0B504466B
:100C900000F0D0F80546601C02D0844800780419A2
:100CA00000F0C8F8401BA042FAD3B0BDF0B58AB03E
:100CB0000F4605905649884201D0052000E00420E7
:100CC0003B68002B00D1A1E01721C906059A5218F4
:100CD0000A21CA410092042A00D300900124002571
:100CE0000895039406970CE01943F1603B68184699
:100CF000E040AD1C0899091D0891641C002800D132
:100D000084E0601E039E079086403340EED004943A
:100D100001937868102101431229059B10D11C20F2
:100D2000089908400F218140079AD708BF00DF19B2
:100D30003A6A8A4306990969814011433962069FDC
:100D400003242046A8401A68824379680F4602941B
:100D50002740AF4017431F60C043122914D8012217
:100D60008A402E4B1A420FD0059B9A680240069F7C
:100D7000FF68AF4017439F60CA06D20F079FBA4073
:100D80005F68B74317435F60059BDA680240069FC0
:100D9000B868A8401043D860C800049CA6D51E4A75
:100DA00010680121084310601068084009900C2069
:100DB000089908400F218140079B029A9343099AA2
:100DC000174E9A598A430099814011439951114E07
:100DD00031687868C20302D5019B194301E0019B89
:100DE000994331607168820301D5194300E099434A
:100DF0007160B168C20201D5194300E09943B16046
:100E0000F168800200D56FE799436EE70AB0F0BD44
:100E100000100048000401401810024006000600BF
:100E200008000140002A02D0182281507047282271
:100E300081507047054800687047C0461B480078DD
:100E400002490A68101808607047C046600E00200A
:100E500010B50648016810220A43026000242046AB
:100E600000F006F800F028F8204610BD00200240EF
:100E7000B0B504467D20C0000C49097803F03CF869
:100E800001460B48006803F037F801F08FF80125A0
:100E9000032C09D8002807D10025E84321462A461B
:100EA00000F016F8034804602846B0BD5801002041
:100EB0001C0000205C010020704700001F21014041
:100EC00001208840014908607047C04600E100E009
:100ED000002805D40322034693430B4A9A1806E0E0
:100EE0000F220240083A03239A43084BD218800786
:100EF000C00E8901C9B28140FF2383401068984326
:100F0000084310607047C04600E400E01CED00E0BC
:100F1000F0B502685423D15A01242143D152132140
:100F20004D0100214155D65A02273743D752401967
:100F300084600846F0BD704710B50C060CD5490713
:100F4000090E40182830002A0DD0038101210173B9
:100F5000190C4181002010BD490140182521C9000C
:100F60004018002AF1D1C38000210173002010BD78
:100F700080B52722120183584A018018C26B184697
:100F800001F010FB80BD80B52722120183584A0171
:100F900080184F2292008258184601F06BFB80BDEA
:100FA00010B507220A40090609D451014118FF2350
:100FB0002A330024CC542523DB00C91805E0510155
:100FC000411829230124CC5428310A704522D2002B
:100FD000835C012B01D1022010BD841801222270F4
:100FE000006802F0AFF80020207010BDB0B50F22ED
:100FF0000A4043689A4201D90120B0BD07220A4045
:10100000090609D451014118FF232A330024CC5486
:101010002523DB00C91805E05101411829230124CB
:10102000CC54283100248C700A704522D200835C95
:10103000012B01D10220B0BD851801222A70006861
:1010400002F0FCF82C702046B0BD4907090E40188C
:10105000512189004058704770B507240C4009069B
:1010600009D461014118FF252A3500264E55252552
:10107000ED00491905E061014118292501264E5569
:1010800028310A61CB700C704A78002A00D0CC81DC
:10109000022B01D100220A714522D200835C012B70
:1010A00001D1022070BD841801222270006801F075
:1010B00045FF0020207070BDB0B507240C406101D1
:1010C00041182525ED004C55491900240D461435CD
:1010D0001CC54C70006802F001F92046B0BD70B527
:1010E000044607250D404068854201D9012070BDA6
:1010F000080609D448012018FF212A310022425451
:101100002521C900411805E0680121182920012284
:101110000A5428310D70012088704522D200A35C4A
:10112000012B01D1022070BDA6183070206802F09A
:10113000B9F8002D05D1232000012118206802F004
:101140007BF80020307070BDB0B507240C40610101
:10115000411828254C55283100240D4614351CC54E
:1011600001224A70006802F0B9F82046B0BD0000C4
:10117000F0B58BB00446132002902068012106913F
:10118000C902059121462431049102F043FA00047A
:1011900006D5206844210991415E002900D58BE0E5
:1011A000206802F037FAFE49891F084218D045200E
:1011B000C000251820684421425AFA4B134043527C
:1011C000204600F0BDFA2878012809D000260498AE
:1011D0000670069828702068314602F034FA2E70A6
:1011E000206802F017FA400405D520684421425ACD
:1011F000ED4B1340435202984501206802F00AFA71
:10120000800405D520684421425AE84B13404352DC
:101210006519206802F0FEF9C0041AD52068402143
:10122000425A04239A434252425A08239A43425252
:101230002878012804D1002129702046FFF77BFE81
:10124000204600F089FA20684421425AF44B1340AA
:101250004352206802F0DEF90599084218D006983A
:10126000060320684021425A082313434352024692
:1012700040329388EB4F1F409780425A0423134318
:10128000435202F0C7F9304202D1204600F0B2FAD0
:10129000206802F0BFF9000600D49CE120684421D8
:1012A000425A80239A4342522978002900D17FE193
:1012B000204600F09FFA8EE12521C90003916118B4
:1012C00001910699C9030A9123210901611800912E
:1012D0000146443116E0072211404A01A218D154B8
:1012E0002832002155619661D161069951701146ED
:1012F00001F0F4FF20680999425E01464431002A5A
:1013000000D44DE70A880F2616402FD0B100475A67
:101310000A9A174200D106E141180A88BD4B1A40CB
:10132000802313430B807101651803996B184D21BD
:101330008900695C0029079708937DD01A7891008D
:10134000435A5021415AD200B34FF1373B4200D1AA
:10135000A2E0AE4B1B189A185118091F0F88AC4910
:101360000F4000D1A8E0029909019EE00188D20651
:101370002AD4A84A11400A9A11430180A3490918A6
:101380005022805A0818049D2979C9004018001F6E
:1013900000889F4908406064E16B0818E0630027FB
:1013A00020463946FFF7E4FD28780028A2D0206CBB
:1013B00000289FD1049B187880210143C8B221687E
:1013C0004C2288521F7095E7059A114249D10A9A1A
:1013D00011428FD001888F4A114080220A43028037
:1013E0008A4941185025425B8918019E3278D20003
:1013F0008B5A87490B40F3610DD0716900290AD0DF
:10140000F28802F00AF9F069716908187061002128
:101410002046FFF7B8FD20687C494118425B3369DC
:10142000002B00D1A7E03E2B00D9A8E05D08069E66
:101430003340EB189B02AAE05021415A734A8218AC
:1014400051181A78D2008F5A71490F403FD0972116
:1014500049006A5A4F21890069583B4602F0DDF87D
:1014600035E05021415A694A82185118019D2A7865
:10147000D2008B5A66490B40EB61EA88009902F072
:10148000CCF820680188634A114080220A43028018
:10149000204600F08EF92DE75C4BC3189A18575A76
:1014A0005B490F4008D0992149006A5A4F218900B1
:1014B00069583B4602F0B1F808992068097889001C
:1014C000425A544B1A400A9BC03313434352512093
:1014D00080002958C91929504F2081006858C01927
:1014E0006850052189016A58002A04D02721C900C3
:1014F0006958B94205D9089801782046FFF743FD9D
:1015000010E00899097807230B4059016118039DE1
:101510004B55491900230D4614350DC54B702068F5
:1015200001F0DCFE079F380600D4E3E670004100BE
:101530002068425A374B1A400A9B1A434252334999
:1015400009185022825A8A18710166182823F15C02
:10155000CD005219121F12882D4D2A402836F261F3
:101560007569AD187561B669002E00D0B3E62046E6
:10157000FFF7FEFCBEE6535A254D2B4005E0DD0685
:101580005B09002D00D15B1E9B020A9D2B43535229
:101590000188214A1140214A51400180AAE6C046F3
:1015A00006040000FFFB0000FFBF0000FFDF00009B
:1015B0004030018804220A430280018808220A433D
:1015C000028006992970808A80083C2202406A6065
:1015D0002046FFF7B0FC206802F01CF8800508D513
:1015E00020684421425A104B13404352204600F0D9
:1015F000C5F8206802F00EF8C00505D52068442122
:10160000425A0A4B134043520BB0F0BD060400008F
:10161000FF0300000F0F00000F3F000080B000002C
:10162000FFEF0000FFF70000FFFD0000FFFE0000DD
:10163000F0B589B000285DD004464520C0002518CB
:101640006878002804D100202870204600F056F861
:10165000204624300790032008956870206801F028
:10166000E1FD6168002925D00020034602465B01A8
:10167000E31828255A552833D5B2DD8101255D7040
:10168000186158619861D870521CD3B29942EED853
:101690000020034602465B01E3182525ED005A555C
:1016A0005B19186158619861D8705870521CD3B298
:1016B0009942F0D8A0680590E06806902746103758
:1016C000E0CFE269236A20680095019602970392B1
:1016D0000493059A069B01F095FD00250798057077
:1016E000012008994870E069012804D12046FFF7DD
:1016F0000FFC00E00125284609B0F0BD10B582B00E
:1017000000680D49884201D002B010BD0120C0051B
:101710000A490A6802430A60096801400191019878
:101720001F24022100222046FFF7D2FB2046FFF7AC
:10173000C5FB02B010BDC046005C00401C1002405A
:10174000B0B50446272005016059012101F092F847
:10175000605901F04DF8B0BD10B50446806900280D
:1017600006D02C48016806229143016002F03EFB3E
:1017700027200001205801F065F810BD80B5272111
:101780000901405801F068F880BD10B54522D2002B
:10179000835C012B01D1022010BD84180246243243
:1017A000117001222270006801F04DFF00202070AE
:1017B00010BD80B527210901425823210901411894
:1017C000104601F06BF880BDB0B504464520C0005E
:1017D000215C012901D10220B0BD2518012028700B
:1017E000206801F007FD206801F002FF002028704A
:1017F000B0BD000010B5044627200001205801F0BC
:10180000A1F8A069002804D00248016806220A4312
:10181000026010BD10ED00E00121C9060F4A1368F7
:101820000B43136013688B43136006C80A430168B7
:10183000114342680A43816809041143084A516010
:101840003F21090213688B43C068000218431060EF
:1018500010686021014311607047C04610100240BB
:10186000006C0040F0B585B004468078C007494B55
:101870004DD00120039001071A1F10680840029004
:1018800006D110680843106010680840049004985E
:1018900000920191404E3068C00511D403980702B0
:1018A000306838433060FFF7C5FA05463068384283
:1018B00006D1FFF7BFFA401B6428F7D903253EE0A5
:1018C00003252802334B1968014012D06268024098
:1018D00091420ED00398000419681A6802431A60F6
:1018E0001A6882431A6008462C4A10401860C807DC
:1018F00042D118682949084061680143196002987B
:10190000002804D1009A106801998843106020686B
:10191000C10717D181071DD4810624D4810305D5C1
:10192000196980229143A2690A431A610025400582
:1019300005D518694021884361690143196128462A
:1019400005B0F0BD196903229143A2680A431A61E8
:101950008107E1D5032109041A698A43E16811432B
:1019600019618106DAD519691022914322690A4367
:101970001A618103D4D4D9E7FFF75CFA0646624FB7
:10198000044B18688007B4D4FFF754FA801BB842A0
:10199000F6D9D4E72010024000700040FFFCFFFFA2
:1019A000F0B581B0002849D00446554A136801209B
:1019B00003408B4209D213680126B3430B431360E3
:1019C000126832408A4200D097E0009121688A076D
:1019D0004C4D0CD54A0704D5072212022B6813433D
:1019E0002B602A68F0239A43A36813432B60C9072E
:1019F00026D14349086801263040009A904205D913
:101A00000868B04308600868C00776D120784007AE
:101A10003C4F06D50720000239688143E06808433F
:101A200038603A681007810F3848C0467944097910
:101A300049008F4401563C4F354852E001265CE096
:101A4000616803290AD002290ED001292D4B12D139
:101A50001A1F1268920306464FD511E0294B1A6BE4
:101A6000D203064649D50BE0264B1A1F1268920195
:101A7000064642D504E01A1F1268920706463CD576
:101A800018680326B04308431860FFF7D3F90746E8
:101A90001D4D1C4800680C21014060688000814297
:101AA000A7D0FFF7C7F9C01BA842F2D925E0032150
:101AB000CB03B96A0F240C401749095D94021A4000
:101AC000240F164D2C5D9A4206D033049A4204D05E
:101AD0000F4802E00F4804E00E4802F00DFA4443BC
:101AE000204639680906090F0D4A515CC8400F4964
:101AF000086000263046FFF7BBF9304601B0F0BD64
:101B00000020024004100240881300000024F4006A
:101B100000127A00006CDC020E410008FE40000852
:101B2000EE400008014800687047C0461C000020D5
:101B3000F0B587B00121002812D0049105900078FB
:101B4000C007F64E54D071680C20014004290AD118
:101B5000306880034CD505984068002848D13BE1A7
:101B6000084607B0F0BD71680140082907D103207D
:101B7000C00371680140012000048142E8D005984B
:101B800040680028039005D005280CD0012801D119
:101B900001200DE00120010432688A433260810493
:101BA0003068884307E00120810432680A433260CC
:101BB000010430680843306001204704F24CFFF70D
:101BC00039F90546039800280FD0306838420FD104
:101BD000FFF730F9401BA042F7D96DE1FFF72AF972
:101BE000411B0320A14200D9CBE130683842F5D136
:101BF0000598007880071FD570680007800F0CD00B
:101C000070680C210140082976D10320C003716857
:101C100001400120C00381426ED130688007059CDD
:101C200003D5E068012800D0D6E03068F821884369
:101C30002169C90001433160059C2078000724D444
:101C40002078400734D42078C00600D4A7E0059857
:101C50004069411D00D196E0012800D001E1706B80
:101C6000042101437163706B012101437163FFF72C
:101C7000E1F80546706B800700D588E0FFF7DAF8D9
:101C8000411B03200229F5D97BE1706AE169002933
:101C900058D0012108437062FFF7CCF80546706AFE
:101CA0008007CDD4FFF7C6F8401B0228F7D903E11F
:101CB000012003900107F0690840029006D1F06905
:101CC0000843F061F0690840069006980191AF4C16
:101CD0002068C00524D40398070220683843206098
:101CE000FFF7A8F805462068384219D1FFF7A2F897
:101CF000401B6428F7D9DFE03068059CE1680029C3
:101D000030D0012108433060FFF794F80546306871
:101D100080078AD4FFF78EF8401B0228F7D9CBE062
:101D200005988768002F05D0052F00D1AEE0012F60
:101D300000D1AFE0306A039988433062306A0421F1
:101D40008843AAE0012188437062FFF773F80546D3
:101D5000706A800700D473E7FFF76CF8401B022815
:101D6000F6D9A9E0012188433060FFF763F8054602
:101D70003068800700D45FE7FFF75CF8411B032061
:101D80000229F5D9FDE0706B042188437063706B04
:101D9000F821884305998969C90001437163059851
:101DA000007880060BD571680C2001400C2938D1D1
:101DB000706BC00303D50598006A01280CD1059803
:101DC000446A002C00D1A2E070680C21014008296F
:101DD00005D1012C00D085E0049807B0F0BD0120AA
:101DE000020631680492914331604706FFF722F8FA
:101DF0000546022C0BD1049C3068384200D1A1E08A
:101E0000FFF718F8411B03200229F5D9B9E0306823
:101E100038427CD0FFF70EF8411B03200229F6D987
:101E2000AFE071680140082905D10320C003716843
:101E300001408142BCD0706B0599096A00296FD0BE
:101E400001210C0420437063FEF7F4FF0546706B1C
:101E50002042B4D1FEF7EEFF411B03200229F6D940
:101E60008FE0706B042101437163706B0121884323
:101E70007063FEF7DFFF0546706B80078FD5FEF7B6
:101E8000D9FF411B03200229F6D97AE0306A0421E8
:101E900001433162306A039908433062FEF7CAFF9A
:101EA0000546394C002F10D0306A800710D4FEF759
:101EB000C1FF401BA042F7D9032007B0F0BDFEF7D9
:101EC000B9FF411B0320A1425BD8306A8007F6D4DA
:101ED00002980028059C00D0B5E6F0690199884376
:101EE000F061B0E60320C20370680240F16A059C0D
:101EF000A36A9A42049D0DD10F221140236B99428F
:101F000008D191040840E16A8842284639D100206E
:101F100007B0F0BD284607B0F0BDC0460010024033
:101F200001210C04A0437063FEF784FF0546706B2B
:101F3000204200D143E7FEF77DFF411B0320022929
:101F4000F5D91EE0F06A0F218843059A116B014311
:101F5000F1627B20C00371688143D06A0843916AB3
:101F600001437160306820433060FEF763FF044630
:101F700030683842CBD1FEF75DFF011B03200229F8
:101F8000F6D907B0F0BDC0468813000000700040CD
:101F9000001F4142414188000F490A6804239A43C7
:101FA000101808607047C04670470000401E010EC0
:101FB00001D0012070470749074A5060074803686D
:101FC0000B40032189075918016000209060072108
:101FD00011607047FFFFFF0010E000E020ED00E01F
:101FE00080B5FFF7E1FF80BDFEE7FEE780B5FEF7B5
:101FF00025FFFFF7F5FF80BD1148026801210A4364
:10200000026042680F4B1340436002680E4B13405E
:1020100003608A040368934303603F221204436809
:1020200093434360C26A0F239A43C262026B074B19
:1020300013400363426B8A4342630021816070470F
:10204000001002400CB8FF08FFFFF6FE2CFEFCFF5C
:10205000F0B581B00C4605465720C1006F58002FDF
:1020600011D0142060432E18F069002808D0691898
:10207000896862018918896BFEF7A2F8002904D0EB
:1020800000267E650BE0022609E01C36304600265D
:102090000660284621463246334600F05DFC304655
:1020A00001B0F0BD70B505465720C600AC592846B2
:1020B00000F023FBE064A859002808D0A919606C3F
:1020C0004C344968CA6821469047002070BD022000
:1020D00070BDB0B50446812100F054FA0025E562D8
:1020E0000121204600F04EFA5B208000255082211D
:1020F000204600F047FA25645720C00021580029E7
:1021000007D02418606840688047206800F011FFFD
:1021100025600020B0BD10B55721C9004218536892
:10212000002B0AD041580C4640342078FF2804D0B8
:1021300062789B689847FF202070002010BD000047
:102140000A21018000487047E000002043210180FF
:102150000048704758000020432101800048704724
:102160009C0000204321018000487047EC000020C3
:10217000F0B581B0044681210226402732463B4615
:1021800000F012FB0125E5622046294632463B4617
:1021900000F00AFB5B2080002550822103220823E7
:1021A000204600F001FB25645C2000F0C3FE0646DB
:1021B0005720C0002650002E0CD020184068006820
:1021C000804700257565B565726C01214023204666
:1021D00000F0FEFA284601B0F0BD80B55721C900D5
:1021E0004158002906D04A6C0121402300F0F0FA42
:1021F000002080BD022080BD002904D0AF229200C3
:10220000815000207047022070475722D20080582A
:102210004164002070475723DB00C0580265816489
:1022200000207047F0B583B00E4605465720C00029
:102230002F5802A80024047001A80480A720800061
:10224000291830786022024010D0202A1ED1F2884E
:10225000002A21D0000627D43846403042707178D9
:1022600001702846394600F08CF84BE070780B2856
:1022700025D00A282CD0002833D10878032836D15D
:1022800001A90222284600F09BF83BE0284631468F
:1022900000F06DF8022435E07078096A8B6800243C
:1022A0003146224698472DE07078096A8B68394696
:1022B0009847F2882846394600F082F822E00878EC
:1022C00003281FD02846314600F051F8022419E0B7
:1022D0000878032811D102A90122284600F070F8DD
:1022E00010E02846314600F042F802240AE0284671
:1022F000314600F03CF8022404E02846314600F064
:1023000036F80224204603B0F0BD80B55721C9003D
:102310004158002904D04A6D002A03D0012080BD15
:10232000022080BD01224A650B6D03638A6C9BB25B
:10233000812100F011FB002080BD80B5AD2292000C
:10234000825852689047002080BD10B513460A4657
:102350000024214600F03CFA204610BD10B513467B
:102360000A460024214600F0F7FA204610BD10B5B9
:102370000446802100F0C4FA0021204600F0C0FA93
:1023800010BDB0B513460A46572189004350A52415
:10239000A4000325055141184B600024214600F09C
:1023A00017FA2046B0BD10B5A5218900052242507C
:1023B000002421462246234600F00AFA204610BD9A
:1023C00010B513460A46A521890002244450C36172
:1023D00003620024214600F0BFFA204610BD10B56C
:1023E000A52189000422425000242146224623468A
:1023F00000F0B2FA204610BD10B50A4603A0384CD2
:10240000214600F06FF8204610BDC04643444320EB
:10241000436F6E66696700001220088000487047AD
:102420003001002010B50A4603A02D4C214600F0D3
:1024300059F8204610BDC04643444320496E746598
:1024400072666163650000000420088000487047E0
:102450005401002010B50A4603A0214C214600F08B
:1024600041F8204610BDC04650726F746F66757398
:10247000696F6E204C6162730000000010B50A465F
:1024800003A0174C214600F02DF8204610BDC04691
:1024900043414E61626C6520323032322030373237
:1024A0003600000070B588B00C460C4E316801ADA6
:1024B000284601F089FC71682846083001F084FC48
:1024C000B1682846103001F07FFC054E28463146A1
:1024D000224600F007F8304608B070BDACF7FF1F89
:1024E000C4010020B0B5002824D00378002B08D008
:1024F000441C0023651C5B1C2478002C2C46F9D15D
:1025000000E00023DBB25B009B1C138003224A70B7
:102510000B700378002B0DD0421C0220C4B20B5567
:10252000012323430024CC54541C801C1378002B1B
:102530002246F3D1B0BD10B5002811D0A7239B00CF
:10254000C3189C69002C01D000249C61002900D094
:10255000596102700121197000F0D6F8002010BDF9
:10256000022010BD80B50B2292018058FEF73EFD7F
:10257000042802D30220C0B280BDC100F048C84088
:10258000C0B280BD80B50B2292018058FEF708FDD5
:10259000042802D30220C0B280BDC100F648C84062
:1025A000C0B280BDF0B581B00446A52080002718D8
:1025B00000290CD0386A42690220002A05D03B7AF3
:1025C000032B02D120469047002001B0F0BD3868AF
:1025D000002816D0042814D0022816D1206A666A72
:1025E000B0421CD9801B206283B2204611461A4695
:1025F000FFF7B4FE002120460A460B4600F0E8F83B
:1026000003E08021204600F07BF9387B012803D1CC
:102610000020387301B0F0BD002001B0F0BDE569C5
:1026200028463146FDF7CCFDB54212D3002910D122
:10263000786885420DD20025204629462A46FFF7B4
:102640008DFE7D60204629462A462B4600F0C0F8C4
:10265000DBE7386AC168002904D0387A032801D141
:10266000204688478021204600F04AF92046FFF79F
:102670009AFECAE770B50546A520800028180029F3
:102680000CD0026A92690224002A05D0007A03283D
:1026900002D1284690470024204670BD01680024DE
:1026A000052915D00329F7D10B2149016B181E68A4
:1026B00059688E4213D9701A1860884200D30846B0
:1026C00083B2284611461A46FFF73FFE204670BDEA
:1026D00004602846214600F013F9204670BD016AC7
:1026E0000969002904D0007A032801D128468847C7
:1026F0002846FFF774FE204670BD80B50B2292017C
:102700008058FEF7A2FC80BDF0B581B005460B20D5
:1027100087011B48E85127210901455000248461A5
:10272000C461046202210822164B0360426081608A
:10273000C4600161FEF77CFFE85918232146224658
:10274000FEF7FAFBE859802158232246FEF7F4FBF6
:10275000E8598121C0232246FEF7EEFBE85901210A
:102760000E02334610332246FEF7E6FBE85982217B
:1027700022463346FEF7E0FB204601B0F0BDC046DE
:1027800058060020005C00400B22920180584A0647
:10279000120D8018090602D52A300078704795215D
:1027A000490040180078704710B514460B2292017A
:1027B00080581A462346FEF74FFC042802D3022015
:1027C000C0B210BDC1006C48C840C0B210BDC04608
:1027D00010B50B24A4010059FEF76EFC042802D3A7
:1027E0000220C0B210BDC1006348C840C0B210BDD5
:1027F000F0B581B004460025402629462A463346D6
:10280000FFF7D2FF2B20C000012727502018C660F9
:10281000802120462A463346FFF7C6FFA5208000C8
:102820002550201807726662A76105616560416ADC
:10283000002904D0006A4268002120469047002009
:1028400001B0F0BDA7218900425C042A02D14018E2
:10285000417801700020704780B5A7218900425C53
:10286000032A05D141188969C969002900D0884720
:10287000002080BD017400207047000080B50B224D
:1028800092018058FEF781FF042802D30220C0B2D3
:1028900080BDC1003848C840C0B280BDF0B581B02D
:1028A0000446A5208600A7193D461435284600F0A9
:1028B00065F80120A0511148205A7860397D1F2009
:1028C0000840022808D001280BD000280ED120464D
:1028D000294600F083F80EE02046294600F04EFA23
:1028E00009E02046294600F0EBFA04E08020014090
:1028F000204600F005F8002001B0F0BDAE02000057
:1029000080B50B2292018058FEF7E9FB042802D320
:102910000220C0B280BDC1001748C840C0B280BD0F
:1029200080B50B2189014058FEF74EFF042802D3E1
:102930000220C0B280BDC1000F48C840C0B280BDF7
:1029400000020102A7218900425C0423435440187D
:10295000427000207047000010B50B24A4010059FC
:10296000FEF7F2FB042802D30220C0B210BDC10062
:102970000148C840C0B210BD000201020A780270CE
:102980004A7842708A78CB781B029A1842800A797A
:102990004B791B029A1882808A79C97909028918B1
:1029A000C1807047002904D0AD22920081500020E0
:1029B00070470220704780B5AD2292008258002AED
:1029C00005D012689047411E8841400080BD02201A
:1029D00080BD80B5FFF7A4FF002080BDF0B581B0B9
:1029E0000D460446097860200840A7218900671831
:1029F000002809D0402801D0202827D1B869826852
:102A000020462946904729E06878092837D8C046EB
:102A100078440079400087440424323B32445A32DF
:102A200074843878401E022800D992E0E888022891
:102A300000D0C2E0B868411E88414000E0602146F5
:102A40000C3102222046FFF7BBFC07E08021204624
:102A5000FFF756FF00212046FFF752FF002001B08C
:102A6000F0BD3878401E022800D97BE06888012834
:102A7000F4D10020B8602046FFF7B1FCEEE78021DA
:102A80002046FFF73DFF00212046FFF739FFE5E72D
:102A900068880128E2D10120B8602046FFF79FFC3A
:102AA000DCE7A88800284BD1E888002848D16D8849
:102AB0007F2D45D83878032800D00BE180212046AF
:102AC000FFF71EFF00212046FFF71AFFC6E7684602
:102AD000002606806888010A491E062900D922E1DD
:102AE0004900C0467944898849008F440600770030
:102AF0007E001C011C018D009600207C79690A680B
:102B00000CE1E888012836D13878411E02295DD2CF
:102B10000020A0602146083101222046FFF750FC2A
:102B20009CE76888944D2870C1B202292CD380217B
:102B30002046FFF7E5FE00212046FFF7E1FE8DE786
:102B400080212046FFF7DCFE00212046FFF7D8FE5B
:102B500084E780212046FFF7D3FE00212046FFF7BF
:102B6000CFFE7BE780212046FFF7CAFE00212046EA
:102B7000FFF7C6FE72E780212046FFF7C1FE002165
:102B80002046FFF7BDFE69E7387803284DD00228BC
:102B900054D1002968D00320387061602046FFF7C7
:102BA0000AFF022800D07DE080212046FFF7A8FE22
:102BB00000212046FFF7A4FE50E780212046FFF7C2
:102BC0009FFE00212046FFF79BFE47E7032842D1E6
:102BD000211D01222046FFF7F3FB3FE7B869217C66
:102BE0000127002944D0C16A43E0C0B2052800D9BA
:102BF00099E0C0467844007940008744027E818491
:102C0000878A7869426886E0207C002800D08AE0C4
:102C1000B869416B6846884782E0207C00282ED046
:102C200080212046FFF76CFE82E0002930D06068EA
:102C300001283BD12046FFF7D2FB0FE78021204639
:102C4000FFF75EFE00212046FFF75AFE2978204656
:102C5000FFF773FB02E780212046FFF751FE0021BA
:102C60002046FFF74DFEF9E62046FFF7B8FBF5E6F4
:102C7000816A684688470646022070705DE0B86940
:102C8000016B68468847064607207070012754E0AC
:102C90006160022038702046FFF74FFB2046FFF7A7
:102CA0009EFBDBE62046FFF79AFBD7E6C1B2204643
:102CB000FFF743FB297861602046FFF77CFE02287E
:102CC00017D180212046FFF71BFE00212046FFF789
:102CD00017FEC3E67F200540BD7020462946FFF75A
:102CE000CDFD2046FFF77BFB002D41D00220387040
:102CF000B4E62046FFF773FBB0E6786982680AE025
:102D00007869C26807E07869026904E07869426915
:102D100001E078698269002A05D0207C69469047E5
:102D20000646012709E080212046FFF7E9FD00263D
:102D300020463146FFF7E4FD3746002F00D18DE6EF
:102D400068460288002A0BD0E888002808D0824212
:102D500000D302466846028020463146FFF730FB2A
:102D6000E888002800D079E62046FFF738FB75E6B2
:102D70000120387072E6C046C0010020B0B50A4696
:102D80000446087860210140A7208000201800290F
:102D90000AD0402901D020291ED1806983682046AD
:102DA000114698470020B0BD11795378002B1DD0F3
:102DB000012B2BD0032B42D10078032829D1508836
:102DC00000284ED17F2008404BD0D088002848D121
:102DD0002046FFF795FD44E080212046FFF790FD57
:102DE00000212046FFF78CFD0020B0BD00780328AD
:102DF00018D0022823D1480621D17F200840142270
:102E00004243A31808064FD5143350E00078032836
:102E10001FD0022813D1480611D02046FFF770FDBD
:102E2000802111E00F220A40802014235343E2182E
:102E300008401BD12B23DB00D258002A19D1802156
:102E40002046FFF75DFD00212046FFF759FD0020D9
:102E5000B0BD50880028C7D1480602D02046FFF7F1
:102E600081FB2046FFF7BBFA0020B0BD9269002A23
:102E7000E5D07F220A4014235343E518002801D0EF
:102E8000143502E0552080002D18480606D0204653
:102E9000FFF77AFC002801D0012000E00020286024
:102EA00002222046294607E0552080001B180020FA
:102EB0001860022220461946FFF782FA0020B0BDB2
:102EC000B0B50D46044609786020084003D040287C
:102ED00001D0202814D1A720800020180178491E95
:102EE000022903D8A9880906490E13D0802120465B
:102EF000FFF706FD00212046FFF702FD0020B0BDD0
:102F000080212046FFF7FCFC00212046FFF7F8FC5B
:102F10000020B0BD80698268204629469047E98834
:102F20000029F5D10028F3D12046FFF758FA0020F8
:102F3000B0BD704700487047C4020020F0B582B0B1
:102F400002460F78B8001318105A774C0440C8781E
:102F50000328019008D8002678440079400087446F
:102F600001050B08012005E0012605E06F48401C23
:102F700001E00320400204436D4804431C801C8888
:102F8000C54D2C403C4304431C800C7B694D002CF8
:102F90003FD000961888684C044068482018188074
:102FA0005020145AFF00D7190126B5027D19F643A7
:102FB0000F8937402F53105A28184A89324082808F
:102FC000C54A1046F1301C880440487800283FD09C
:102FD000B349002CB04F03D01888384008431880FC
:102FE00018884006009E534D05D5188838402C4659
:102FF000403404431C801888384008431880303718
:10300000198839400198012845D028462030414090
:1030100042E05024145BFF004878002841D0D019CA
:103020000019C988012291439202815218884006F2
:10303000994A05D518881040294640310143198026
:103040003032198811400198012843D1294367E0A3
:10305000002C914D04D018882840654901431980FF
:1030600018884006009E334C05D518882840214614
:1030700040310143198018882840214640310143DE
:103080001980188810402E49414019803035198820
:103090002940214344E029431980198811402943DC
:1030A0003EE00096C8880126B043D71901975032F8
:1030B000B702019DEF193C19A080BF1D0C69118852
:1030C000002C0AD03E2C10D82640600880198402BB
:1030D000009E14E02035694022E0C85B134A02409C
:1030E000144C803C1443009E09E0E006620900286D
:1030F000009E104C00D1521E9002803C0443CC53E1
:10310000198875480246F132114205D01988624A81
:103110001140374A0A431A801A8802400849514030
:103120001980304602B0F0BD8F89FFFFFF03000019
:103130008080FFFF808000000F0E00008081000073
:1031400080B0FFFFF0B50A789200875A80184A785D
:103150000B7B2649002B28D05F4E3346F1331F40AE
:103160004D4B002A2AD04E4D002F03D002881A4022
:103170002A4302801C46303402885206324603D568
:1031800006881E400E43068006881E402E43068099
:103190000B46403B058825401D43058003881340AE
:1031A0004039194301800020F0BD002A15D03A4C67
:1031B000224630327B060B46F0D5EBE7002F04D0D9
:1031C00002881A400A4C144304801A46303204889C
:1031D00064060D463446D3D4D6E73F4A1346F1334E
:1031E0001F42DBD02C4C2E4BD4E7C046C0800000E1
:1031F00080C0FFFF5821425A0123DB03134343528F
:103200000020704710B540220121815200218152D7
:103210000346403399801982835AF94C1C438452E7
:10322000084610BD4021425A024B13404352002031
:103230007047C0467F40000000207047B0B50A7B51
:10324000002A01D00020B0BD0A789200845A80186C
:103250004A78002A0ED062060F4A104B05D5048822
:1032600014401D46203525430580C9780129E9D041
:1032700030320BE0DA4A1146F131DA4B0C4205D01C
:103280000188054C0C40D949611801800188114022
:10329000594001800020B0BD0F0F0000A080000049
:1032A00080C0000010B54B78002B04D0094A002BD9
:1032B00004D1CB4B03E0064A002BFAD0CA4B097865
:1032C0008900445A1C4054404452002010BDC0465E
:1032D0008090FFFF9080FFFF0F3F0000F0B583B0AC
:1032E0000C698A69131B00D200238B61A24200D8AB
:1032F00014460F7B4D78012D23D10126F203029253
:10330000B44B002F38D00F78BA000192825A52067F
:1033100067D4012D00D199E0002D00D00CE150229E
:10332000825A0092C218FB00D718002C00D1E9E0A5
:10333000009B3E2C00D9F5E02640620892199202CB
:10334000F8E0A44E002F38D0012D62D0002D00D01F
:10335000A0E05022825A83199A180B78DB00002CC7
:10336000029200D184E03E2C00D989E00122224063
:103370006708BA18920280E0250412D0954A151801
:10338000CE88AD19AD1E4E69A7B27F1C7F0832787A
:1033900073781B029A182A80B61C7F1EAD1C002F62
:1033A000F5D15022825A8B4BC3189A180B78DB0048
:1033B000D452029BB0338C4F03E15022825A33180F
:1033C0009A18121D0B78DB00002C2AD03E2C31D825
:1033D0000125254064086419A4029C52804F814B4A
:1033E000EFE0012D3AD0002D00D0B4E05022825AF7
:1033F00000921A18FB00D218171D002C00D189E08A
:10340000009B3E2C00D99CE0264062089219920253
:103410009FE05022825A83199A180B78DB00D4520D
:1034200038E09C5A6D4D25406B4C2C199C526C4FCA
:103430006C4BC6E0E5066409002D00D1641EA402B1
:10344000654D25439D52664F664BBAE05022825A25
:10345000604BC318FE009B199C526CE05022825AAC
:103460005C4B1B18FE009B199A185A4B948072E013
:103470009F5A5A4A3A40584FD219029FDA5309E0EC
:10348000E7066209002F00D1521E9202524F1743E5
:10349000029A9F52524F534B012D15D0002D00D050
:1034A0008FE05022825A33189A18151D0A78D600D8
:1034B000002C14D03E2C1AD80122224063089A18FE
:1034C00092027253474B7CE05022825A1D463318B9
:1034D0009A180B78DB00D2182B46948071E0725B4F
:1034E0003E4B13403C4A9A1872533E4B69E0E20649
:1034F0006409002A00D1641EA202374B13437353A0
:10350000384B5EE0009EF25B344B1340029A13434B
:10351000F35310E0009EF25B304B1340029A1343CA
:10352000F35317E0E2066609002A00D1761EB202C4
:10353000029E3243DA53274B0E46083622040ED140
:103540001FE0E2066609002A00D1761EB202029E42
:103550003243DA531F4B0E460A36220411D01A1892
:103560003388D218961E4F69A2B2521C54083A787A
:103570007B781B029A183280BF1C641EB61C002C7C
:10358000F5D1019A8618029B1C46B034012D0CD04F
:10359000002D14D1144F3A46303A1D46338813405B
:1035A000C0351D43358023460BE00F4F3A46303A75
:1035B000338813400D4A1A433280234601E02346E4
:1035C000094F09788900425A3A405A404252002035
:1035D00003B0F0BD020400000080FFFFFF03000005
:1035E0000F3F000080B000003F0F000080C00000CF
:1035F0004021425A024B1343435200207047C046B9
:1036000080BF000080B50248FDF7B2FD80BDC04616
:10361000580600204421405A704710B580180122F6
:1036200092028018022B09D35A0804880C70240ACD
:103630004C70891C521E801C002AF6D1DA0701D07A
:103640000088087010BD002901D0002070474C216F
:10365000802242520020704780B5E248017801295B
:103660000AD1002101700120C003DF4909680A68FE
:1036700002430A6000F0F4F980BDC046F0B581B0A5
:10368000D84D2878002822D1D74C0020A0760126DA
:1036900031022183720503231B046A4F3F68676070
:1036A000A060E06023616261A183534800783146E5
:1036B0008143E1762046FDF726FA29492046FCF7AA
:1036C000C4FF2046FDF7ADFA2E7000F0B1F901B04D
:1036D000F0BDC046C448704770B586B0012460068E
:1036E0001D498A6802438A608A68024001920198F3
:1036F000A0040A6802430A6009680140009104209E
:1037000005900025039502200290032004900002FA
:1037100001900098114801A9FDF7C8FA1048046209
:10372000056045608560C560056145618561C4616E
:10373000444830210160AC480A490160A94805703D
:103740001E26304621462A46FDF7C2FB3046FDF7CD
:10375000B5FB06B070BDC04614100240000400481E
:103760006C0300200064004070B582B0604D5F4E75
:10377000705D0721C901715C884223D09A48FDF72A
:1037800063F800281ED000200190705DC1007218FF
:10379000182141437118E031934801ABFCF7FAFE60
:1037A0000446705D401C8108524A4A43510C1C2259
:1037B0004A43801A705500F053F9002C02D00220C1
:1037C00000F0EEF802B070BD10B50B460246864818
:1037D0000021FCF7BFFF044600F02AF9204610BD87
:1037E00080B580490978002905D14142414102480C
:1037F000017000F035F980BD2503002080B5074930
:103800000978002909D1082805D840B2800004A110
:1038100008580C49086000F023F980BD24030020FB
:10382000580200002C010000780000003C0000005D
:1038300030000000180000000C000000080000002C
:1038400006000000DC08002080B5664909780029E0
:1038500006D1411E8841C0076349886000F000F925
:1038600080BDC046F0B583B00D4606460720C701AF
:103870001E4CE05D0290401C1C210191FCF7A0FC55
:103880001B48205C814205D1042000F089F801200A
:1038900003B0F0BD1820029948432018E030029090
:1038A00031460095029D0DC90DC50295029D0DC9B9
:1038B0000DC5009D306900280BD0002001462A5C10
:1038C000E35DDB00E3181A54491CC8B23269824236
:1038D000F5D8E05D401C8108064A4A43510C019A24
:1038E0004A43801AE055002003B0F0BDDC0A0020F6
:1038F0008103000025490000F0B581B0FF259A350D
:10390000234E705D3321C900715C88423DD0705DEB
:10391000800030180321CA01805800282CD00024D0
:103920001C4B1D4F00950EE0705D80013018005D4E
:1039300019787854481C1870705D800030188058D1
:10394000641C844218D2705D80013018005D1978C3
:103950000D280CD13846174635461E4600F07EF934
:1039600033462E46009D3A460B4F0020E3E71E29C2
:10397000DAD300201870D7E7705D401C0749414337
:10398000890C06224A43801A705501B0F0BDC0462A
:10399000E00800209A0A00207C0A0020ABAA000060
:1039A000B0B505280BD804468500FDF743FA044955
:1039B00048510120A04003490A6802430A60B0BD93
:1039C000540300205003002080B5064800780128E9
:1039D00006D105480021FCF7ACFE411E884180BDA0
:1039E000002080BD2403002028030020F0B583B010
:1039F00000281BD00921C906019100240290019DD5
:103A00000226012228463146FDF70CFA6427384683
:103A1000FDF73CF9002228463146FDF703FA384607
:103A2000FDF734F90298641C8442E9D303B0F0BD79
:103A300010B53F4C2068002800D010BDFDF7FAF902
:103A40003C490968401A1A28F7D30920C006022108
:103A50000122FDF7E7F9FDF7EDF9206010BDC04642
:103A600010B5354C2068002800D010BDFDF7E2F9F4
:103A700032490968401A1A28F7D30920C0060121E3
:103A80000022FDF7CFF9FDF7D5F9206010BDC04643
:103A9000B0B586B00124A0040D490A6802430A604B
:103AA0000968014001910198002005900494039455
:103AB0000294032001900920C50601A92846FDF7BC
:103AC000F5F8284621462246FDF7ACF906B0B0BD10
:103AD00014100240B0B5164D2868002811D0FDF72B
:103AE000A9F92968401A1A280BD30920C006022117
:103AF00000242246FDF796F92C60FDF79BF90D494D
:103B000008600D4C2068002811D0FDF793F921685A
:103B1000401A1A280BD30920C00601210A46FDF7D6
:103B200081F900202060FDF785F904490860B0BDE7
:103B3000D0080020CC080020D8080020D40800209D
:103B400092B000F053F9FFF7C7FDFFF7A1FF00F0B7
:103B5000B7F90220FFF74AFF002009900890FFF70D
:103B6000CBFEFFF7B7FFFFF7FFFD0020FFF72CFFAD
:103B70000028F4D00BA808A9FFF726FE0028EED1F4
:103B800068460BA908AA00F007F80028E7D081B220
:103B90006846FCF7CFFCE2E7F0B583B015460E4669
:103BA00004461E21FCF708FBF068002803D0022819
:103BB00003D1722000E074202070B06804280296BF
:103BC000019505D1207820382070361D082000E0AE
:103BD000032025462218366803460F2137090E4078
:103BE0001670521E5B1E1E063E46F6D1029C2269CE
:103BF000431CEA54821C2069002815D000262C465C
:103C00003746019DA85D0009D2B2A054AA5D0A40C2
:103C1000981CC6B2A255DA1C7F1CFEB2029B1B691F
:103C2000B3420346EED801E018462C46D1B2022931
:103C30000ED3621C4B1E06E03726751915705B1EED
:103C4000521C002B04D015780A2DF5D23026F4E74B
:103C50000D226254801C40B203B0F0BD70B588B034
:103C60000022039202920492022914D3491E431C9B
:103C700005E064191C70491E5B1C00290BD01C78E0
:103C8000402C01D82F2500E03625ED43602CF0D9DB
:103C90005625ED43EDE701784139FF24332900D95A
:103CA00088E0C0467944097949008F441983298303
:103CB000838383838383838321832D8383447D3123
:103CC000833483838383838383838383198383837D
:103CD000838383838383838321838383834683478F
:103CE000407801281DD10120FFF77AFD002461E012
:103CF000407801281AD10120FFF7A6FD002459E0E1
:103D0000FFF7AAFC002455E0FFF7B8FC002451E0BF
:103D10000421049112E029A00A21FCF70BFC0024E5
:103D200048E000242046FFF75BFD43E000242046E6
:103D3000FFF78AFD3EE004210491022205920499D6
:103D400004290BD1411C0022039B8D5C1B015B19D4
:103D5000521C082AF9D10393092209E00121029A91
:103D6000435C1201D218491C0429F9D102920422A1
:103D7000815C069108291DD8002401940094002933
:103D80000DD0521C6B46D5B246197678455D2D0193
:103D9000AD191D70491E5B1C921C0029F3D102A8AD
:103DA0006946FFF75FFD05E04078082802D8FFF775
:103DB00025FD002460B208B070BDC04632303232FA
:103DC00020303732360D000000220272C21D05E09D
:103DD00037331370521E0909824205D30F230B405B
:103DE0000A2BF5D23033F4E770470000F0B5A1B0EC
:103DF000FDF72EF800251D9501241C94202000902D
:103E000014901395129503201190072010900F9590
:103E100060040190099014A8FDF78AFE10A82146BD
:103E2000FDF7BEFD09A8FDF71DFDFDF77BFE7D2119
:103E3000C90000F061F8FEF7B9F80420FEF7A8F811
:103E4000EE43304629462A46FDF742F8E0061A4F6F
:103E5000B9680143B960B9680140029100980890BF
:103E60002220079015480690059560070490039559
:103E7000029803A8FDF7D0FC304629462A46FDF7F4
:103E800027F8A0053968014339603968014002917B
:103E900002983868019908433860386808400290F1
:103EA0000298A004396801433960396801400291E1
:103EB000029821B0F0BDC046141002407FBB000044
:103EC00010B5094C094900222046FEF734FB084989
:103ED0002046FEF767FD07492046FEF78DF920468C
:103EE000FEF777FD10BDC0469403002000000020BF
:103EF000200000204401002043088B421AD30022F6
:103F000003098B4279D3030A8B425ED3030B8B42A6
:103F100042D3030C8B4227D30902FF2212BA030CAF
:103F20008B4202D31212090203D0030B8B4233D30C
:103F30001AE0D3E0411A8041401C704703460B430E
:103F400071D443088B42F5D3002203098B4254D32A
:103F5000030A8B4239D3030B8B421DD3030C8B42D4
:103F600002D394466EE0090AC30B8B4201D3CB0304
:103F7000C01A5241830B8B4201D38B03C01A5241AA
:103F8000430B8B4201D34B03C01A5241030B8B42AC
:103F900001D30B03C01A5241C30A8B4201D3CB0297
:103FA000C01A5241830A8B4201D38B02C01A52417C
:103FB000430A8B4201D34B02C01A5241030A8B427F
:103FC00001D30B02C01A5241CDD2C3098B4201D397
:103FD000CB01C01A524183098B4201D38B01C01A15
:103FE000524143098B4201D34B01C01A524103098C
:103FF0008B4201D30B01C01A5241C3088B4201D33B
:10400000CB00C01A524183088B4201D38B00C01AE7
:10401000524143088B4201D34B00C01A5241411A0E
:10402000524110007047CA0F00D04942031000D31C
:104030004042534000229C4603098B422DD3030A81
:104040008B4212D38901FC2212BA030A8B420CD391
:10405000890192118B4208D3890192118B4204D3BA
:10406000890137D0921100E08909C3098B4201D33D
:10407000CB01C01A524183098B4201D38B01C01A74
:10408000524143098B4201D34B01C01A52410309EB
:104090008B4201D30B01C01A5241C3088B4201D39A
:1040A000CB00C01A524183088B4201D38B00C01A47
:1040B0005241D9D243088B4201D34B00C01A52411E
:1040C000411A00D201465241104663465B1000D3AC
:1040D0004042704763465B1000D3404201B5002167
:1040E000004201D0C9430846C046C04602BD000098
:1040F0000000000000000102030406070809020393
:104100000405060708090A0B0C0D0E0F101001021A
:10411000030405060708090A0B0C0D0E0F1000001A
:104120004041000800000020600100002204000857
:10413000F841000860010020081300000401000895
:104140001319241B0849041A55041A7D041AA504DE
:1041500013F9231B0825081113127A1371211C0867
:10416000D320101A2210311A17101A51101AA50450
:10417000C11A59181A4D041A65041A410414090287
:10418000431302012580FA09041B01020B130524C5
:104190001610010524011009010424020205240659
:1041A00017010705820308151009040133020A2EBE
:1041B0000705010240072A810711094244130A0634
:1041C00032022B4001502A07500A3B04501A1217A2
:1041D0001302021E4050ADC4604D1B020359139DD3
:1041E000041B0897041A79041AC5042B04033E2102
:0841F000196611000000000037
:04000005080000C12E
:00000001FF
