:020000040800F2
:10000000501C00209D010008A5010008A701000860
:1000100000000000000000000000000000000000E0
:10002000000000000000000000000000A90100081E
:100030000000000000000000AB010008C11B000828
:10004000AF010008AF010008AF010008AF010008D0
:10005000AF010008AF010008AF010008AF010008C0
:10006000AF010008AF010008AF010008AF010008B0
:10007000AF010008AF010008AF010008AF010008A0
:10008000AF010008AF010008AF010008AF01000890
:10009000AF010008AF010008AF010008AF01000880
:1000A000AF010008AF010008AF010008AF01000870
:1000B000AF010008AF010008AF010008AF01000860
:1000C00000F002F800F03EF80CA030C80838241800
:1000D0002D18671EA246AB4654465D46AC4201D180
:1000E00000F030F87E460F3EB6460FCC0126334274
:1000F00000D0FB1A3343A246AB4618470C41000020
:100100002C410000103A02D378C878C1FAD85207BF
:1001100001D330C830C101D504680C6070470000BD
:100120000023002400250026103A01D378C1FBD813
:10013000520700D330C100D50B6070471FB51FBDFB
:1001400010B510BD00F00DFA1146FFF7F7FF02F0F1
:1001500025FF00F025FA03B4FFF7F2FF03BC00F01F
:10016000F3F9000070B505460C46164602E00FCCC8
:100170000FC5103E102EFAD2082E02D303CC03C5B1
:10018000083E042E07D301CC01C5361F03E02178B9
:100190002970641C6D1C761EF9D270BD074880471B
:1001A00007480047FEE7FEE7FEE7FEE7FEE7FEE75B
:1001B00004480549054A064B70470000491C0008E1
:1001C000C100000850160020501C002050180020CC
:1001D000501800200EB5044615460E4612A000F039
:1001E000A2F9204600F09FF915A000F09CF93046D6
:1001F00000F099F914A000F096F96C460020E07226
:100200000A20A0720A3407E00A21284600F090F87C
:1002100030310546641E2170002DF5DC204600F0CB
:1002200082F900F076F900002A2A2A2061737365AA
:100230007274696F6E206661696C65643A200000B3
:100240002C2066696C6520002C206C696E6520008E
:10025000F8B5042A2CD3830712D00B78491C0370FD
:10026000401C521E83070BD00B78491C0370401CA6
:10027000521E830704D00B78491C0370401C521E89
:100280008B079B0F05D0C91ADF002023DE1B08C98E
:100290000AE0FFF767FFF8BD1D4608C9FD401C4690
:1002A000B4402C4310C0121F042AF5D2F308C91A17
:1002B000521EF0D40B78491C0370401C521EEAD425
:1002C0000B78491C0370401C012AE4D409780170A2
:1002D000F8BD01E004C0091F0429FBD28B0701D53A
:1002E0000280801CC90700D00270704700290BD023
:1002F000C30702D00270401C491E022904D38307A1
:1003000002D50280801C891EE3E70022EEE700226E
:10031000DFE70000002203098B4273D3030A8B42FC
:1003200058D3030B8B423CD3030C8B4221D312E0F6
:1003300003460B437FD4002243088B4274D3030946
:100340008B425FD3030A8B4244D3030B8B4228D3E7
:10035000030C8B420DD30902FF2212BA030C8B420D
:1003600002D31212090265D0030B8B4219D300E0AD
:10037000090AC30B8B4201D3CB03C01A5241830B32
:100380008B4201D38B03C01A5241430B8B4201D3E2
:100390004B03C01A5241030B8B4201D30B03C01A0B
:1003A0005241C30A8B4201D3CB02C01A5241830A85
:1003B0008B4201D38B02C01A5241430A8B4201D3B4
:1003C0004B02C01A5241030A8B4201D30B02C01ADE
:1003D0005241CDD2C3098B4201D3CB01C01A524145
:1003E00083098B4201D38B01C01A524143098B42CE
:1003F00001D34B01C01A524103098B4201D30B01B7
:10040000C01A5241C3088B4201D3CB00C01A5241DB
:1004100083088B4201D38B00C01A524143088B42A0
:1004200001D34B00C01A5241411A00D20146524139
:10043000104670475DE0CA0F00D04942031000D358
:10044000404253409C46002203098B422DD3030AAD
:100450008B4212D38901FC2212BA030A8B420CD3BD
:10046000890192118B4208D3890192118B4204D3E6
:1004700089013AD0921100E08909C3098B4201D366
:10048000CB01C01A524183098B4201D38B01C01AA0
:10049000524143098B4201D34B01C01A5241030917
:1004A0008B4201D30B01C01A5241C3088B4201D3C6
:1004B000CB00C01A524183088B4201D38B00C01A73
:1004C0005241D9D243088B4201D34B00C01A52414A
:1004D000411A00D201465241104663465B1001D3D7
:1004E0004042002B00D54942704763465B1000D361
:1004F000404201B50449002802DC491C084000E0E4
:100500000846C046C04602BDFFFFFF7F70477047E8
:10051000704710B5002000F01DF8FFF711FE012014
:1005200000F012F810BD10B5044602E0641C00F0A3
:1005300004F820780028F9D110BD08B56946087084
:100540000320ABBE08BD000001491820ABBEFEE78A
:100550002600020010B500F031F800F029F810BDB7
:100560007047754600F042F8AE46050069465346AE
:10057000C008C000854618B020B5FFF719FE60BC62
:10058000B64600260027C0C5C0C5C0C5C0C5C0C589
:10059000C0C5C0C5C0C5403D490849008D4670472B
:1005A00010B50446C046C0462046FFF7D4FD10BD36
:1005B00010B5002801D0FFF7C7FF10BD10B500210E
:1005C00002A000F017F8012010BD00005349474178
:1005D0004252543A2041626E6F726D616C207465B4
:1005E000726D696E6174696F6E000000004870473B
:1005F000E800002070B505460C460A2000E06D1C9E
:10060000FFF79BFF002D06D028780028F7D102E0E5
:10061000641CFFF792FF002C02D020780028F7D14D
:100620000A20FFF78AFF70BD10B52022825C521E9F
:10063000012A07D8CA0709D18A070ED4490714D45A
:10064000002010BD01218A04243013E00268936861
:1006500080241C4394608A07F0D50122D2030368EA
:100660009C6814439C604907EAD50121CA050068CB
:1006700008300021036813430360084610BD2022A0
:10068000825C521E012A03D800681430002202E066
:1006900001229104243003680B4303601046704725
:1006A00070B52024045D661E0568AC68012E05D86F
:1006B00066010BD401214C05243002E001218C0499
:1006C0002430026822430260084670BDA401A60FD0
:1006D000032E03D10121CC052430F2E7012420466A
:1006E000B04018608B68002B03D04868C0001843E6
:1006F00001E0086840053301EB18CD68054303208D
:10070000C0011D5018180D694560097D012905D1EA
:10071000011D01252D020E682E430E60D1790906B8
:1007200095792D04691855792D02491915794919BA
:100730006325AD005951D178090695782D046918C3
:1007400055782D024919127889183122D200995012
:100750000021B6E7F0B584B00246012015682023D9
:10076000D35C5B1E012B28D84002281803680122A5
:10077000134303604E691F24344002921346A34082
:10078000C4699C43C461DC430394CF69012F1AD030
:10079000002F33D1C768039C2740C760F700EC19CE
:1007A00001948C88CF683F04E41900940927BF01A5
:1007B000019C009AE2510F4617E08104536A0B43F3
:1007C000536204B0F0BDC4681C43C460F4002C192B
:1007D00001948F880C6824043C1900940927BF01F8
:1007E000019C009AE2510F460C37F4002C193D8809
:1007F0008E683604AD199126B600A55145688C69FE
:10080000002C01D01D4301E0039C25404560456953
:100810000C69002C01D01D4301E0039C254045617B
:10082000096A012902D1C1691943C1610168029AAB
:1008300091430160002004B0F0BD10B5002810D035
:10084000044600F0BBFA204600F061FA0120C00324
:1008500021680A6802430A60002060622021605417
:1008600010BD012010BD000010B5044600F026F8B0
:10087000014615200003014205D00E484268521C73
:100880004260042200E000224807C00F10434905DF
:10089000890F01D002210843074A06498B58002BD3
:1008A00004D0002802D00A7C09799847204600F03D
:1008B00030FA10BD4C010020F4070000406A704778
:1008C000F0B582B02024055D6D1E012D09D80568A4
:1008D00000290AD02D69AD070AD1243001214B052A
:1008E00062E001218B0424305EE0ED68AD0758D052
:1008F000019400910D0101684E191B210F01F1595E
:1009000004240C409460F119F759002C02D17C0D9D
:10091000146001E0FC085460096802240C40D460B3
:100920006D21890074580F27274017617458240AD5
:10093000E4B294617158090C51613721C9007258B1
:100940001A70026852195258120A5A7002685219E3
:100950005258120C9A70026852195158090ED970E7
:10096000016849196F229200895819710168491963
:100970008958090A5971016849198958090C9971EE
:10098000016849198958090ED97100680099002930
:1009900003D010300021019B06E00C300021019BA8
:1009A00002E0243001214B0502681A430260084628
:1009B00002B0F0BDF0B58BB00446006846694168EE
:1009C00008918568C168059101690691012779023E
:1009D0000291F90303913A04790404918169019128
:1009E000F107099202D100200A9050E000210A91FB
:1009F000E90704D1E80513D4154235D147E08760F3
:100A0000A80707D4680720D4280722D4204600F07E
:100A100005FA02E0204600F003FA099AE805EBD552
:100A20003802216888600298054207D168050ED413
:100A3000280513D4204600F0F9F902E0204600F022
:100A4000F7F9099A15420FD121E0F80202E0780384
:100A500005E038030A90E805CED5E1E7B8030A9926
:100A600009180A91154212D0206882600498054244
:100A700009D1680300D5A6E0280300D5A7E02046E9
:100A800000F0DCF902E0204600F0DAF9099A1023C0
:100A9000300708D50598184005D02068C3600A982B
:100AA000029908430A9008257007079309D505980D
:100AB000284006D02068C560204600F039F9079B21
:100AC000099AB00708D52068C068800704D020467E
:100AD00000F034F9079B099A700608D5069818406B
:100AE00005D020680361B8020A9901430A91B00653
:100AF00009D50698284006D020680561204600F0F8
:100B000023F9079B099AF00608D520680069800739
:100B100004D0204600F01EF9079B099A049806426B
:100B200008D00898184005D020684360204600F09F
:100B300016F9099A164207D00898284004D0206870
:100B40004560204600F084F90398064203D10A9FCD
:100B5000002F50D155E00898400701D40A9F45E086
:100B6000380231460140090A019A11400A9F0F4399
:100B70009107394601D502213943029A164200D025
:100B80000F4601994907394606D5042139437205B4
:100B900004D4310505D429E07205FAD50F46310594
:100BA00024D57021019A0A4020D0103A1209052A52
:100BB00018D8C0467A44127952009744020B0D0FA0
:100BC00011122F430EE00A98039908430CE70A9884
:100BD000104309E7079804E0202002E0402000E0ED
:100BE00080200743206882698A438261206804214B
:100BF0004160002F05D0606A384360622046FFF7ED
:100C000033FE0BB0F0BDF0B581B000281BD0044618
:100C10002027C05D002802D1204600F079F8264642
:100C200020362068016802229143016000F0D0F96B
:100C3000054620684168890708D500F0C9F9401BBE
:100C40000B28F6D313E0012001B0F0BD01680122AA
:100C500000921143016000F0BBF90546206841682D
:100C6000C9070BD100F0B4F9401B0B28F6D30120C3
:100C70004104626A0A436262052145E0217E491E01
:100C80004A424A41D101026880239A4351180160C7
:100C9000617E491E4A424A419101026840239A43BB
:100CA00051180160A17E491E4A424A415101026821
:100CB000BA4351180160E17E491E4A1E9141090163
:100CC000026810239A4351180160217F491E4A424D
:100CD0004A41D100026808239A4351180160617F9C
:100CE000491E4A424A419100026804239A4351181E
:100CF0000160271DAECF13432B433B43491E1943CD
:100D0000C161002060620099317001B0F0BD704790
:100D100070472021415C491E00220229114603D35D
:100D200001218B04426A1A43426208467047000060
:100D300046484169491C41617047C04680B5002161
:100D400002F000FA80BD000040484169491C416141
:100D50007047C04680B5012102F0F4F980BD7047AC
:100D6000F0B581B004462020205C01281BD1274625
:100D7000203702203870206801680125A9430160EE
:100D800000F026F9064620684068C00711D000F040
:100D90001FF9801B0B28F6D36804616A0143616266
:100DA0000520387007E00125E804616A01436162AB
:100DB00001E000256562284601B0F0BDF0B581B0C4
:100DC00005462020285C022819D12F4620372868A4
:100DD000016801242143016000F0FAF80646286802
:100DE0004168C90711D100F0F3F8801B0B28F6D336
:100DF0006004696A01436962052038700BE00124D0
:100E00002005696A0143696205E001680222914395
:100E100001603C700024204601B0F0BD7047000026
:100E20000A480168491C01607047C04670470000CD
:100E300006480168491C01607047C04670470000C1
:100E400002480168491C01607047C0464C010020FF
:100E500070470000F0B58BB006900A68002A00D1F8
:100E6000A9E00C4655480699814201D0052000E0D2
:100E7000042000901720C00609180A20C1410191E2
:100E8000012500260996049507940CE01943F960A2
:100E900022681046E840B61C0999091D09916D1C8D
:100EA000002800D187E0681E049F089087403A40E0
:100EB000EED0059502926068102101431229069B2D
:100EC00010D11C20099908400F218140089AD408AC
:100ED000A4001C19226A8A430799096981401143B9
:100EE0002162079C03252846B0401A688243616846
:100EF0000C4603952C40B44014431C60C043122997
:100F000014D801228A40304B1A420FD0069B9A68AF
:100F10000240079CE468B44014439C60CA06D20FA8
:100F2000089CA2405C68BC4314435C60069BDA6882
:100F30000240079CA068B0401043D860C800059DDF
:100F4000A6D5204A106801210843106010680840A7
:100F50000A900C21099801400198042800D30098B8
:100F600088400F228A40089B03998B430A99174FA8
:100F7000D95991430143D951114F39686068C2036F
:100F800002D5029B194301E0029B994339607968BD
:100F9000820301D5194300E099437960B968C20220
:100FA00001D5194300E09943B960F968800200D582
:100FB0006CE799436BE70BB0F0BDC04600100048EA
:100FC000000401401810024006000600080001401D
:100FD000054800687047C0461B48007802490A6807
:100FE000101808607047C0464C16002010B506481F
:100FF000016810220A4302600024204600F006F82F
:1010000000F028F8204610BD00200240B0B504468C
:101010007D20C0000C49097802F06EFF01460B48A4
:10102000006802F069FF00F033FC0125032C09D8A9
:10103000002807D10025E84321462A4600F038F869
:10104000034804602846B0BDE00000201C000020DA
:10105000E400002081B01548426801210A43426043
:1010600042680A400092009A0A078368134383602B
:10107000836813400093009A8A0503681343036052
:10108000036813400093009A4A0403681343036003
:10109000036813400093009A890402680A430260BF
:1010A000006808400090009801B07047141002409A
:1010B00080B501F05BFE80BDF0B502685423D15AC3
:1010C00001242143D15213214D0100214155D65A0B
:1010D00002273743D752401984600846F0BD704755
:1010E00010B50C060CD54907090E40182830002A07
:1010F0000DD0038101210173190C4181002010BD25
:10110000490140182521C9004018002AF1D1C380A7
:1011100000210173002010BD80B5272212018358E1
:101120004A018018C26B184600F003FF80BD80B5ED
:101130002722120183584A0180184F2292008258B8
:10114000184600F05EFF80BD10B507220A40090670
:1011500009D451014118FF232A330024CC542523FC
:10116000DB00C91805E05101411829230124CC54A2
:1011700028310A704522D200835C012B01D1022064
:1011800010BD841801222270006801F071FB00205C
:10119000207010BDB0B50F220A4043689A4201D9B1
:1011A0000120B0BD07220A40090609D451014118A7
:1011B000FF232A330024CC542523DB00C91805E083
:1011C0005101411829230124CC54283100248C706A
:1011D0000A704522D200835C012B01D10220B0BDF0
:1011E000851801222A70006801F0CCFB2C70204683
:1011F000B0BD002070474907090E401851218900F1
:101200004058704770B507240C40090609D46101A5
:101210004118FF252A3500264E552525ED00491990
:1012200005E061014118292501264E5528310A6142
:10123000CB700C704A78002A00D0CC81022B01D1EF
:1012400000220A714522D200835C012B01D10220C9
:1012500070BD841801222270006801F003FA00209A
:10126000207070BDB0B507240C40610141182525E0
:10127000ED004C55491900240D4614351CC54C7021
:10128000006801F0D3FB2046B0BD70B504460725C9
:101290000D404068854201D9012070BD080609D47F
:1012A00048012018FF212A31002242542521C9007B
:1012B000411805E068012118292001220A5428312B
:1012C0000D70012088704522D200A35C012B01D152
:1012D000022070BDA6183070206801F08BFB002D35
:1012E00005D1232000012118206801F049FB0020CE
:1012F000307070BDB0B507240C406101411828253D
:101300004C55283100240D4614351CC501224A7065
:10131000006801F08BFB2046B0BD0000F0B581B045
:101320000446006801F0EEFC000402D5204600F0FF
:10133000B3FA206801F0E6FC40050CD52068442192
:10134000425A524B13404352204600F02FF90021DD
:10135000204600F05CF91325206801F0D3FC40041E
:1013600005D520684421425A494B134043526D0130
:10137000206801F0C7FC800405D520684421425A4A
:10138000444B134043526619206801F0BBFCC00473
:101390001AD520684021425A04239A434252425AA5
:1013A00008239A4342523078012804D10021317039
:1013B0002046FFF794FE204600F010F920684421F3
:1013C000425A354B134043520127206801F09AFCE2
:1013D00000051BD53803009020684021425A08239D
:1013E0001343435202464032938835462B4E1E40EB
:1013F00096802E46425A04231343435201F082FC46
:101400000099084202D1204600F036F9206801F028
:1014100079FC00061FD520684421425A80239A4354
:1014200042523178002903D0204600F025F912E01D
:101430004030018804220A430280018808220A43BE
:1014400002803770808A80083C210140716020460C
:101450003946FFF744FE206801F054FC800508D5AA
:1014600020684421425A0E4B13404352204600F05C
:10147000C7F8206801F046FCC00505D52068442166
:10148000425A084B1340435201B0F0BDFFFB00002D
:10149000FFBF0000FFDF0000FFEF0000FFF70000CC
:1014A000FFFD0000FFFE0000F0B589B0002860D00D
:1014B00004464520C00025186878002804D1002083
:1014C0002870204600F05AF80320089568702068BC
:1014D00001F04CFA6168002914D0616800200346CD
:1014E00002465B01E31828255A552833D5B2DD8121
:1014F00001255D70186158619861D870521CD3B293
:101500009942EED8204624300790002911D00020BF
:10151000034602465B01E3182525ED005A555B1989
:10152000186158619861D8705870521CD3B29942B2
:10153000F0D8A0680590E068069027461037E0CF05
:10154000E269236A2068009501960297039204934A
:10155000059A069B01F0FCF900250798057001200B
:1015600008994870E069012804D12046FFF7A4FDDE
:1015700000E00125284609B0F0BD000081B00068F8
:101580000849884201D001B070470120C0050649D2
:101590000A6802430A60096801400091009801B09E
:1015A0007047C046005C00401C100240B0B50446C5
:1015B0008068022809D1272005016059012100F027
:1015C0002AFE605900F0E5FDB0BD024802493B2209
:1015D000FEF700FEB6410008EC41000810B50446D5
:1015E0008069002806D02C480168062291430160DA
:1015F00000F0EAFA27200001205800F0F4FD10BDA9
:1016000080B527210901405800F0F7FD80BD10B5D5
:101610004522D200835C012B01D1022010BD841829
:1016200002462432117001222270006801F082FB10
:101630000020207010BD80B52721090142582321C8
:1016400009014118104600F0F3FD80BDB0B5044615
:101650004520C000215C012901D10220B0BD251820
:1016600001202870206801F06BF9206801F040FB30
:1016700000202870B0BD000010B5044627200001EE
:10168000205800F021FEA069002804D0024801681B
:1016900006220A43026010BD10ED00E00121C906D8
:1016A0000F4A13680B43136013688B43136006C81B
:1016B0000A430168114342680A43816809041143DF
:1016C000084A51603F21090213688B43C068000239
:1016D0001843106010686021014311607047C046D4
:1016E00010100240006C0040F0B581B000284CD0D2
:1016F0000446424A1368012003408B4208D2136813
:101700000126B3430B431360126832408A4271D101
:10171000009121688A070ED54A0705D507221202D3
:101720004F4D2B6813432B604D4D2A68F0239A438D
:10173000A36813432B60C90729D1304908680126E3
:101740003040009A904205D90868B04308600868A4
:10175000C0074FD12078400707D507200002404A34
:1017600011688143E0680843106000F04FF83C497D
:1017700009680906090F234A515CC84022490860DC
:1017800000263046FFF742FC34E0012632E0616873
:10179000334A032909D0121F02290BD001290ED187
:1017A00012689203064625D50DE0126BD203064659
:1017B00020D508E01268920106461BD503E01268A6
:1017C0009207064616D5264A10680326B0430843FA
:1017D0001060FFF7FDFB0746094D214800680C210A
:1017E0000140606880008142A7D0FFF7F1FBC01B79
:1017F000A842F2D9304601B0F0BDC04600200240F8
:1018000088130000404100081C000020B0B51449B6
:101810000A681007830F13487B441B795B009F44C1
:10182000010203171048B0BD0323DB03896A0F24AC
:101830000C400FA1095D94021A40240F10A52C5DE5
:101840009A4207D001231B049A4204D0064802E0C2
:101850000648B0BD054802F04FFB44432046B0BDEA
:10186000041002400024F40000127A00006CDC0234
:101870000102030405060708090A0B0C0D0E0F10E0
:1018800002030405060708090A0B0C0D0E0F1010C1
:1018900080B500F081F980BDF0B58BB004460068DA
:1018A00044210991415E002901D40BB0F0BD2521EE
:1018B000C9000591611803910021C943089121468F
:1018C000243104910146443123221201A2180292CC
:1018D00001220192D2030A92069409E0FFF70AFD61
:1018E00020680999425E01464431089B9A42DCDC3B
:1018F0000A880F2717402ED0B900455A0A9A154278
:1019000000D1F5E041180A889F4B1A408023134309
:101910000B8079016418059963184D218900615C79
:10192000002907937ED01A789100435A5021415ADA
:10193000D200964EF136334200D1A3E0944B1B18EF
:101940009A185118091F0E888E490E4000D1A9E03F
:10195000132109019FE00188D2062AD48A4A114046
:101960000A9A114301808A4909185022805A08189E
:10197000049D2979C9004018001F0088814908404A
:101980006064E16B0818E063002620463146FFF7EB
:10199000C3FB28780028A3D0206C0028A0D1049B8A
:1019A000187880210143C8B221684C2288521E70E9
:1019B00096E70A054BD40A9A114291D00188724ADF
:1019C000114080220A430280714941185024025B71
:1019D0008918039D2A78D2008B5A6A490B40EB6123
:1019E0000DD0696900290AD0EA8801F08EF9E8690A
:1019F00069690818686100210698FFF798FB069846
:101A0000006863494118025B2B69002B00D1A0E0FC
:101A10003E2B00D9A4E05C08019D2B40E3189B02FB
:101A2000069CA6E05021415A594A821851181A784A
:101A3000D2008E5A53490E4040D097214900625A35
:101A40004F2189006158334601F05FF936E050219B
:101A5000415A4F4A82185118039D2A78D2008B5A56
:101A600048490B40EB61EA88029901F04EF9206881
:101A70000188454A114080220A4302802046FFF730
:101A8000DAFD2DE7424BC3189A18565A3D490E40CD
:101A900008D099214900625A4F2189006158334684
:101AA00001F033F907990698006809788900425ACD
:101AB000354B1A400A9BC0331343435251208000D8
:101AC0002158891921504F20800021588A1922500D
:101AD000052080012358002B04D02720C000205867
:101AE000B0422DD907980178069C2046FFF71FFBCE
:101AF000280600D4F4E67800400021680A5A224BF8
:101B00001A400A9B1A430A52214840185022895A07
:101B10004018790163182821595CCA008018001FF9
:101B20000088184A10402833D8615A6912185A613F
:101B30009B692046002B00D0D0E6FFF7EDFACFE6F8
:101B400007980178069C2046FFF78CFB2806D2D424
:101B5000C6E6535A0B4C23400A9C2343069C08E0DC
:101B6000DC065B09002C069C00D15B1E9B020A9DD3
:101B70002B4353520188054A1140064A51400180C7
:101B8000AEE6C046FF0300000F0F00000F3F00004D
:101B90000604000080B00000B0B5401E010E01D068
:101BA0000120B0BD054D68600024E043032101F031
:101BB000DDF8AC60072028602046B0BD10E000E0F2
:101BC00080B5FFF709FA80BD80B500F001F880BD4F
:101BD00070B58CB00025079506950595049503957D
:101BE000029501242004164EB1690143B161B16927
:101BF0000142FCD00B950A9503200990072008901C
:101C000008A82146FFF770FD706980218843706144
:101C1000E0063168014331603168014001912020C4
:101C200007902220069007480590049560070390CE
:101C30000295019802A8FFF731FD0CB070BDC046B7
:101C40001C1002407FBB0000704780B5AD2292009F
:101C5000825852689047002080BD80B5A72292002C
:101C6000835C5B1E022B08D84988012907D18118A3
:101C700000228A6000F03CF880BD00F013F880BDBF
:101C800010B513460A460024214600F079FA204692
:101C900010BD10B513460A460024214600F01DFB76
:101CA000204610BD10B50446802100F0FBFA00214B
:101CB000204600F0F7FA10BD10B5A52189000522D5
:101CC0004250002421462246234600F059FA20467D
:101CD00010BD10B513460A46A521890002244450C0
:101CE000C36103620024214600F0F7FA204610BDCC
:101CF00010B5A52189000422425000242146224625
:101D0000234600F0EAFA204610BD000012200880A9
:101D10000048704750410008122008800048704772
:101D2000200000200220088000487047644100081D
:101D300004200880004870473400002080B5C9881E
:101D4000012911D1A7218900415C4A1E022A04D22F
:101D5000002181600146083102E0032904D1011D00
:101D60000122FFF7B6FF80BDFFF79CFF80BD00009A
:101D7000F0B581B00D4604466846002606804888C6
:101D8000010A491E062963D82B221201A218C04657
:101D90007944097949008F4403070E5B5B1B2300DC
:101DA000207C11680A684CE05068217C01270029DA
:101DB0001DD0C16A1CE0C1B2052929D8794409792E
:101DC00049008F44022D303336391068426835E0BF
:101DD000207C00283CD15068416B6846884732E03F
:101DE000207C00280CD02046FFF75CFF34E0816A9D
:101DF00068468847064602207070002F42D02EE0C9
:101E00005068016B684688470646072070701BE0E3
:101E10005068836B002B1BD06A462046984712E01F
:101E2000106882680AE01068C26807E010680269FA
:101E300004E01068426901E010688269002A07D056
:101E4000207C6946904706460127002F07D119E0FC
:101E50002046FFF727FF00263746002F12D068469E
:101E60000288002A0BD0E888002808D0824200D3DC
:101E700002466846028020463146FFF72AFFE8887E
:101E8000002801D001B0F0BD2046FFF731FF01B0BE
:101E9000F0BD80B5A7229200835C5B1E022B08D8A0
:101EA000C988022905D181188968002904D0032135
:101EB00003E0FFF7F7FE80BD0121C16001460C3150
:101EC0000222FFF706FF80BD032804D8C0000349A3
:101ED000C140C8B2704702207047C04600020102EC
:101EE00010B5002811D0A7239B00C3189C69002CB3
:101EF00001D000249C61002900D0596102700121A9
:101F0000197000F0D1F8002010BD022010BD80B57E
:101F10000B2292018058FFF73DF9FFF7D5FF80BDF6
:101F200080B50B2292018058FFF70EF9FFF7CCFF26
:101F300080BDF0B581B00446A52080002718002997
:101F40000CD0386A42690220002A05D03B7A032B64
:101F500002D120469047002001B0F0BD386800282B
:101F600016D0042814D0022816D1206A666AB0421E
:101F70001CD9801B206283B2204611461A46FFF707
:101F800088FE002120460A460B4600F0F9F803E0DF
:101F90008021204600F086F9387B012803D10020FB
:101FA000387301B0F0BD002001B0F0BDE5692846EE
:101FB0003146FEF7AFF9B54212D3002910D1786847
:101FC00085420DD20025204629462A46FFF761FEAC
:101FD0007D60204629462A462B4600F0D1F8DBE7F3
:101FE000386AC168002904D0387A032801D1204614
:101FF00088478021204600F055F92046FFF75CFE17
:10200000CAE770B50546A5208000281800290CD025
:10201000026A92690224002A05D0007A032802D1BC
:10202000284690470024204670BD016800240529F9
:1020300015D00329F7D10B2149016B181E68596887
:102040008E4213D9701A1860884200D3084683B2B2
:10205000284611461A46FFF713FE204670BD04605D
:102060002846214600F01EF9204670BD016A096924
:10207000002904D0007A032801D128468847284641
:10208000FFF736FE204670BD80B50B2292018058C6
:10209000FFF7AFF8FFF718FF80BD80B50B22920164
:1020A0008058FFF7A8F880BD70B504460B20850165
:1020B0002148605127210901445000218161C161FB
:1020C00001620221016106221C4B036042608160B3
:1020D000FFF7EAF900282AD166193068002418238E
:1020E00021462246FEF7FCFF306880215823224615
:1020F000FEF7F6FF3068012198232246FEF7F0FF35
:1021000030688121D8232246FEF7EAFF3068232178
:10211000CD00022122462B46FEF7E2FF3068403513
:10212000822122462B46FEF7DBFF204670BD044885
:1021300004497A22FEF74EF8080C0020005C0040AB
:10214000B6410008EC4100080B22920180584A0673
:10215000120D8018090602D52A30007870479521A3
:10216000490040180078704710B514460B229201C0
:1021700080581A462346FFF745F8FFF7A5FE10BD25
:1021800010B50B24A4010059FFF76CF8FFF79CFE73
:1021900010BDF0B581B004460025402629462A46E8
:1021A0003346FFF7E1FF2B20C000012727502018FE
:1021B000C660802120462A463346FFF7D5FFA5207A
:1021C00080002550201807726662A761056165606E
:1021D000416A002904D0006A4268002120469047E5
:1021E000002001B0F0BDA7218900425C042A02D181
:1021F0004018417801700020704780B5A721890000
:10220000425C032A05D141188969C969002900D0B7
:102210008847002080BD01740020704780B50B22E4
:1022200092018058FFF7F3F9FFF74EFE80BD0000E2
:10223000F0B581B00446A5208600A7193D461435A7
:10224000284600F053F80120A0511548205A786024
:10225000397D1F20084003280BD8C04678440079F8
:1022600040008744010C11162046294600F0E4F88E
:1022700013E080200140204600F014F80DE02046D5
:10228000294600F0C0F908E02046294600F011F97F
:1022900003E02046294600F0CFF8002001B0F0BD51
:1022A000AE02000080B50B2292018058FEF7EDFFD0
:1022B000FFF70AFE80BD80B50B2189014058FFF76A
:1022C000C5F9FFF701FE80BDA7218900425C042308
:1022D0004354401842700020704710B50B24A401ED
:1022E0000059FFF707F8FFF7EFFD10BD0A780270FD
:1022F0004A7842708A78CB781B029A1842800A7911
:102300004B791B029A1882808A79C9790902891847
:10231000C1807047002904D0AD2292008150002076
:1023200070470220704770B50446888800280BD19A
:10233000C888002808D14D887F2D05D8A7208000A7
:1023400026183078032803D12046FFF7ABFC70BD78
:102350007F200540B57020462946FFF75FFF2046E5
:10236000FFF7C6FC002D02D00220307070BD0120A6
:10237000307070BD80B5AD2292008258002A05D021
:1023800012689047411E8841400080BD022080BDF8
:10239000B0B5044648881F4D2870C1B2022903D346
:1023A0002046FFF77FFCB0BDA7208000225C2018EC
:1023B000032A0CD0022A1BD1002927D00322027045
:1023C00061602046FFF7D6FF02281FD1E8E7002909
:1023D00016D06068012819D0C1B22046FFF735FC3D
:1023E000297861602046FFF7C5FF02280ED1D7E7A4
:1023F0002046FFF757FC29782046FFF726FCB0BDA2
:102400006160022202702046FFF71FFC2046FFF7A2
:102410006FFCB0BD4801002080B54988012905D175
:10242000A921890001224250FFF762FC80BD80B5DE
:10243000FFF741FF002080BD80B50B7860221A4075
:102440000AD0402A01D0202A17D1AD22920082580A
:1024500092689047002080BD4A78092A0DD8C0466E
:102460007A44127952009744040C0810081420088A
:10247000181CFFF70EFD002080BDFFF713FC0020A5
:1024800080BDFFF7EAFB002080BDFFF7C5FF0020FD
:1024900080BDFFF748FF002080BDFFF74FFC002004
:1024A00080BDFFF775FF002080BDFFF761FC0020B5
:1024B00080BDB0B50A460446087860210140A720D7
:1024C0008000201800290AD0402901D0202918D1E5
:1024D000806983682046114698470020B0BD117975
:1024E0005378002B12D0012B22D0032B4ED1007831
:1024F00003282FD0022849D180200843802845D0C6
:102500001FE02046FFF7CEFB0020B0BD0078032877
:102510002ED002283AD180200843802836D17F204F
:10252000084014224243A31808064DD514334EE048
:10253000007803282FD0022828D180200843802843
:1025400024D02046FFF7AEFE80212046FFF7AAFEEA
:102550000020B0BD5088002825D180200843802865
:1025600021D0D08800281ED12046FFF79BFE1AE01C
:102570000F230B4080200A4614255D436319024057
:1025800016D12B25ED005B59002B14D12046FFF707
:1025900089FB0020B0BD50880028B5D1480602D084
:1025A0002046FFF7B4FC2046FFF7A2FB0020B0BD99
:1025B0009B69002BEAD07F230B4014255D436519EE
:1025C000002A0AD014350BE0552080001B1800208B
:1025D000186002222046194611E055229200AD18DB
:1025E0000843802801D1002005E02046FFF7ACFD1C
:1025F0000028F8D001202860022220462946FFF753
:1026000068FB0020B0BDB0B50D46044609786020D7
:10261000084003D0402801D020280FD1A7208000F7
:1026200020180178491E022903D8A9880906490EF5
:1026300009D02046FFF736FB0020B0BD2046FFF74B
:1026400031FB0020B0BD8069826820462946904752
:102650000028F6D1E8880028F3D12046FFF748FB90
:102660000020B0BDF0B582B002460F78B800131854
:10267000105A794D0540C8780328019008D80026E3
:10268000784400794000874401050B08012005E0EB
:10269000012605E07148401C01E00320400205438B
:1026A0006F4C25431D801888CE4D28403843204369
:1026B0001880087B002840D000961888694E064094
:1026C0006948301818805020165AFF00D719012485
:1026D000A5027D19E4430F892740AF53105A2818EB
:1026E0004A8922408280D04A1446F134188820401A
:1026F0004978002941D0BD490028BA4D03D0188837
:1027000028400843188018884006009E544C06D57F
:1027100018882840524C403404431C80504C188880
:10272000284008431880303518882840019901292D
:1027300046D021462031484043E05020105A0090B6
:10274000FF004878002841D0D019009A8018C98825
:1027500001229143920281521888400605D51888BB
:1027600028402146403101431980303519882940DD
:102770000198012845D1214369E00028994D04D0F2
:102780001888284099490143198018884006009EFE
:10279000334C05D518882840214640310143198023
:1027A000188828402146403101431980188810407C
:1027B0008F4941401980303519882940214346E02E
:1027C0002043188019881140214340E03446C888CE
:1027D0000126B043D519019550323546B702019E06
:1027E000F719009EBE19B080BF1D08691188002826
:1027F0000AD03E2810D805404008401985022646D8
:1028000014E02034614022E0C85B144A0240144DB9
:10281000803D1543264609E0C2064009002A2646A7
:102820000F4D00D1401E8002803D0543CD531988D5
:102830007D480246F132114205D01988694A11409B
:102840006A4A0A431A801A8802400849514019808E
:10285000304602B0F0BDC0468F89FFFFFF03000085
:10286000808000000F0E00008081000080B0FFFF1C
:10287000B0B50A789200845A80184B780A7B2F49A9
:10288000002A21D0684A1546F1352C40002B27D06C
:10289000544B564D002C03D004881C402C4304801C
:1028A0000488640603D504881C400C430480048813
:1028B0001C402C430480303304881C400B46403BB2
:1028C00023430380134631E0002B24D0454A1346AE
:1028D000303364062AD5048814400C43048025E074
:1028E000404B002C04D004881C40404D25430580FB
:1028F0000488640603D504881C400C4304800488C3
:102900001C400C430480048814400A46403A224389
:10291000028030330AE0F24B1A46F132144205D0FD
:102920000288304C1440F14AA218028002881A40F2
:102930004039114301800020B0BDC046C080000076
:102940005821425A0123DB031343435200207047AE
:1029500010B5402101224252002444520146403128
:102960008C800C8200F0C4F9204610BD4021425AF0
:10297000024B1340435200207047C0467F40000086
:1029800000207047B0B50A7B002A01D00020B0BDFE
:102990000A789300C25AC0184B78002B10D0520608
:1029A000104B114A05D504881C4015462035254397
:1029B0000580C9780129E9D03033018819400DE03C
:1029C000C7490B46F1331A4205D00288054B134024
:1029D000C64A9A18028002880A40C24951400180C2
:1029E0000020B0BD0F0F0000A080000080C00000DC
:1029F00080B0000010B54B78002B04D0094A002BA2
:102A000004D1B74B03E0064A002BFAD0B64B097845
:102A10008900445A1C4054404452002010BDC04616
:102A20008090FFFF9080FFFF0F3F0000F0B581B066
:102A30000D4604460F698869C11B00D20021A961B7
:102A4000B84200D807462A7B687801281FD10121A7
:102A5000CE03002A34D02A789300E35A5B0654D47C
:102A6000012800D187E0002800D0F5E05020205A4E
:102A7000D200A218984BD218002F00D1D8E03E2FD8
:102A800000D9E1E039407B0859188902E3E0924916
:102A9000002A26D001284FD0002800D090E05022F4
:102AA000A25A63189A182B78DB00002F009273D07B
:102AB0003E2F7AD801223A407E08B218920271E085
:102AC000EA886969BBB2204600F03DF95020205ADF
:102AD00020182978C90040187F494752B036824BE8
:102AE000F0E05020205A09190818001D2978C90063
:102AF000002F29D03E2F31D801223A407B089A1866
:102B000092020A52764B774EDCE001283BD0002837
:102B100000D0ACE05020205AD200A2186E4BD21840
:102B2000121D002F00D189E03E2F00D997E03940D7
:102B30007B085918890299E05022A25A63189A1802
:102B40002B78DB00D7523BE00A5A644B134001223A
:102B5000D2039A180A52624B624EB3E0FB067A091E
:102B6000002B00D1521E92020123DB0313430B52B0
:102B70005B4B5C4EA6E05020205AD100611808182B
:102B80005549475268E05020205AD1006118081872
:102B90005149401887806AE09E5A504A32400126C7
:102BA000F6039219009E9A530AE0FE067A09002E57
:102BB00000D1521E92020126F6031643009A9E523D
:102BC000474B484E012814D000287BD15020205A72
:102BD00009190818001D2978C900002F12D03E2FAE
:102BE0001AD801223A407B089A183D4B92020A52A9
:102BF00068E05020205A091908182978C90040189F
:102C000087805FE00A5A1F46344B13400122D203EB
:102C10009A183B460A5255E0FB067A09002B00D170
:102C2000521E92020123DB0313430B522C4B49E04B
:102C3000815A2A4B0B40334383520DE0815A274B74
:102C40000B403343835212E0FB067909002B00D17D
:102C5000491E8902314381522846083009E0FB06AB
:102C60007909002B00D1491E89023143815228463F
:102C70000A3069690288BBB2204600F064F8304629
:102C8000B030697801290ED0002919D1297889003E
:102C9000625A154F3B46303B1340C0361E433B46FD
:102CA000665206460EE029788900625A0E4E334677
:102CB000303B13400D4A1A4333466252064601E048
:102CC0000646094B28788000215A1940714021524C
:102CD000002001B0F0BDC04602040000FF03000068
:102CE0000F3F000080B000003F0F000080C00000D8
:102CF0004021425A024B1343435200207047C046C2
:102D000080BF00004421405A704710B5801801224E
:102D1000920280185A0808D004880C70240A4C705B
:102D2000891C521E801C002AF6D1DA0701D00088C7
:102D3000087010BD002901D0002070474C2180226E
:102D400042520020704710B55B1C5B080DD0801804
:102D50000122920280180A784C782402A21802807C
:102D6000891C5B1E801C002BF5D110BD002805D4EA
:102D70000322034693430C4A9A1806E00F220240AE
:102D8000083A03239A43074BD2188007C00E8901E3
:102D9000C9B28140FF238340106898430843106004
:102DA0007047C0461CED00E000E400E05722D2006E
:102DB0008258002A07D014234B43C3180020D8613F
:102DC00051188877704702207047000070B504469C
:102DD0005720C00020580225002822D00E46204649
:102DE000FFF75BF9022E0FD0012E1AD1584D2D3569
:102DF00081B2284600F0C0FC0121102320462A465B
:102E0000FFF7BEF9002070BD514D3D3581B2284617
:102E100000F084FD0221402320462A46FFF7B0F946
:102E20000025284670BDC046F0B581B0044646482E
:102E3000407B00281CD0444F1437002608E018308F
:102E400000210160FF1D761C3F48407B86420FD267
:102E50003D7820462946FFF763F8072028401421D3
:102E6000414360182906EAD42B21C9004018E7E73E
:102E70005720C1000020605001B0F0BD0020704715
:102E80000A21018000487047684100082E21018016
:102E90002D4870472E2101802B4870472E2101803C
:102EA000294870470A2903D1322010800148704711
:102EB0000020704774410008F0B581B004462248F4
:102EC000407B002826D0204F1437002608E0183019
:102ED00001210160FF1D761C1B48407B864219D2F0
:102EE0007A783D78022A02D1207C022827D2B8784D
:102EF000F97809020B1820462946FFF735F9072013
:102F000028401421414360182906E0D42B21C90030
:102F10004018DDE75720C0000D4D25502A462D32C0
:102F2000012110232046FFF72BF93D3502214023D4
:102F300020462A46FFF724F9002001B0F0BDE648FC
:102F400002497722FDF746F974000020D2410008BB
:102F50009A0E0020B0B54A78002A01D00020B0BDFA
:102F600049880029FAD10C491022FEF7B2FE01244B
:102F70000025204621462A4600F076FB28462146B9
:102F80002A4600F071FB822000F0E8FA812000F070
:102F9000E5FA0020B0BDC046A6410008FEF726F8BD
:102FA000FEF71AF8FEF714FE00F05EFF00F0E8FAF4
:102FB00000F0CAFE00F0B0FB0120042400252146E9
:102FC0002A4600F051FB284621462A4600F04CFBD9
:102FD00000F074FF00F006FB00F0B4FBF8E700001F
:102FE000C00704D00248017810220A4302707047DB
:102FF000240F0020B0B5854C834D2859FD21C90010
:10300000695881420DD0142141436818183000F0EE
:10301000F9FE002805D42859401C642800D100205E
:103020002851B0BDF0B595B00BA82821FDF76FF978
:1030300001256906324882680A43826082680A4034
:103040000A920A99A90402680A43026002680A40C7
:103050000A920A9A02680A430260006808400A90CD
:103060000A98284805A90A4618C818C258C858C25C
:10307000254C2046FDF7EEFE244869460A4648C81E
:1030800048C2C8C8C8C22046FDF7E4FEA54C204689
:10309000FDF7D3FB002610201D492A02A2831D4AFA
:1030A00021606060A660E66026616661A2612046DC
:1030B000FDF7A9FD002813D11295119613950F96CF
:1030C0001496109697480BA9FDF744FB00280CD1E5
:1030D00094481149FDF7D3FA00280BD115B0F0BD83
:1030E000914892494222FDF775F88F488F494E2248
:1030F000FDF770F88C488D495322FDF76BF8C046F8
:1031000014100240F0400008000400481841000874
:103110000064004000010001138F000001493A4A99
:1031200050507047F40700007F210901364A505083
:103130007047C04680B57B48FDF73CFCFFF75AFF5F
:1031400080BDC04610B58CB000220B920A92099245
:1031500008920792069205920492039202920192BB
:1031600000926A46131D05AAFDF7AAFB002801D0AC
:103170000CB010BD0798002806D06846417B80221D
:103180000A434273069800E00598009008980228C8
:1031900004D16846417B40220A4342736C46099839
:1031A000207300F0F7FD20827F200001164C21588B
:1031B000002901D068468847E068401CE0600CB0F8
:1031C00010BDC046F0B5002811D0FD21CA000E493F
:1031D0008C58631C642B00D100230C4D4D59AB421D
:1031E00007D18868401C88600020C043F0BD0020E3
:1031F000F0BD142565434C19183460C860C4E0C89C
:10320000E0C48B500020F0BD4C010020EC07000012
:1032100010B50624444313484460082A00D308220A
:10322000920011A41219121F12684261102900D3D2
:103230001021890014A28918091F09680161042B53
:1032400000D30423990020A28918091F0968C160CE
:10325000FDF7D9FC002800D110BD334833497A224C
:10326000FCF7B8FF4800002000000000000010003C
:10327000000020000000300000004000000050006E
:10328000000060000000700000000000000001006D
:103290000000020000000300000004000000050020
:1032A0000000060000000700000008000000090000
:1032B00000000A0000000B0000000C0000000D00E0
:1032C00000000E0000000F000000000000000001E0
:1032D0000000000200000003B641000810B5114CC8
:1032E000002807D02046FDF73BFD07212046FDF7CB
:1032F0009BF910BD07212046FDF796F92046FDF702
:103300005DFD10BD80B5411E8841C1070548816043
:10331000FDF779FC002800D180BD03480349CD2288
:10332000FCF758FF48000020B6410008B8410008EB
:10333000F0B587B0044600250695059504950395DC
:1033400002954E480078002809D00026900608D43F
:1033500002290BD200960F4602292BD28BE02E4673
:1033600089E0042910D200960F4621E02078637886
:103370001B021B185B0902930123034000938F1E5D
:10338000A41C022977D315E002A880234373E078B8
:103390000006A3781B04181863781B02C018237852
:1033A000C018C00802900120184000900F1F241D73
:1033B000042960D30F261640082E334600D3082375
:1033C00002A80373B8B2B04201D22E4653E0D00631
:1033D00008D402A8001D21461A46FCF739FFBF1B7E
:1033E000A41904E002A8417B40220A4342730098DA
:1033F0000028019708D038042E463CD0207802A936
:1034000088730198401E019000F0C4FC02A9088254
:1034100000260321ED22304600F026F900F0BAFC28
:103420000446174D174F02A8FFF7CCFE002815D50C
:10343000FFF780FE00F0AEFC2A7810211140001B3F
:1034400080B2B84201D8002903D001231A432A7060
:10345000019EB8420FD80029E5D00CE00098002862
:1034600008D002A8417B20220A43427300F07EFB71
:10347000019E00E0019EF0B207B0F0BD180F0020E1
:10348000240F00208C5B0000F0B581B01446054687
:103490005720C000234A17580026002F38D028781C
:1034A00000280DD0012833D16A780F2010403A1837
:1034B000927F002A02D040003C5229E00020287070
:1034C00068780F2210403818807F002823D1A86820
:1034D000A0421DDB686816462246FCF7B9FE6878F4
:1034E000304038180126867769780807C00E002218
:1034F0003A5207200840142242430A488218D461F5
:103500006A68A3B2FEF7E9FE2E70E8680019E86069
:10351000304601B0F0BDFF22963203A00E49FCF701
:1035200059FEC04644090020705F646174612D3EFD
:1035300065705F74785F696E5F7573655B706673E5
:103540006D2D3E65705F6164647226307830465D33
:10355000203D3D2030000000D241000880B50146EA
:103560000F2202405720C3000448C3589A18002372
:103570009377FEF789FD4142484180BD4409002010
:10358000F0B58BB001204504134E306828433060FD
:10359000306828400A900A98104805A90A4618C8B9
:1035A00018C298C898C20920C4062046FDF752FCEC
:1035B000306828433060306828400A900A980848EC
:1035C00069460A4628C828C268C868C22046FDF76E
:1035D00041FC0BB0F0BDC04614100240044100088D
:1035E0002C410008F0B581B0002600F0CDFB009022
:1035F0003E4B35460DE00020F88050425041387275
:10360000397A284600F074F823460A366D1C1E2EBF
:1036100027D09F19F8880028F7D0B988009A121A85
:1036200092B28A42F1D31C469B5B5A1E022AE2D315
:10363000DA1E022A12D2081801210843F880387ACB
:10364000484038727888401E80B200998842D7D2AC
:1036500002210022284600F007F8D1E70020F88078
:10366000CEE701B0F0BDC04670B5032822DA14469B
:103670000D460A26464300F087FB1C498D538919E5
:10368000CA88002A03D18A1D012303431380002224
:103690008A80EA1E012A0BD80A1D032D01D0C823F7
:1036A00000E032231380002C02D0001901240443CF
:1036B0004C8070BD02A006A11F22FCF78BFDC04606
:1036C0006C6564203C204C45445F544F54414C0091
:1036D0002E2E2F4170706C69636174696F6E2F704C
:1036E00063616E5F6C65642E630000007C0E0020D9
:1036F000012806D000280CD10120002907D10004A0
:1037000005E0002901D0022001E001204004014928
:10371000086070471800004880B507480121017013
:10372000734800F0A0F9FFF77DFC0448FFF7FCFCAC
:103730000348FFF7F3FC80BD460F00206D3B0008F7
:10374000E12F000880B500F025FB674909780029C2
:103750000AD066490A88821A92B2064B9A4203D36B
:103760000880634800F01CFB614800F019F9FFF77E
:10377000E1FC80BD8D5B0000F0B581B0022901D273
:1037800001B0F0BD04464078032800D99CE08000D9
:1037900001A108588746C046A9370008AB37000882
:1037A000D537000809380008EAE72078401E0B28C2
:1037B000E6D8C0467844007940008744062D05309D
:1037C000053205053705053CDAE744480078E07026
:1037D000434831E02078401E0B28D1D87844007946
:1037E0004000874406053160050505056305696CE1
:1037F000C6E7E07839490870A07839490870A01CFC
:1038000000F0C8F901B0F0BD20780328B8D1A07845
:10381000FFF778FD01B0F0BD1021A1700FE02E4838
:103820000AE0FF2060712071E07006E0A07800F0EF
:10383000D3F9E07002E027480078A07010212046FC
:1038400000F044FB01B0F0BDA178274E317002209A
:103850000029014600D004210022FFF705FF30783F
:10386000FFF73CFD3078002806D000F093FA1F499E
:1038700008801F4800F094FA3078012402270028BD
:10388000214600D03946002528462A46FFF7ECFE9F
:1038900030780028214600D0394620462A46FFF7D6
:1038A000E3FE01B0F0BDA0780B490AE0E178A07812
:1038B00000F0E4F901B0F0BDA0780A4901E0A07879
:1038C0000449087001B0F0BD0AA00BA1124AFCF730
:1038D00081FCC0461A0F002070000020280F002035
:1038E0002C0F0020300F0020180F00201C0F00208C
:1038F000480F0020300000002E2E2F4170706C69A0
:10390000636174696F6E2F7063616E5F70726F7444
:103910006F636F6C2E630000EB020000F0B583B0A4
:1039200002292CD34378002B29D0821C881E002426
:10393000274601930294010403D12646002E1BD191
:103940001DE0451E541C127800265006304604D453
:10395000A9B22046FFF7ECFC019BA9B2421E92B22D
:103960008A4204D2291A89B26218012601E0284647
:103970002246029C002E02D07F1C9F42DBD303B064
:10398000F0BD000010B51F4A835A01241C433E239A
:103990009C43035D5B1C0355835A5918815210BD2B
:1039A00070B50546174E00F0F5F90446AA5B022AE9
:1039B00014D8164E3088002500281ED0201A80B258
:1039C00012281AD31048002529462A46FFF75CFD25
:1039D000002812D000253580284670BD3F323F2098
:1039E000824309482946FFF74FFD002807D02846A3
:1039F00000F039F8054804800125284670BD0020F4
:103A000070BDC0468203000038000020200F002057
:103A1000F0B583B03E2923D80D4604460720C301E4
:103A2000E61870883F2101404022511AA94210D265
:103A30003F30C0270740E019019040210293FCF776
:103A400064FC019800F01BF8029B00203080B81C39
:103A5000708070884119994202D8201803B0F0BDD7
:103A6000002003B0F0BD10B5044600F008F80720B0
:103A7000C0010021215220180221418010BD0021E7
:103A80004170022101707047F0B581B00446364D97
:103A9000102628463146FFF7BBFF00281AD00D211B
:103AA0006156227B082A00D30822002901DA20234C
:103AB0001A4389083140114301708A06226816D4DE
:103AC0005301667BB606F60FF3184370D308032242
:103AD000022619E02448FFF763FF00283DD0224862
:103AE0001021FFF795FF0028D9D101B0F0BD637B0D
:103AF000560BC67056098670D6009B06DB0F9B19C5
:103B00004370530D0522042683550723DB01ED5A2C
:103B1000268A865480180127002D02D1350A457067
:103B20000227114EF55A6D1CF552D619C519C80653
:103B300007D4227B211D2846FCF78AFB207B8619AF
:103B40002D18607B800602D5A07B2870761CF1B210
:103B50000548FFF717FF01B0F0BDA9480178022220
:103B60000A43027001B0F0BD480F002010B50446B2
:103B70000748007800280AD0607B800604D4012022
:103B80000321ED22FFF770FD2046FFF77DFF10BDFA
:103B9000180F002010B584B002780F2111404B1C83
:103BA00003A90B705206520F531C02AA13704078DF
:103BB0003F2303405B1C01AC23808009401C6B4603
:103BC00018700198039802982088097812781B7859
:103BD000FFF71EFB04B010BD0146544800780128D1
:103BE0001DD17F2001401F2900D93DE00120C046A2
:103BF0007944097949008F443A37373737373134B8
:103C00003737373737370F3B2B3737372E3737377D
:103C1000373737373737373E4A48007870471F20E5
:103C200001401F2922D801207944097949008F4495
:103C30001E1D1D1D0F1215181D1D1D1D1D1D1D1DD9
:103C40001D1D1D1D1D1D1D1D1D1D1D1D1D1D1D1BA6
:103C50003A4800787047384800787047354800780F
:103C60007047334800787047002070470020704745
:103C700033480078704780207047C04610B52B4A03
:103C80001378012B1AD17F231840801F192800D9DF
:103C90004AE0C04678440079400087442D304545CD
:103CA000454545450C39274545452A454545454542
:103CB00045454545453F2348017010BD1F23184029
:103CC000001F1B2830D8C046784400794000874444
:103CD0000D1013162B2B2B2B2B2B2B2B2B2B2B2B9A
:103CE0002B2B2B2B2B2B2B2B2B2B2B191348017016
:103CF00010BD1148017010BD0E48017010BD0C4878
:103D0000017010BD48B200280ED50120107010BD02
:103D1000FF2900D00B460A48037010BD48B20028A6
:103D200002D40020107010BD10BDC046460F002008
:103D30003C0F00203A0F0020380F0020340F0020E5
:103D4000440F0020400F002081B00C48016802227F
:103D500011430160006810400090009808484049F5
:103D600081620168074A0A400260016801600168D7
:103D700001220A43026001B07047C0461C10024095
:103D800000040040FFFC000080B5FDF721F980B27F
:103D900080BD00000148006880B2704724040040E4
:103DA00070B504460521FFF733FE002825D00546EF
:103DB000FFF7F0FFE8700126AE7004216970422120
:103DC0002970000A287105212046FFF7DBFD032139
:103DD0002046FFF71DFE00280FD008490978084D3E
:103DE0002A780A402A7046708270402101700321AF
:103DF0002046FFF7C7FD0020287070BD300F00205F
:103E0000240F002010B588B0002407940694059470
:103E100004940394029401940D21415602680029F0
:103E200004D40F4B1A400292224604E007235B079A
:103E30009A43039204220492027B069249090222C9
:103E40000A400592021D074802A901ABFCF728FCB5
:103E5000002802D0E04308B010BD019808B010BDA2
:103E6000FF0700004800002080B522480F490022CB
:103E7000FEF736F800280BD11E480F49FEF74AFA24
:103E8000002808D11B48FEF7D2FA002807D180BDD0
:103E9000FF226C3206E0FF206C30421D02E0FF2260
:103EA0006C320A3202480349FCF794F90000002002
:103EB000B6410008D2410008A400002080B50248A5
:103EC000FDF72CFA80BDC046080C002010B50C464A
:103ED00002460848016B002901D0002010BD046390
:103EE00081212346FEF7F9F9002800D0002420465E
:103EF00010BDC0464409002043088B421AD300225B
:103F000003098B4279D3030A8B425ED3030B8B42A6
:103F100042D3030C8B4227D30902FF2212BA030CAF
:103F20008B4202D31212090203D0030B8B4233D30C
:103F30001AE0D3E0411A8041401C704703460B430E
:103F400071D443088B42F5D3002203098B4254D32A
:103F5000030A8B4239D3030B8B421DD3030C8B42D4
:103F600002D394466EE0090AC30B8B4201D3CB0304
:103F7000C01A5241830B8B4201D38B03C01A5241AA
:103F8000430B8B4201D34B03C01A5241030B8B42AC
:103F900001D30B03C01A5241C30A8B4201D3CB0297
:103FA000C01A5241830A8B4201D38B02C01A52417C
:103FB000430A8B4201D34B02C01A5241030A8B427F
:103FC00001D30B02C01A5241CDD2C3098B4201D397
:103FD000CB01C01A524183098B4201D38B01C01A15
:103FE000524143098B4201D34B01C01A524103098C
:103FF0008B4201D30B01C01A5241C3088B4201D33B
:10400000CB00C01A524183088B4201D38B00C01AE7
:10401000524143088B4201D34B00C01A5241411A0E
:10402000524110007047CA0F00D04942031000D31C
:104030004042534000229C4603098B422DD3030A81
:104040008B4212D38901FC2212BA030A8B420CD391
:10405000890192118B4208D3890192118B4204D3BA
:10406000890137D0921100E08909C3098B4201D33D
:10407000CB01C01A524183098B4201D38B01C01A74
:10408000524143098B4201D34B01C01A52410309EB
:104090008B4201D30B01C01A5241C3088B4201D39A
:1040A000CB00C01A524183088B4201D38B00C01A47
:1040B0005241D9D243088B4201D34B00C01A52411E
:1040C000411A00D201465241104663465B1000D3AC
:1040D0004042704763465B1000D3404201B5002167
:1040E000004201D0C9430846C046C04602BD000098
:1040F00000010000020000000000000003000000BA
:1041000004000000010000000100000000000000A9
:10411000010000000000000000020000020000009A
:104120000000000003000000040000000200000086
:10413000010000000000000001000000000000007D
:104140000000000000000000010203040607080947
:1041500012035800430041004E002D00550053004B
:1041600042000000FE0300000A06000100000040BB
:104170000100000032032000200020002000200069
:10418000200020002000200020002000200020002F
:10419000200020002000200020002000200020001F
:1041A000200020002000000008040008070004028E
:1041B000E0070100000030002E2E2F4170706C6966
:1041C000636174696F6E2F7063616E5F63616E2EE1
:1041D00063002E2E2F4170706C69636174696F6E7D
:1041E0002F7063616E5F7573622E63002E2E2F41F8
:1041F00070706C69636174696F6E2F757362645F50
:10420000636F6E662E6300002842000800000020E5
:10421000E80000000401000810430008E800002046
:10422000681B000020010008191D0008311D00084E
:10423000251D0008251D0008000000000D1D0008B8
:104240000000000000127A0012010001000000408E
:10425000720C0C00FF540A0400010000040309045E
:1042600000820000CC12002080030000000000004B
:10427000006400400000000000000000000000009A
:10428000000000000000000000000000000000002E
:104290000000000000000000FF00000009022E00E6
:1042A000010100806409040000040000000007050B
:1042B00081021000000705010210000007058202BC
:1042C000400000070502024000000000B92E00086F
:1042D000292E0008552F0008000000007D2E000840
:1042E000AD2D0008CD2D00080000000000000000EA
:1042F00000000000952E00088D2E00089D2E00085D
:10430000812E0008A52E0008010000000400000016
:04000005080000C12E
:00000001FF
